{"abi":[{"type":"constructor","inputs":[],"stateMutability":"nonpayable"},{"type":"function","name":"DELEGATION_TYPEHASH","inputs":[],"outputs":[{"name":"","type":"bytes32","internalType":"bytes32"}],"stateMutability":"view"},{"type":"function","name":"DOMAIN_SEPARATOR","inputs":[],"outputs":[{"name":"","type":"bytes32","internalType":"bytes32"}],"stateMutability":"view"},{"type":"function","name":"allowance","inputs":[{"name":"owner","type":"address","internalType":"address"},{"name":"spender","type":"address","internalType":"address"}],"outputs":[{"name":"","type":"uint256","internalType":"uint256"}],"stateMutability":"view"},{"type":"function","name":"approve","inputs":[{"name":"spender","type":"address","internalType":"address"},{"name":"value","type":"uint256","internalType":"uint256"}],"outputs":[{"name":"","type":"bool","internalType":"bool"}],"stateMutability":"nonpayable"},{"type":"function","name":"balanceOf","inputs":[{"name":"account","type":"address","internalType":"address"}],"outputs":[{"name":"","type":"uint256","internalType":"uint256"}],"stateMutability":"view"},{"type":"function","name":"burn","inputs":[{"name":"amount","type":"uint256","internalType":"uint256"}],"outputs":[],"stateMutability":"nonpayable"},{"type":"function","name":"checkpoints","inputs":[{"name":"","type":"address","internalType":"address"},{"name":"","type":"uint256","internalType":"uint256"}],"outputs":[{"name":"fromBlock","type":"uint32","internalType":"uint32"},{"name":"votes","type":"uint224","internalType":"uint224"}],"stateMutability":"view"},{"type":"function","name":"decimals","inputs":[],"outputs":[{"name":"","type":"uint8","internalType":"uint8"}],"stateMutability":"view"},{"type":"function","name":"delegate","inputs":[{"name":"delegatee","type":"address","internalType":"address"}],"outputs":[],"stateMutability":"nonpayable"},{"type":"function","name":"delegateBySig","inputs":[{"name":"delegatee","type":"address","internalType":"address"},{"name":"nonce","type":"uint256","internalType":"uint256"},{"name":"expiry","type":"uint256","internalType":"uint256"},{"name":"v","type":"uint8","internalType":"uint8"},{"name":"r","type":"bytes32","internalType":"bytes32"},{"name":"s","type":"bytes32","internalType":"bytes32"}],"outputs":[],"stateMutability":"nonpayable"},{"type":"function","name":"delegates","inputs":[{"name":"account","type":"address","internalType":"address"}],"outputs":[{"name":"","type":"address","internalType":"address"}],"stateMutability":"view"},{"type":"function","name":"getPastTotalSupply","inputs":[{"name":"blockNumber","type":"uint256","internalType":"uint256"}],"outputs":[{"name":"","type":"uint256","internalType":"uint256"}],"stateMutability":"view"},{"type":"function","name":"getPastVotes","inputs":[{"name":"account","type":"address","internalType":"address"},{"name":"blockNumber","type":"uint256","internalType":"uint256"}],"outputs":[{"name":"","type":"uint256","internalType":"uint256"}],"stateMutability":"view"},{"type":"function","name":"getVotes","inputs":[{"name":"account","type":"address","internalType":"address"}],"outputs":[{"name":"","type":"uint256","internalType":"uint256"}],"stateMutability":"view"},{"type":"function","name":"mint","inputs":[{"name":"to","type":"address","internalType":"address"},{"name":"amount","type":"uint256","internalType":"uint256"}],"outputs":[],"stateMutability":"nonpayable"},{"type":"function","name":"name","inputs":[],"outputs":[{"name":"","type":"string","internalType":"string"}],"stateMutability":"view"},{"type":"function","name":"nonces","inputs":[{"name":"","type":"address","internalType":"address"}],"outputs":[{"name":"","type":"uint256","internalType":"uint256"}],"stateMutability":"view"},{"type":"function","name":"numCheckpoints","inputs":[{"name":"","type":"address","internalType":"address"}],"outputs":[{"name":"","type":"uint32","internalType":"uint32"}],"stateMutability":"view"},{"type":"function","name":"symbol","inputs":[],"outputs":[{"name":"","type":"string","internalType":"string"}],"stateMutability":"view"},{"type":"function","name":"totalSupply","inputs":[],"outputs":[{"name":"","type":"uint256","internalType":"uint256"}],"stateMutability":"view"},{"type":"function","name":"totalSupplyCheckpoints","inputs":[{"name":"","type":"uint256","internalType":"uint256"}],"outputs":[{"name":"fromBlock","type":"uint32","internalType":"uint32"},{"name":"votes","type":"uint224","internalType":"uint224"}],"stateMutability":"view"},{"type":"function","name":"transfer","inputs":[{"name":"to","type":"address","internalType":"address"},{"name":"value","type":"uint256","internalType":"uint256"}],"outputs":[{"name":"","type":"bool","internalType":"bool"}],"stateMutability":"nonpayable"},{"type":"function","name":"transferFrom","inputs":[{"name":"from","type":"address","internalType":"address"},{"name":"to","type":"address","internalType":"address"},{"name":"value","type":"uint256","internalType":"uint256"}],"outputs":[{"name":"","type":"bool","internalType":"bool"}],"stateMutability":"nonpayable"},{"type":"event","name":"Approval","inputs":[{"name":"owner","type":"address","indexed":true,"internalType":"address"},{"name":"spender","type":"address","indexed":true,"internalType":"address"},{"name":"value","type":"uint256","indexed":false,"internalType":"uint256"}],"anonymous":false},{"type":"event","name":"DelegateChanged","inputs":[{"name":"delegator","type":"address","indexed":true,"internalType":"address"},{"name":"fromDelegate","type":"address","indexed":true,"internalType":"address"},{"name":"toDelegate","type":"address","indexed":true,"internalType":"address"}],"anonymous":false},{"type":"event","name":"DelegateVotesChanged","inputs":[{"name":"delegate","type":"address","indexed":true,"internalType":"address"},{"name":"previousVotes","type":"uint256","indexed":false,"internalType":"uint256"},{"name":"newVotes","type":"uint256","indexed":false,"internalType":"uint256"}],"anonymous":false},{"type":"event","name":"Transfer","inputs":[{"name":"from","type":"address","indexed":true,"internalType":"address"},{"name":"to","type":"address","indexed":true,"internalType":"address"},{"name":"value","type":"uint256","indexed":false,"internalType":"uint256"}],"anonymous":false},{"type":"error","name":"ERC20InsufficientAllowance","inputs":[{"name":"spender","type":"address","internalType":"address"},{"name":"allowance","type":"uint256","internalType":"uint256"},{"name":"needed","type":"uint256","internalType":"uint256"}]},{"type":"error","name":"ERC20InsufficientBalance","inputs":[{"name":"sender","type":"address","internalType":"address"},{"name":"balance","type":"uint256","internalType":"uint256"},{"name":"needed","type":"uint256","internalType":"uint256"}]},{"type":"error","name":"ERC20InvalidApprover","inputs":[{"name":"approver","type":"address","internalType":"address"}]},{"type":"error","name":"ERC20InvalidReceiver","inputs":[{"name":"receiver","type":"address","internalType":"address"}]},{"type":"error","name":"ERC20InvalidSender","inputs":[{"name":"sender","type":"address","internalType":"address"}]},{"type":"error","name":"ERC20InvalidSpender","inputs":[{"name":"spender","type":"address","internalType":"address"}]},{"type":"error","name":"VotesExpiredSignature","inputs":[{"name":"expiry","type":"uint256","internalType":"uint256"}]}],"bytecode":{"object":"0x608060405234801561000f575f5ffd5b506040518060400160405280600781526020017f4d79546f6b656e000000000000000000000000000000000000000000000000008152506040518060400160405280600381526020017f4d544b0000000000000000000000000000000000000000000000000000000000815250816003908161008b91906102e0565b50806004908161009b91906102e0565b5050506103af565b5f81519050919050565b7f4e487b71000000000000000000000000000000000000000000000000000000005f52604160045260245ffd5b7f4e487b71000000000000000000000000000000000000000000000000000000005f52602260045260245ffd5b5f600282049050600182168061011e57607f821691505b602082108103610131576101306100da565b5b50919050565b5f819050815f5260205f209050919050565b5f6020601f8301049050919050565b5f82821b905092915050565b5f600883026101937fffffffffffffffffffffffffffffffffffffffffffffffffffffffffffffffff82610158565b61019d8683610158565b95508019841693508086168417925050509392505050565b5f819050919050565b5f819050919050565b5f6101e16101dc6101d7846101b5565b6101be565b6101b5565b9050919050565b5f819050919050565b6101fa836101c7565b61020e610206826101e8565b848454610164565b825550505050565b5f5f905090565b610225610216565b6102308184846101f1565b505050565b5b81811015610253576102485f8261021d565b600181019050610236565b5050565b601f8211156102985761026981610137565b61027284610149565b81016020851015610281578190505b61029561028d85610149565b830182610235565b50505b505050565b5f82821c905092915050565b5f6102b85f198460080261029d565b1980831691505092915050565b5f6102d083836102a9565b9150826002028217905092915050565b6102e9826100a3565b67ffffffffffffffff811115610302576103016100ad565b5b61030c8254610107565b610317828285610257565b5f60209050601f831160018114610348575f8415610336578287015190505b61034085826102c5565b8655506103a7565b601f19841661035686610137565b5f5b8281101561037d57848901518255600182019150602085019450602081019050610358565b8683101561039a5784890151610396601f8916826102a9565b8355505b6001600288020188555050505b505050505050565b6131a0806103bc5f395ff3fe608060405234801561000f575f5ffd5b506004361061014b575f3560e01c80635c19a95c116100c15780639ab24eb01161007a5780639ab24eb0146103ea578063a9059cbb1461041a578063b66e4cdf1461044a578063c3cda5201461047b578063dd62ed3e14610497578063e7a324dc146104c75761014b565b80635c19a95c146102f05780636fcfff451461030c57806370a082311461033c5780637ecebe001461036c5780638e539e8c1461039c57806395d89b41146103cc5761014b565b8063313ce56711610113578063313ce5671461021c5780633644e5151461023a5780633a46b1a81461025857806340c10f191461028857806342966c68146102a4578063587cde1e146102c05761014b565b806306fdde031461014f578063095ea7b31461016d5780630cdfebfa1461019d57806318160ddd146101ce57806323b872dd146101ec575b5f5ffd5b6101576104e5565b60405161016491906125f9565b60405180910390f35b610187600480360381019061018291906126aa565b610575565b6040516101949190612702565b60405180910390f35b6101b760048036038101906101b291906126aa565b610597565b6040516101c592919061276f565b60405180910390f35b6101d6610603565b6040516101e391906127a5565b60405180910390f35b610206600480360381019061020191906127be565b61060c565b6040516102139190612702565b60405180910390f35b61022461063a565b6040516102319190612829565b60405180910390f35b610242610642565b60405161024f919061285a565b60405180910390f35b610272600480360381019061026d91906126aa565b6106c5565b60405161027f91906127a5565b60405180910390f35b6102a2600480360381019061029d91906126aa565b610b64565b005b6102be60048036038101906102b99190612873565b610b72565b005b6102da60048036038101906102d5919061289e565b610b7f565b6040516102e791906128d8565b60405180910390f35b61030a6004803603810190610305919061289e565b610be4565b005b6103266004803603810190610321919061289e565b610bf1565b60405161033391906128f1565b60405180910390f35b6103566004803603810190610351919061289e565b610c11565b60405161036391906127a5565b60405180910390f35b6103866004803603810190610381919061289e565b610c56565b60405161039391906127a5565b60405180910390f35b6103b660048036038101906103b19190612873565b610c6b565b6040516103c391906127a5565b60405180910390f35b6103d4610fa7565b6040516103e191906125f9565b60405180910390f35b61040460048036038101906103ff919061289e565b611037565b60405161041191906127a5565b60405180910390f35b610434600480360381019061042f91906126aa565b61113e565b6040516104419190612702565b60405180910390f35b610464600480360381019061045f9190612873565b611160565b60405161047292919061276f565b60405180910390f35b6104956004803603810190610490919061295e565b6111c1565b005b6104b160048036038101906104ac91906129e7565b611481565b6040516104be91906127a5565b60405180910390f35b6104cf611503565b6040516104dc919061285a565b60405180910390f35b6060600380546104f490612a52565b80601f016020809104026020016040519081016040528092919081815260200182805461052090612a52565b801561056b5780601f106105425761010080835404028352916020019161056b565b820191905f5260205f20905b81548152906001019060200180831161054e57829003601f168201915b5050505050905090565b5f5f61057f611527565b905061058c81858561152e565b600191505092915050565b6007602052815f5260405f2081815481106105b0575f80fd5b905f5260205f20015f9150915050805f015f9054906101000a900463ffffffff1690805f0160049054906101000a90047bffffffffffffffffffffffffffffffffffffffffffffffffffffffff16905082565b5f600254905090565b5f5f610616611527565b9050610623858285611540565b61062e8585856115d2565b60019150509392505050565b5f6012905090565b5f7f8b73c3c69bb8fe3d512ecc4cf759cc79239f7b179b0ffacaa9a75d522b39400f61066c6104e5565b805190602001207fc89efdaa54c0f20c7adf612882df0950f5a951637e0307cdcb4c672f298b8bc646306040516020016106aa959493929190612a82565b60405160208183030381529060405280519060200120905090565b5f438210610708576040517f08c379a00000000000000000000000000000000000000000000000000000000081526004016106ff90612b1d565b60405180910390fd5b5f60075f8573ffffffffffffffffffffffffffffffffffffffff1673ffffffffffffffffffffffffffffffffffffffff1681526020019081526020015f208054905090505f810361075c575f915050610b5e565b8260075f8673ffffffffffffffffffffffffffffffffffffffff1673ffffffffffffffffffffffffffffffffffffffff1681526020019081526020015f206001836107a79190612b68565b815481106107b8576107b7612b9b565b5b905f5260205f20015f015f9054906101000a900463ffffffff1663ffffffff16116108915760075f8573ffffffffffffffffffffffffffffffffffffffff1673ffffffffffffffffffffffffffffffffffffffff1681526020019081526020015f206001826108279190612b68565b8154811061083857610837612b9b565b5b905f5260205f20015f0160049054906101000a90047bffffffffffffffffffffffffffffffffffffffffffffffffffffffff167bffffffffffffffffffffffffffffffffffffffffffffffffffffffff16915050610b5e565b8260075f8673ffffffffffffffffffffffffffffffffffffffff1673ffffffffffffffffffffffffffffffffffffffff1681526020019081526020015f205f815481106108e1576108e0612b9b565b5b905f5260205f20015f015f9054906101000a900463ffffffff1663ffffffff161115610910575f915050610b5e565b5f5f90505f6001836109229190612b68565b90505b81811115610ab8575f6002838361093c9190612b68565b6109469190612bf5565b826109519190612b68565b90505f60075f8973ffffffffffffffffffffffffffffffffffffffff1673ffffffffffffffffffffffffffffffffffffffff1681526020019081526020015f2082815481106109a3576109a2612b9b565b5b905f5260205f20016040518060400160405290815f82015f9054906101000a900463ffffffff1663ffffffff1663ffffffff1681526020015f820160049054906101000a90047bffffffffffffffffffffffffffffffffffffffffffffffffffffffff167bffffffffffffffffffffffffffffffffffffffffffffffffffffffff167bffffffffffffffffffffffffffffffffffffffffffffffffffffffff1681525050905086815f015163ffffffff1603610a885780602001517bffffffffffffffffffffffffffffffffffffffffffffffffffffffff1695505050505050610b5e565b86815f015163ffffffff161015610aa157819350610ab1565b600182610aae9190612b68565b92505b5050610925565b60075f8773ffffffffffffffffffffffffffffffffffffffff1673ffffffffffffffffffffffffffffffffffffffff1681526020019081526020015f208281548110610b0757610b06612b9b565b5b905f5260205f20015f0160049054906101000a90047bffffffffffffffffffffffffffffffffffffffffffffffffffffffff167bffffffffffffffffffffffffffffffffffffffffffffffffffffffff1693505050505b92915050565b610b6e82826116c2565b5050565b610b7c3382611741565b50565b5f60065f8373ffffffffffffffffffffffffffffffffffffffff1673ffffffffffffffffffffffffffffffffffffffff1681526020019081526020015f205f9054906101000a900473ffffffffffffffffffffffffffffffffffffffff169050919050565b610bee33826117c0565b50565b6008602052805f5260405f205f915054906101000a900463ffffffff1681565b5f5f5f8373ffffffffffffffffffffffffffffffffffffffff1673ffffffffffffffffffffffffffffffffffffffff1681526020019081526020015f20549050919050565b6005602052805f5260405f205f915090505481565b5f438210610cae576040517f08c379a0000000000000000000000000000000000000000000000000000000008152600401610ca590612c6f565b60405180910390fd5b5f60098054905090505f8103610cc7575f915050610fa2565b826009600183610cd79190612b68565b81548110610ce857610ce7612b9b565b5b905f5260205f20015f015f9054906101000a900463ffffffff1663ffffffff1611610d86576009600182610d1c9190612b68565b81548110610d2d57610d2c612b9b565b5b905f5260205f20015f0160049054906101000a90047bffffffffffffffffffffffffffffffffffffffffffffffffffffffff167bffffffffffffffffffffffffffffffffffffffffffffffffffffffff16915050610fa2565b8260095f81548110610d9b57610d9a612b9b565b5b905f5260205f20015f015f9054906101000a900463ffffffff1663ffffffff161115610dca575f915050610fa2565b5f5f90505f600183610ddc9190612b68565b90505b81811115610f37575f60028383610df69190612b68565b610e009190612bf5565b82610e0b9190612b68565b90505f60098281548110610e2257610e21612b9b565b5b905f5260205f20016040518060400160405290815f82015f9054906101000a900463ffffffff1663ffffffff1663ffffffff1681526020015f820160049054906101000a90047bffffffffffffffffffffffffffffffffffffffffffffffffffffffff167bffffffffffffffffffffffffffffffffffffffffffffffffffffffff167bffffffffffffffffffffffffffffffffffffffffffffffffffffffff1681525050905086815f015163ffffffff1603610f075780602001517bffffffffffffffffffffffffffffffffffffffffffffffffffffffff1695505050505050610fa2565b86815f015163ffffffff161015610f2057819350610f30565b600182610f2d9190612b68565b92505b5050610ddf565b60098281548110610f4b57610f4a612b9b565b5b905f5260205f20015f0160049054906101000a90047bffffffffffffffffffffffffffffffffffffffffffffffffffffffff167bffffffffffffffffffffffffffffffffffffffffffffffffffffffff1693505050505b919050565b606060048054610fb690612a52565b80601f0160208091040260200160405190810160405280929190818152602001828054610fe290612a52565b801561102d5780601f106110045761010080835404028352916020019161102d565b820191905f5260205f20905b81548152906001019060200180831161101057829003601f168201915b5050505050905090565b5f5f60075f8473ffffffffffffffffffffffffffffffffffffffff1673ffffffffffffffffffffffffffffffffffffffff1681526020019081526020015f208054905090505f81146111165760075f8473ffffffffffffffffffffffffffffffffffffffff1673ffffffffffffffffffffffffffffffffffffffff1681526020019081526020015f206001826110cd9190612b68565b815481106110de576110dd612b9b565b5b905f5260205f20015f0160049054906101000a90047bffffffffffffffffffffffffffffffffffffffffffffffffffffffff16611118565b5f5b7bffffffffffffffffffffffffffffffffffffffffffffffffffffffff16915050919050565b5f5f611148611527565b90506111558185856115d2565b600191505092915050565b6009818154811061116f575f80fd5b905f5260205f20015f91509050805f015f9054906101000a900463ffffffff1690805f0160049054906101000a90047bffffffffffffffffffffffffffffffffffffffffffffffffffffffff16905082565b83421115611204576040517f08c379a00000000000000000000000000000000000000000000000000000000081526004016111fb90612cd7565b60405180910390fd5b5f7f8b73c3c69bb8fe3d512ecc4cf759cc79239f7b179b0ffacaa9a75d522b39400f61122e6104e5565b805190602001206040518060400160405280600181526020017f3100000000000000000000000000000000000000000000000000000000000000815250805190602001204630604051602001611288959493929190612a82565b6040516020818303038152906040528051906020012090505f7fe48329057bfd03d55e49b547132e39cffd9c1820ad7b9d4c5307691425d15adf8888886040516020016112d89493929190612cf5565b6040516020818303038152906040528051906020012090505f8282604051602001611304929190612dac565b6040516020818303038152906040528051906020012090505f6001828888886040515f815260200160405260405161133f9493929190612de2565b6020604051602081039080840390855afa15801561135f573d5f5f3e3d5ffd5b5050506020604051035190505f73ffffffffffffffffffffffffffffffffffffffff168173ffffffffffffffffffffffffffffffffffffffff16036113d9576040517f08c379a00000000000000000000000000000000000000000000000000000000081526004016113d090612e6f565b60405180910390fd5b60055f8273ffffffffffffffffffffffffffffffffffffffff1673ffffffffffffffffffffffffffffffffffffffff1681526020019081526020015f205f81548092919061142690612e8d565b91905055891461146b576040517f08c379a000000000000000000000000000000000000000000000000000000000815260040161146290612f1e565b60405180910390fd5b611475818b6117c0565b50505050505050505050565b5f60015f8473ffffffffffffffffffffffffffffffffffffffff1673ffffffffffffffffffffffffffffffffffffffff1681526020019081526020015f205f8373ffffffffffffffffffffffffffffffffffffffff1673ffffffffffffffffffffffffffffffffffffffff1681526020019081526020015f2054905092915050565b7fe48329057bfd03d55e49b547132e39cffd9c1820ad7b9d4c5307691425d15adf81565b5f33905090565b61153b838383600161185f565b505050565b5f61154b8484611481565b90507fffffffffffffffffffffffffffffffffffffffffffffffffffffffffffffffff81146115cc57818110156115bd578281836040517ffb8f41b20000000000000000000000000000000000000000000000000000000081526004016115b493929190612f3c565b60405180910390fd5b6115cb84848484035f61185f565b5b50505050565b5f73ffffffffffffffffffffffffffffffffffffffff168373ffffffffffffffffffffffffffffffffffffffff1603611642575f6040517f96c6fd1e00000000000000000000000000000000000000000000000000000000815260040161163991906128d8565b60405180910390fd5b5f73ffffffffffffffffffffffffffffffffffffffff168273ffffffffffffffffffffffffffffffffffffffff16036116b2575f6040517fec442f050000000000000000000000000000000000000000000000000000000081526004016116a991906128d8565b60405180910390fd5b6116bd838383611a2e565b505050565b5f73ffffffffffffffffffffffffffffffffffffffff168273ffffffffffffffffffffffffffffffffffffffff1603611732575f6040517fec442f0500000000000000000000000000000000000000000000000000000000815260040161172991906128d8565b60405180910390fd5b61173d5f8383611a2e565b5050565b5f73ffffffffffffffffffffffffffffffffffffffff168273ffffffffffffffffffffffffffffffffffffffff16036117b1575f6040517f96c6fd1e0000000000000000000000000000000000000000000000000000000081526004016117a891906128d8565b60405180910390fd5b6117bc825f83611a2e565b5050565b5f6117ca83610b7f565b90508160065f8573ffffffffffffffffffffffffffffffffffffffff1673ffffffffffffffffffffffffffffffffffffffff1681526020019081526020015f205f6101000a81548173ffffffffffffffffffffffffffffffffffffffff021916908373ffffffffffffffffffffffffffffffffffffffff16021790555061185a818361185586610c11565b611ae8565b505050565b5f73ffffffffffffffffffffffffffffffffffffffff168473ffffffffffffffffffffffffffffffffffffffff16036118cf575f6040517fe602df050000000000000000000000000000000000000000000000000000000081526004016118c691906128d8565b60405180910390fd5b5f73ffffffffffffffffffffffffffffffffffffffff168373ffffffffffffffffffffffffffffffffffffffff160361193f575f6040517f94280d6200000000000000000000000000000000000000000000000000000000815260040161193691906128d8565b60405180910390fd5b8160015f8673ffffffffffffffffffffffffffffffffffffffff1673ffffffffffffffffffffffffffffffffffffffff1681526020019081526020015f205f8573ffffffffffffffffffffffffffffffffffffffff1673ffffffffffffffffffffffffffffffffffffffff1681526020019081526020015f20819055508015611a28578273ffffffffffffffffffffffffffffffffffffffff168473ffffffffffffffffffffffffffffffffffffffff167f8c5be1e5ebec7d5bd14f71427d1e84f3dd0314c0f7b2291e5b200ac8c7c3b92584604051611a1f91906127a5565b60405180910390a35b50505050565b611a39838383611c79565b5f611a4384610b7f565b90505f611a4f84610b7f565b9050611a5c828285611ae8565b5f73ffffffffffffffffffffffffffffffffffffffff168573ffffffffffffffffffffffffffffffffffffffff1603611aa057611a9b611e9284611eef565b611ae1565b5f73ffffffffffffffffffffffffffffffffffffffff168473ffffffffffffffffffffffffffffffffffffffff1603611ae057611adf61214484611eef565b5b5b5050505050565b8173ffffffffffffffffffffffffffffffffffffffff168373ffffffffffffffffffffffffffffffffffffffff1614158015611b2357505f81115b15611c74575f73ffffffffffffffffffffffffffffffffffffffff168373ffffffffffffffffffffffffffffffffffffffff1614611bb9575f611b6584611037565b905081811015611baa576040517f08c379a0000000000000000000000000000000000000000000000000000000008152600401611ba190612fe1565b60405180910390fd5b611bb78461214484612159565b505b5f73ffffffffffffffffffffffffffffffffffffffff168273ffffffffffffffffffffffffffffffffffffffff1614611c73575f81611bf784611037565b611c019190612fff565b90507bffffffffffffffffffffffffffffffffffffffffffffffffffffffff8016811115611c64576040517f08c379a0000000000000000000000000000000000000000000000000000000008152600401611c5b9061307c565b60405180910390fd5b611c7183611e9284612159565b505b5b505050565b5f73ffffffffffffffffffffffffffffffffffffffff168373ffffffffffffffffffffffffffffffffffffffff1603611cc9578060025f828254611cbd9190612fff565b92505081905550611d97565b5f5f5f8573ffffffffffffffffffffffffffffffffffffffff1673ffffffffffffffffffffffffffffffffffffffff1681526020019081526020015f2054905081811015611d52578381836040517fe450d38c000000000000000000000000000000000000000000000000000000008152600401611d4993929190612f3c565b60405180910390fd5b8181035f5f8673ffffffffffffffffffffffffffffffffffffffff1673ffffffffffffffffffffffffffffffffffffffff1681526020019081526020015f2081905550505b5f73ffffffffffffffffffffffffffffffffffffffff168273ffffffffffffffffffffffffffffffffffffffff1603611dde578060025f8282540392505081905550611e28565b805f5f8473ffffffffffffffffffffffffffffffffffffffff1673ffffffffffffffffffffffffffffffffffffffff1681526020019081526020015f205f82825401925050819055505b8173ffffffffffffffffffffffffffffffffffffffff168373ffffffffffffffffffffffffffffffffffffffff167fddf252ad1be2c89b69c2b068fc378daa952ba7f163c4a11628f55a4df523b3ef83604051611e8591906127a5565b60405180910390a3505050565b5f5f8284611ea09190612fff565b905083811015611ee5576040517f08c379a0000000000000000000000000000000000000000000000000000000008152600401611edc906130e4565b60405180910390fd5b8091505092915050565b5f60098054905090505f5f8214611f58576009600183611f0f9190612b68565b81548110611f2057611f1f612b9b565b5b905f5260205f20015f0160049054906101000a90047bffffffffffffffffffffffffffffffffffffffffffffffffffffffff16611f5a565b5f5b7bffffffffffffffffffffffffffffffffffffffffffffffffffffffff1690505f611f8982858763ffffffff16565b90505f83118015611fd85750436009600185611fa59190612b68565b81548110611fb657611fb5612b9b565b5b905f5260205f20015f015f9054906101000a900463ffffffff1663ffffffff16145b1561205b57806009600185611fed9190612b68565b81548110611ffe57611ffd612b9b565b5b905f5260205f20015f0160046101000a8154817bffffffffffffffffffffffffffffffffffffffffffffffffffffffff02191690837bffffffffffffffffffffffffffffffffffffffffffffffffffffffff16021790555061213d565b6009604051806040016040528061207143612537565b63ffffffff168152602001837bffffffffffffffffffffffffffffffffffffffffffffffffffffffff16815250908060018154018082558091505060019003905f5260205f20015f909190919091505f820151815f015f6101000a81548163ffffffff021916908363ffffffff1602179055506020820151815f0160046101000a8154817bffffffffffffffffffffffffffffffffffffffffffffffffffffffff02191690837bffffffffffffffffffffffffffffffffffffffffffffffffffffffff16021790555050505b5050505050565b5f81836121519190612b68565b905092915050565b5f60075f8573ffffffffffffffffffffffffffffffffffffffff1673ffffffffffffffffffffffffffffffffffffffff1681526020019081526020015f208054905090505f5f82146122385760075f8673ffffffffffffffffffffffffffffffffffffffff1673ffffffffffffffffffffffffffffffffffffffff1681526020019081526020015f206001836121ef9190612b68565b81548110612200576121ff612b9b565b5b905f5260205f20015f0160049054906101000a90047bffffffffffffffffffffffffffffffffffffffffffffffffffffffff1661223a565b5f5b7bffffffffffffffffffffffffffffffffffffffffffffffffffffffff1690505f61226982858763ffffffff16565b90507bffffffffffffffffffffffffffffffffffffffffffffffffffffffff80168111156122cc576040517f08c379a00000000000000000000000000000000000000000000000000000000081526004016122c39061307c565b60405180910390fd5b5f8311801561235457504360075f8873ffffffffffffffffffffffffffffffffffffffff1673ffffffffffffffffffffffffffffffffffffffff1681526020019081526020015f206001856123219190612b68565b8154811061233257612331612b9b565b5b905f5260205f20015f015f9054906101000a900463ffffffff1663ffffffff16145b15612412578060075f8873ffffffffffffffffffffffffffffffffffffffff1673ffffffffffffffffffffffffffffffffffffffff1681526020019081526020015f206001856123a49190612b68565b815481106123b5576123b4612b9b565b5b905f5260205f20015f0160046101000a8154817bffffffffffffffffffffffffffffffffffffffffffffffffffffffff02191690837bffffffffffffffffffffffffffffffffffffffffffffffffffffffff16021790555061252f565b60075f8773ffffffffffffffffffffffffffffffffffffffff1673ffffffffffffffffffffffffffffffffffffffff1681526020019081526020015f20604051806040016040528061246343612537565b63ffffffff168152602001837bffffffffffffffffffffffffffffffffffffffffffffffffffffffff16815250908060018154018082558091505060019003905f5260205f20015f909190919091505f820151815f015f6101000a81548163ffffffff021916908363ffffffff1602179055506020820151815f0160046101000a8154817bffffffffffffffffffffffffffffffffffffffffffffffffffffffff02191690837bffffffffffffffffffffffffffffffffffffffffffffffffffffffff16021790555050505b505050505050565b5f63ffffffff8016821115612581576040517f08c379a00000000000000000000000000000000000000000000000000000000081526004016125789061314c565b60405180910390fd5b819050919050565b5f81519050919050565b5f82825260208201905092915050565b8281835e5f83830152505050565b5f601f19601f8301169050919050565b5f6125cb82612589565b6125d58185612593565b93506125e58185602086016125a3565b6125ee816125b1565b840191505092915050565b5f6020820190508181035f83015261261181846125c1565b905092915050565b5f5ffd5b5f73ffffffffffffffffffffffffffffffffffffffff82169050919050565b5f6126468261261d565b9050919050565b6126568161263c565b8114612660575f5ffd5b50565b5f813590506126718161264d565b92915050565b5f819050919050565b61268981612677565b8114612693575f5ffd5b50565b5f813590506126a481612680565b92915050565b5f5f604083850312156126c0576126bf612619565b5b5f6126cd85828601612663565b92505060206126de85828601612696565b9150509250929050565b5f8115159050919050565b6126fc816126e8565b82525050565b5f6020820190506127155f8301846126f3565b92915050565b5f63ffffffff82169050919050565b6127338161271b565b82525050565b5f7bffffffffffffffffffffffffffffffffffffffffffffffffffffffff82169050919050565b61276981612739565b82525050565b5f6040820190506127825f83018561272a565b61278f6020830184612760565b9392505050565b61279f81612677565b82525050565b5f6020820190506127b85f830184612796565b92915050565b5f5f5f606084860312156127d5576127d4612619565b5b5f6127e286828701612663565b93505060206127f386828701612663565b925050604061280486828701612696565b9150509250925092565b5f60ff82169050919050565b6128238161280e565b82525050565b5f60208201905061283c5f83018461281a565b92915050565b5f819050919050565b61285481612842565b82525050565b5f60208201905061286d5f83018461284b565b92915050565b5f6020828403121561288857612887612619565b5b5f61289584828501612696565b91505092915050565b5f602082840312156128b3576128b2612619565b5b5f6128c084828501612663565b91505092915050565b6128d28161263c565b82525050565b5f6020820190506128eb5f8301846128c9565b92915050565b5f6020820190506129045f83018461272a565b92915050565b6129138161280e565b811461291d575f5ffd5b50565b5f8135905061292e8161290a565b92915050565b61293d81612842565b8114612947575f5ffd5b50565b5f8135905061295881612934565b92915050565b5f5f5f5f5f5f60c0878903121561297857612977612619565b5b5f61298589828a01612663565b965050602061299689828a01612696565b95505060406129a789828a01612696565b94505060606129b889828a01612920565b93505060806129c989828a0161294a565b92505060a06129da89828a0161294a565b9150509295509295509295565b5f5f604083850312156129fd576129fc612619565b5b5f612a0a85828601612663565b9250506020612a1b85828601612663565b9150509250929050565b7f4e487b71000000000000000000000000000000000000000000000000000000005f52602260045260245ffd5b5f6002820490506001821680612a6957607f821691505b602082108103612a7c57612a7b612a25565b5b50919050565b5f60a082019050612a955f83018861284b565b612aa2602083018761284b565b612aaf604083018661284b565b612abc6060830185612796565b612ac960808301846128c9565b9695505050505050565b7f426c6f636b206e6f7420796574206d696e6564000000000000000000000000005f82015250565b5f612b07601383612593565b9150612b1282612ad3565b602082019050919050565b5f6020820190508181035f830152612b3481612afb565b9050919050565b7f4e487b71000000000000000000000000000000000000000000000000000000005f52601160045260245ffd5b5f612b7282612677565b9150612b7d83612677565b9250828203905081811115612b9557612b94612b3b565b5b92915050565b7f4e487b71000000000000000000000000000000000000000000000000000000005f52603260045260245ffd5b7f4e487b71000000000000000000000000000000000000000000000000000000005f52601260045260245ffd5b5f612bff82612677565b9150612c0a83612677565b925082612c1a57612c19612bc8565b5b828204905092915050565b7f4f6e6c79207061737420626c6f636b73000000000000000000000000000000005f82015250565b5f612c59601083612593565b9150612c6482612c25565b602082019050919050565b5f6020820190508181035f830152612c8681612c4d565b9050919050565b7f5369676e617475726520657870697265640000000000000000000000000000005f82015250565b5f612cc1601183612593565b9150612ccc82612c8d565b602082019050919050565b5f6020820190508181035f830152612cee81612cb5565b9050919050565b5f608082019050612d085f83018761284b565b612d1560208301866128c9565b612d226040830185612796565b612d2f6060830184612796565b95945050505050565b5f81905092915050565b7f19010000000000000000000000000000000000000000000000000000000000005f82015250565b5f612d76600283612d38565b9150612d8182612d42565b600282019050919050565b5f819050919050565b612da6612da182612842565b612d8c565b82525050565b5f612db682612d6a565b9150612dc28285612d95565b602082019150612dd28284612d95565b6020820191508190509392505050565b5f608082019050612df55f83018761284b565b612e02602083018661281a565b612e0f604083018561284b565b612e1c606083018461284b565b95945050505050565b7f496e76616c6964207369676e61747572650000000000000000000000000000005f82015250565b5f612e59601183612593565b9150612e6482612e25565b602082019050919050565b5f6020820190508181035f830152612e8681612e4d565b9050919050565b5f612e9782612677565b91507fffffffffffffffffffffffffffffffffffffffffffffffffffffffffffffffff8203612ec957612ec8612b3b565b5b600182019050919050565b7f496e76616c6964206e6f6e6365000000000000000000000000000000000000005f82015250565b5f612f08600d83612593565b9150612f1382612ed4565b602082019050919050565b5f6020820190508181035f830152612f3581612efc565b9050919050565b5f606082019050612f4f5f8301866128c9565b612f5c6020830185612796565b612f696040830184612796565b949350505050565b7f696e73756666696369656e7420766f74657320666f72207375627472616374695f8201527f6f6e000000000000000000000000000000000000000000000000000000000000602082015250565b5f612fcb602283612593565b9150612fd682612f71565b604082019050919050565b5f6020820190508181035f830152612ff881612fbf565b9050919050565b5f61300982612677565b915061301483612677565b925082820190508082111561302c5761302b612b3b565b5b92915050565b7f766f746573206f766572666c6f770000000000000000000000000000000000005f82015250565b5f613066600e83612593565b915061307182613032565b602082019050919050565b5f6020820190508181035f8301526130938161305a565b9050919050565b7f6164646974696f6e206f766572666c6f770000000000000000000000000000005f82015250565b5f6130ce601183612593565b91506130d98261309a565b602082019050919050565b5f6020820190508181035f8301526130fb816130c2565b9050919050565b7f626c6f636b206e756d626572203e2033322062697473000000000000000000005f82015250565b5f613136601683612593565b915061314182613102565b602082019050919050565b5f6020820190508181035f8301526131638161312a565b905091905056fea2646970667358221220dbae9a5251ae1d90288849afeee712a9d759b5d4576332dea6f60eb6051eedff64736f6c634300081e0033","linkReferences":{}},"methodIdentifiers":{"DELEGATION_TYPEHASH()":"e7a324dc","DOMAIN_SEPARATOR()":"3644e515","allowance(address,address)":"dd62ed3e","approve(address,uint256)":"095ea7b3","balanceOf(address)":"70a08231","burn(uint256)":"42966c68","checkpoints(address,uint256)":"0cdfebfa","decimals()":"313ce567","delegate(address)":"5c19a95c","delegateBySig(address,uint256,uint256,uint8,bytes32,bytes32)":"c3cda520","delegates(address)":"587cde1e","getPastTotalSupply(uint256)":"8e539e8c","getPastVotes(address,uint256)":"3a46b1a8","getVotes(address)":"9ab24eb0","mint(address,uint256)":"40c10f19","name()":"06fdde03","nonces(address)":"7ecebe00","numCheckpoints(address)":"6fcfff45","symbol()":"95d89b41","totalSupply()":"18160ddd","totalSupplyCheckpoints(uint256)":"b66e4cdf","transfer(address,uint256)":"a9059cbb","transferFrom(address,address,uint256)":"23b872dd"},"id":65}