{"abi":[{"type":"constructor","inputs":[],"stateMutability":"nonpayable"},{"type":"function","name":"awardAchievement","inputs":[{"name":"to","type":"address","internalType":"address"},{"name":"id","type":"uint256","internalType":"uint256"},{"name":"amount","type":"uint256","internalType":"uint256"}],"outputs":[],"stateMutability":"nonpayable"},{"type":"function","name":"balanceOf","inputs":[{"name":"account","type":"address","internalType":"address"},{"name":"id","type":"uint256","internalType":"uint256"}],"outputs":[{"name":"","type":"uint256","internalType":"uint256"}],"stateMutability":"view"},{"type":"function","name":"balanceOfBatch","inputs":[{"name":"accounts","type":"address[]","internalType":"address[]"},{"name":"ids","type":"uint256[]","internalType":"uint256[]"}],"outputs":[{"name":"","type":"uint256[]","internalType":"uint256[]"}],"stateMutability":"view"},{"type":"function","name":"isApprovedForAll","inputs":[{"name":"account","type":"address","internalType":"address"},{"name":"operator","type":"address","internalType":"address"}],"outputs":[{"name":"","type":"bool","internalType":"bool"}],"stateMutability":"view"},{"type":"function","name":"safeBatchTransferFrom","inputs":[{"name":"from","type":"address","internalType":"address"},{"name":"to","type":"address","internalType":"address"},{"name":"ids","type":"uint256[]","internalType":"uint256[]"},{"name":"values","type":"uint256[]","internalType":"uint256[]"},{"name":"data","type":"bytes","internalType":"bytes"}],"outputs":[],"stateMutability":"nonpayable"},{"type":"function","name":"safeTransferFrom","inputs":[{"name":"from","type":"address","internalType":"address"},{"name":"to","type":"address","internalType":"address"},{"name":"id","type":"uint256","internalType":"uint256"},{"name":"value","type":"uint256","internalType":"uint256"},{"name":"data","type":"bytes","internalType":"bytes"}],"outputs":[],"stateMutability":"nonpayable"},{"type":"function","name":"setApprovalForAll","inputs":[{"name":"operator","type":"address","internalType":"address"},{"name":"approved","type":"bool","internalType":"bool"}],"outputs":[],"stateMutability":"nonpayable"},{"type":"function","name":"setBaseURI","inputs":[{"name":"newBaseURI","type":"string","internalType":"string"}],"outputs":[],"stateMutability":"nonpayable"},{"type":"function","name":"supportsInterface","inputs":[{"name":"interfaceId","type":"bytes4","internalType":"bytes4"}],"outputs":[{"name":"","type":"bool","internalType":"bool"}],"stateMutability":"view"},{"type":"function","name":"uri","inputs":[{"name":"tokenId","type":"uint256","internalType":"uint256"}],"outputs":[{"name":"","type":"string","internalType":"string"}],"stateMutability":"view"},{"type":"event","name":"ApprovalForAll","inputs":[{"name":"account","type":"address","indexed":true,"internalType":"address"},{"name":"operator","type":"address","indexed":true,"internalType":"address"},{"name":"approved","type":"bool","indexed":false,"internalType":"bool"}],"anonymous":false},{"type":"event","name":"TransferBatch","inputs":[{"name":"operator","type":"address","indexed":true,"internalType":"address"},{"name":"from","type":"address","indexed":true,"internalType":"address"},{"name":"to","type":"address","indexed":true,"internalType":"address"},{"name":"ids","type":"uint256[]","indexed":false,"internalType":"uint256[]"},{"name":"values","type":"uint256[]","indexed":false,"internalType":"uint256[]"}],"anonymous":false},{"type":"event","name":"TransferSingle","inputs":[{"name":"operator","type":"address","indexed":true,"internalType":"address"},{"name":"from","type":"address","indexed":true,"internalType":"address"},{"name":"to","type":"address","indexed":true,"internalType":"address"},{"name":"id","type":"uint256","indexed":false,"internalType":"uint256"},{"name":"value","type":"uint256","indexed":false,"internalType":"uint256"}],"anonymous":false},{"type":"event","name":"URI","inputs":[{"name":"value","type":"string","indexed":false,"internalType":"string"},{"name":"id","type":"uint256","indexed":true,"internalType":"uint256"}],"anonymous":false},{"type":"error","name":"ERC1155InsufficientBalance","inputs":[{"name":"sender","type":"address","internalType":"address"},{"name":"balance","type":"uint256","internalType":"uint256"},{"name":"needed","type":"uint256","internalType":"uint256"},{"name":"tokenId","type":"uint256","internalType":"uint256"}]},{"type":"error","name":"ERC1155InvalidApprover","inputs":[{"name":"approver","type":"address","internalType":"address"}]},{"type":"error","name":"ERC1155InvalidArrayLength","inputs":[{"name":"idsLength","type":"uint256","internalType":"uint256"},{"name":"valuesLength","type":"uint256","internalType":"uint256"}]},{"type":"error","name":"ERC1155InvalidOperator","inputs":[{"name":"operator","type":"address","internalType":"address"}]},{"type":"error","name":"ERC1155InvalidReceiver","inputs":[{"name":"receiver","type":"address","internalType":"address"}]},{"type":"error","name":"ERC1155InvalidSender","inputs":[{"name":"sender","type":"address","internalType":"address"}]},{"type":"error","name":"ERC1155MissingApprovalForAll","inputs":[{"name":"operator","type":"address","internalType":"address"},{"name":"owner","type":"address","internalType":"address"}]}],"bytecode":{"object":"0x608060405234801561000f575f5ffd5b5060405180602001604052805f81525061002e8161005c60201b60201c565b50604051806060016040528060258152602001612984602591396003908161005691906102ac565b5061037b565b806002908161006b91906102ac565b5050565b5f81519050919050565b7f4e487b71000000000000000000000000000000000000000000000000000000005f52604160045260245ffd5b7f4e487b71000000000000000000000000000000000000000000000000000000005f52602260045260245ffd5b5f60028204905060018216806100ea57607f821691505b6020821081036100fd576100fc6100a6565b5b50919050565b5f819050815f5260205f209050919050565b5f6020601f8301049050919050565b5f82821b905092915050565b5f6008830261015f7fffffffffffffffffffffffffffffffffffffffffffffffffffffffffffffffff82610124565b6101698683610124565b95508019841693508086168417925050509392505050565b5f819050919050565b5f819050919050565b5f6101ad6101a86101a384610181565b61018a565b610181565b9050919050565b5f819050919050565b6101c683610193565b6101da6101d2826101b4565b848454610130565b825550505050565b5f5f905090565b6101f16101e2565b6101fc8184846101bd565b505050565b5b8181101561021f576102145f826101e9565b600181019050610202565b5050565b601f8211156102645761023581610103565b61023e84610115565b8101602085101561024d578190505b61026161025985610115565b830182610201565b50505b505050565b5f82821c905092915050565b5f6102845f1984600802610269565b1980831691505092915050565b5f61029c8383610275565b9150826002028217905092915050565b6102b58261006f565b67ffffffffffffffff8111156102ce576102cd610079565b5b6102d882546100d3565b6102e3828285610223565b5f60209050601f831160018114610314575f8415610302578287015190505b61030c8582610291565b865550610373565b601f19841661032286610103565b5f5b8281101561034957848901518255600182019150602085019450602081019050610324565b868310156103665784890151610362601f891682610275565b8355505b6001600288020188555050505b505050505050565b6125fc806103885f395ff3fe608060405234801561000f575f5ffd5b506004361061009b575f3560e01c806355f804b31161006457806355f804b31461017b57806362e3a64314610197578063a22cb465146101b3578063e985e9c5146101cf578063f242432a146101ff5761009b565b8062fdd58e1461009f57806301ffc9a7146100cf5780630e89341c146100ff5780632eb2c2d61461012f5780634e1273f41461014b575b5f5ffd5b6100b960048036038101906100b491906115c7565b61021b565b6040516100c69190611614565b60405180910390f35b6100e960048036038101906100e49190611682565b610270565b6040516100f691906116c7565b60405180910390f35b610119600480360381019061011491906116e0565b610351565b604051610126919061177b565b60405180910390f35b6101496004803603810190610144919061198b565b610385565b005b61016560048036038101906101609190611b16565b61042c565b6040516101729190611c43565b60405180910390f35b61019560048036038101906101909190611d01565b610536565b005b6101b160048036038101906101ac9190611d48565b610549565b005b6101cd60048036038101906101c89190611dc2565b610568565b005b6101e960048036038101906101e49190611e00565b61057e565b6040516101f691906116c7565b60405180910390f35b61021960048036038101906102149190611e3e565b61060c565b005b5f5f5f8381526020019081526020015f205f8473ffffffffffffffffffffffffffffffffffffffff1673ffffffffffffffffffffffffffffffffffffffff1681526020019081526020015f2054905092915050565b5f7fd9b67a26000000000000000000000000000000000000000000000000000000007bffffffffffffffffffffffffffffffffffffffffffffffffffffffff1916827bffffffffffffffffffffffffffffffffffffffffffffffffffffffff1916148061033a57507f0e89341c000000000000000000000000000000000000000000000000000000007bffffffffffffffffffffffffffffffffffffffffffffffffffffffff1916827bffffffffffffffffffffffffffffffffffffffffffffffffffffffff1916145b8061034a5750610349826106b3565b5b9050919050565b6060600361035e8361071c565b60405160200161036f929190612044565b6040516020818303038152906040529050919050565b5f61038e6107e6565b90508073ffffffffffffffffffffffffffffffffffffffff168673ffffffffffffffffffffffffffffffffffffffff16141580156103d357506103d1868261057e565b155b156104175780866040517fe237d92200000000000000000000000000000000000000000000000000000000815260040161040e929190612081565b60405180910390fd5b61042486868686866107ed565b505050505050565b6060815183511461047857815183516040517f5b05999100000000000000000000000000000000000000000000000000000000815260040161046f9291906120a8565b60405180910390fd5b5f835167ffffffffffffffff8111156104945761049361179f565b5b6040519080825280602002602001820160405280156104c25781602001602082028036833780820191505090505b5090505f5f90505b845181101561052b576105016104e982876108e190919063ffffffff16565b6104fc83876108f490919063ffffffff16565b61021b565b828281518110610514576105136120cf565b5b6020026020010181815250508060010190506104ca565b508091505092915050565b8060039081610545919061228a565b5050565b61056383838360405180602001604052805f815250610907565b505050565b61057a6105736107e6565b838361099c565b5050565b5f60015f8473ffffffffffffffffffffffffffffffffffffffff1673ffffffffffffffffffffffffffffffffffffffff1681526020019081526020015f205f8373ffffffffffffffffffffffffffffffffffffffff1673ffffffffffffffffffffffffffffffffffffffff1681526020019081526020015f205f9054906101000a900460ff16905092915050565b5f6106156107e6565b90508073ffffffffffffffffffffffffffffffffffffffff168673ffffffffffffffffffffffffffffffffffffffff161415801561065a5750610658868261057e565b155b1561069e5780866040517fe237d922000000000000000000000000000000000000000000000000000000008152600401610695929190612081565b60405180910390fd5b6106ab8686868686610b05565b505050505050565b5f7f01ffc9a7000000000000000000000000000000000000000000000000000000007bffffffffffffffffffffffffffffffffffffffffffffffffffffffff1916827bffffffffffffffffffffffffffffffffffffffffffffffffffffffff1916149050919050565b60605f600161072a84610c0b565b0190505f8167ffffffffffffffff8111156107485761074761179f565b5b6040519080825280601f01601f19166020018201604052801561077a5781602001600182028036833780820191505090505b5090505f82602083010190505b6001156107db578080600190039150507f3031323334353637383961626364656600000000000000000000000000000000600a86061a8153600a85816107d0576107cf612359565b5b0494505f8503610787575b819350505050919050565b5f33905090565b5f73ffffffffffffffffffffffffffffffffffffffff168473ffffffffffffffffffffffffffffffffffffffff160361085d575f6040517f57f447ce0000000000000000000000000000000000000000000000000000000081526004016108549190612386565b60405180910390fd5b5f73ffffffffffffffffffffffffffffffffffffffff168573ffffffffffffffffffffffffffffffffffffffff16036108cd575f6040517f01a835140000000000000000000000000000000000000000000000000000000081526004016108c49190612386565b60405180910390fd5b6108da8585858585610d5c565b5050505050565b5f60208202602084010151905092915050565b5f60208202602084010151905092915050565b5f73ffffffffffffffffffffffffffffffffffffffff168473ffffffffffffffffffffffffffffffffffffffff1603610977575f6040517f57f447ce00000000000000000000000000000000000000000000000000000000815260040161096e9190612386565b60405180910390fd5b5f5f6109838585610e08565b915091506109945f87848487610d5c565b505050505050565b5f73ffffffffffffffffffffffffffffffffffffffff168273ffffffffffffffffffffffffffffffffffffffff1603610a0c575f6040517fced3e100000000000000000000000000000000000000000000000000000000008152600401610a039190612386565b60405180910390fd5b8060015f8573ffffffffffffffffffffffffffffffffffffffff1673ffffffffffffffffffffffffffffffffffffffff1681526020019081526020015f205f8473ffffffffffffffffffffffffffffffffffffffff1673ffffffffffffffffffffffffffffffffffffffff1681526020019081526020015f205f6101000a81548160ff0219169083151502179055508173ffffffffffffffffffffffffffffffffffffffff168373ffffffffffffffffffffffffffffffffffffffff167f17307eab39ab6107e8899845ad3d59bd9653f200f220920489ca2b5937696c3183604051610af891906116c7565b60405180910390a3505050565b5f73ffffffffffffffffffffffffffffffffffffffff168473ffffffffffffffffffffffffffffffffffffffff1603610b75575f6040517f57f447ce000000000000000000000000000000000000000000000000000000008152600401610b6c9190612386565b60405180910390fd5b5f73ffffffffffffffffffffffffffffffffffffffff168573ffffffffffffffffffffffffffffffffffffffff1603610be5575f6040517f01a83514000000000000000000000000000000000000000000000000000000008152600401610bdc9190612386565b60405180910390fd5b5f5f610bf18585610e08565b91509150610c028787848487610d5c565b50505050505050565b5f5f5f90507a184f03e93ff9f4daa797ed6e38ed64bf6a1f0100000000000000008310610c67577a184f03e93ff9f4daa797ed6e38ed64bf6a1f0100000000000000008381610c5d57610c5c612359565b5b0492506040810190505b6d04ee2d6d415b85acef81000000008310610ca4576d04ee2d6d415b85acef81000000008381610c9a57610c99612359565b5b0492506020810190505b662386f26fc100008310610cd357662386f26fc100008381610cc957610cc8612359565b5b0492506010810190505b6305f5e1008310610cfc576305f5e1008381610cf257610cf1612359565b5b0492506008810190505b6127108310610d21576127108381610d1757610d16612359565b5b0492506004810190505b60648310610d445760648381610d3a57610d39612359565b5b0492506002810190505b600a8310610d53576001810190505b80915050919050565b610d6885858585610e38565b5f73ffffffffffffffffffffffffffffffffffffffff168473ffffffffffffffffffffffffffffffffffffffff1614610e01575f610da46107e6565b90506001845103610df0575f610dc35f866108f490919063ffffffff16565b90505f610dd95f866108f490919063ffffffff16565b9050610de98389898585896111cb565b5050610dff565b610dfe81878787878761137a565b5b505b5050505050565b60608060405191506001825283602083015260408201905060018152826020820152604081016040529250929050565b8051825114610e8257815181516040517f5b059991000000000000000000000000000000000000000000000000000000008152600401610e799291906120a8565b60405180910390fd5b5f610e8b6107e6565b90505f5f90505b835181101561108a575f610eaf82866108f490919063ffffffff16565b90505f610ec583866108f490919063ffffffff16565b90505f73ffffffffffffffffffffffffffffffffffffffff168873ffffffffffffffffffffffffffffffffffffffff1614610fe8575f5f5f8481526020019081526020015f205f8a73ffffffffffffffffffffffffffffffffffffffff1673ffffffffffffffffffffffffffffffffffffffff1681526020019081526020015f2054905081811015610f9457888183856040517f03dee4c5000000000000000000000000000000000000000000000000000000008152600401610f8b949392919061239f565b60405180910390fd5b8181035f5f8581526020019081526020015f205f8b73ffffffffffffffffffffffffffffffffffffffff1673ffffffffffffffffffffffffffffffffffffffff1681526020019081526020015f2081905550505b5f73ffffffffffffffffffffffffffffffffffffffff168773ffffffffffffffffffffffffffffffffffffffff161461107d57805f5f8481526020019081526020015f205f8973ffffffffffffffffffffffffffffffffffffffff1673ffffffffffffffffffffffffffffffffffffffff1681526020019081526020015f205f828254611075919061240f565b925050819055505b5050806001019050610e92565b506001835103611145575f6110a85f856108f490919063ffffffff16565b90505f6110be5f856108f490919063ffffffff16565b90508573ffffffffffffffffffffffffffffffffffffffff168773ffffffffffffffffffffffffffffffffffffffff168473ffffffffffffffffffffffffffffffffffffffff167fc3d58168c5ae7397731d063d5bbf3d657854427343f4c083240f7aacaa2d0f6285856040516111369291906120a8565b60405180910390a450506111c4565b8373ffffffffffffffffffffffffffffffffffffffff168573ffffffffffffffffffffffffffffffffffffffff168273ffffffffffffffffffffffffffffffffffffffff167f4a39dc06d4c0dbc64b70af90fd698a233a518aa5d07e595d983b8c0526c8f7fb86866040516111bb929190612442565b60405180910390a45b5050505050565b5f8473ffffffffffffffffffffffffffffffffffffffff163b1115611372578373ffffffffffffffffffffffffffffffffffffffff1663f23a6e6187878686866040518663ffffffff1660e01b815260040161122b9594939291906124c9565b6020604051808303815f875af192505050801561126657506040513d601f19601f820116820180604052508101906112639190612535565b60015b6112e7573d805f8114611294576040519150601f19603f3d011682016040523d82523d5f602084013e611299565b606091505b505f8151036112df57846040517f57f447ce0000000000000000000000000000000000000000000000000000000081526004016112d69190612386565b60405180910390fd5b805160208201fd5b63f23a6e6160e01b7bffffffffffffffffffffffffffffffffffffffffffffffffffffffff1916817bffffffffffffffffffffffffffffffffffffffffffffffffffffffff19161461137057846040517f57f447ce0000000000000000000000000000000000000000000000000000000081526004016113679190612386565b60405180910390fd5b505b505050505050565b5f8473ffffffffffffffffffffffffffffffffffffffff163b1115611521578373ffffffffffffffffffffffffffffffffffffffff1663bc197c8187878686866040518663ffffffff1660e01b81526004016113da959493929190612560565b6020604051808303815f875af192505050801561141557506040513d601f19601f820116820180604052508101906114129190612535565b60015b611496573d805f8114611443576040519150601f19603f3d011682016040523d82523d5f602084013e611448565b606091505b505f81510361148e57846040517f57f447ce0000000000000000000000000000000000000000000000000000000081526004016114859190612386565b60405180910390fd5b805160208201fd5b63bc197c8160e01b7bffffffffffffffffffffffffffffffffffffffffffffffffffffffff1916817bffffffffffffffffffffffffffffffffffffffffffffffffffffffff19161461151f57846040517f57f447ce0000000000000000000000000000000000000000000000000000000081526004016115169190612386565b60405180910390fd5b505b505050505050565b5f604051905090565b5f5ffd5b5f5ffd5b5f73ffffffffffffffffffffffffffffffffffffffff82169050919050565b5f6115638261153a565b9050919050565b61157381611559565b811461157d575f5ffd5b50565b5f8135905061158e8161156a565b92915050565b5f819050919050565b6115a681611594565b81146115b0575f5ffd5b50565b5f813590506115c18161159d565b92915050565b5f5f604083850312156115dd576115dc611532565b5b5f6115ea85828601611580565b92505060206115fb858286016115b3565b9150509250929050565b61160e81611594565b82525050565b5f6020820190506116275f830184611605565b92915050565b5f7fffffffff0000000000000000000000000000000000000000000000000000000082169050919050565b6116618161162d565b811461166b575f5ffd5b50565b5f8135905061167c81611658565b92915050565b5f6020828403121561169757611696611532565b5b5f6116a48482850161166e565b91505092915050565b5f8115159050919050565b6116c1816116ad565b82525050565b5f6020820190506116da5f8301846116b8565b92915050565b5f602082840312156116f5576116f4611532565b5b5f611702848285016115b3565b91505092915050565b5f81519050919050565b5f82825260208201905092915050565b8281835e5f83830152505050565b5f601f19601f8301169050919050565b5f61174d8261170b565b6117578185611715565b9350611767818560208601611725565b61177081611733565b840191505092915050565b5f6020820190508181035f8301526117938184611743565b905092915050565b5f5ffd5b7f4e487b71000000000000000000000000000000000000000000000000000000005f52604160045260245ffd5b6117d582611733565b810181811067ffffffffffffffff821117156117f4576117f361179f565b5b80604052505050565b5f611806611529565b905061181282826117cc565b919050565b5f67ffffffffffffffff8211156118315761183061179f565b5b602082029050602081019050919050565b5f5ffd5b5f61185861185384611817565b6117fd565b9050808382526020820190506020840283018581111561187b5761187a611842565b5b835b818110156118a4578061189088826115b3565b84526020840193505060208101905061187d565b5050509392505050565b5f82601f8301126118c2576118c161179b565b5b81356118d2848260208601611846565b91505092915050565b5f5ffd5b5f67ffffffffffffffff8211156118f9576118f861179f565b5b61190282611733565b9050602081019050919050565b828183375f83830152505050565b5f61192f61192a846118df565b6117fd565b90508281526020810184848401111561194b5761194a6118db565b5b61195684828561190f565b509392505050565b5f82601f8301126119725761197161179b565b5b813561198284826020860161191d565b91505092915050565b5f5f5f5f5f60a086880312156119a4576119a3611532565b5b5f6119b188828901611580565b95505060206119c288828901611580565b945050604086013567ffffffffffffffff8111156119e3576119e2611536565b5b6119ef888289016118ae565b935050606086013567ffffffffffffffff811115611a1057611a0f611536565b5b611a1c888289016118ae565b925050608086013567ffffffffffffffff811115611a3d57611a3c611536565b5b611a498882890161195e565b9150509295509295909350565b5f67ffffffffffffffff821115611a7057611a6f61179f565b5b602082029050602081019050919050565b5f611a93611a8e84611a56565b6117fd565b90508083825260208201905060208402830185811115611ab657611ab5611842565b5b835b81811015611adf5780611acb8882611580565b845260208401935050602081019050611ab8565b5050509392505050565b5f82601f830112611afd57611afc61179b565b5b8135611b0d848260208601611a81565b91505092915050565b5f5f60408385031215611b2c57611b2b611532565b5b5f83013567ffffffffffffffff811115611b4957611b48611536565b5b611b5585828601611ae9565b925050602083013567ffffffffffffffff811115611b7657611b75611536565b5b611b82858286016118ae565b9150509250929050565b5f81519050919050565b5f82825260208201905092915050565b5f819050602082019050919050565b611bbe81611594565b82525050565b5f611bcf8383611bb5565b60208301905092915050565b5f602082019050919050565b5f611bf182611b8c565b611bfb8185611b96565b9350611c0683611ba6565b805f5b83811015611c36578151611c1d8882611bc4565b9750611c2883611bdb565b925050600181019050611c09565b5085935050505092915050565b5f6020820190508181035f830152611c5b8184611be7565b905092915050565b5f67ffffffffffffffff821115611c7d57611c7c61179f565b5b611c8682611733565b9050602081019050919050565b5f611ca5611ca084611c63565b6117fd565b905082815260208101848484011115611cc157611cc06118db565b5b611ccc84828561190f565b509392505050565b5f82601f830112611ce857611ce761179b565b5b8135611cf8848260208601611c93565b91505092915050565b5f60208284031215611d1657611d15611532565b5b5f82013567ffffffffffffffff811115611d3357611d32611536565b5b611d3f84828501611cd4565b91505092915050565b5f5f5f60608486031215611d5f57611d5e611532565b5b5f611d6c86828701611580565b9350506020611d7d868287016115b3565b9250506040611d8e868287016115b3565b9150509250925092565b611da1816116ad565b8114611dab575f5ffd5b50565b5f81359050611dbc81611d98565b92915050565b5f5f60408385031215611dd857611dd7611532565b5b5f611de585828601611580565b9250506020611df685828601611dae565b9150509250929050565b5f5f60408385031215611e1657611e15611532565b5b5f611e2385828601611580565b9250506020611e3485828601611580565b9150509250929050565b5f5f5f5f5f60a08688031215611e5757611e56611532565b5b5f611e6488828901611580565b9550506020611e7588828901611580565b9450506040611e86888289016115b3565b9350506060611e97888289016115b3565b925050608086013567ffffffffffffffff811115611eb857611eb7611536565b5b611ec48882890161195e565b9150509295509295909350565b7f4e487b71000000000000000000000000000000000000000000000000000000005f52602260045260245ffd5b5f6002820490506001821680611f1557607f821691505b602082108103611f2857611f27611ed1565b5b50919050565b5f81905092915050565b5f819050815f5260205f209050919050565b5f8154611f5681611efe565b611f608186611f2e565b9450600182165f8114611f7a5760018114611f8f57611fc1565b60ff1983168652811515820286019350611fc1565b611f9885611f38565b5f5b83811015611fb957815481890152600182019150602081019050611f9a565b838801955050505b50505092915050565b5f611fd48261170b565b611fde8185611f2e565b9350611fee818560208601611725565b80840191505092915050565b7f2e6a736f6e0000000000000000000000000000000000000000000000000000005f82015250565b5f61202e600583611f2e565b915061203982611ffa565b600582019050919050565b5f61204f8285611f4a565b915061205b8284611fca565b915061206682612022565b91508190509392505050565b61207b81611559565b82525050565b5f6040820190506120945f830185612072565b6120a16020830184612072565b9392505050565b5f6040820190506120bb5f830185611605565b6120c86020830184611605565b9392505050565b7f4e487b71000000000000000000000000000000000000000000000000000000005f52603260045260245ffd5b5f6020601f8301049050919050565b5f82821b905092915050565b5f600883026121467fffffffffffffffffffffffffffffffffffffffffffffffffffffffffffffffff8261210b565b612150868361210b565b95508019841693508086168417925050509392505050565b5f819050919050565b5f61218b61218661218184611594565b612168565b611594565b9050919050565b5f819050919050565b6121a483612171565b6121b86121b082612192565b848454612117565b825550505050565b5f5f905090565b6121cf6121c0565b6121da81848461219b565b505050565b5b818110156121fd576121f25f826121c7565b6001810190506121e0565b5050565b601f8211156122425761221381611f38565b61221c846120fc565b8101602085101561222b578190505b61223f612237856120fc565b8301826121df565b50505b505050565b5f82821c905092915050565b5f6122625f1984600802612247565b1980831691505092915050565b5f61227a8383612253565b9150826002028217905092915050565b6122938261170b565b67ffffffffffffffff8111156122ac576122ab61179f565b5b6122b68254611efe565b6122c1828285612201565b5f60209050601f8311600181146122f2575f84156122e0578287015190505b6122ea858261226f565b865550612351565b601f19841661230086611f38565b5f5b8281101561232757848901518255600182019150602085019450602081019050612302565b868310156123445784890151612340601f891682612253565b8355505b6001600288020188555050505b505050505050565b7f4e487b71000000000000000000000000000000000000000000000000000000005f52601260045260245ffd5b5f6020820190506123995f830184612072565b92915050565b5f6080820190506123b25f830187612072565b6123bf6020830186611605565b6123cc6040830185611605565b6123d96060830184611605565b95945050505050565b7f4e487b71000000000000000000000000000000000000000000000000000000005f52601160045260245ffd5b5f61241982611594565b915061242483611594565b925082820190508082111561243c5761243b6123e2565b5b92915050565b5f6040820190508181035f83015261245a8185611be7565b9050818103602083015261246e8184611be7565b90509392505050565b5f81519050919050565b5f82825260208201905092915050565b5f61249b82612477565b6124a58185612481565b93506124b5818560208601611725565b6124be81611733565b840191505092915050565b5f60a0820190506124dc5f830188612072565b6124e96020830187612072565b6124f66040830186611605565b6125036060830185611605565b81810360808301526125158184612491565b90509695505050505050565b5f8151905061252f81611658565b92915050565b5f6020828403121561254a57612549611532565b5b5f61255784828501612521565b91505092915050565b5f60a0820190506125735f830188612072565b6125806020830187612072565b81810360408301526125928186611be7565b905081810360608301526125a68185611be7565b905081810360808301526125ba8184612491565b9050969550505050505056fea26469706673582212202704d2a7a980e14f6e75f204f10da689f7721399994428dc4deffc4a6a2d363164736f6c634300081e003368747470733a2f2f6170692e6578616d706c652e636f6d2f616368696576656d656e74732f","linkReferences":{}},"methodIdentifiers":{"awardAchievement(address,uint256,uint256)":"62e3a643","balanceOf(address,uint256)":"00fdd58e","balanceOfBatch(address[],uint256[])":"4e1273f4","isApprovedForAll(address,address)":"e985e9c5","safeBatchTransferFrom(address,address,uint256[],uint256[],bytes)":"2eb2c2d6","safeTransferFrom(address,address,uint256,uint256,bytes)":"f242432a","setApprovalForAll(address,bool)":"a22cb465","setBaseURI(string)":"55f804b3","supportsInterface(bytes4)":"01ffc9a7","uri(uint256)":"0e89341c"},"id":37}