{"abi":[{"type":"function","name":"stake","inputs":[{"name":"amount","type":"uint256","internalType":"uint256"}],"outputs":[],"stateMutability":"nonpayable"},{"type":"function","name":"stakes","inputs":[{"name":"","type":"address","internalType":"address"}],"outputs":[{"name":"","type":"uint256","internalType":"uint256"}],"stateMutability":"view"},{"type":"function","name":"unstake","inputs":[{"name":"amount","type":"uint256","internalType":"uint256"}],"outputs":[],"stateMutability":"nonpayable"},{"type":"event","name":"Staked","inputs":[{"name":"user","type":"address","indexed":true,"internalType":"address"},{"name":"amount","type":"uint256","indexed":false,"internalType":"uint256"}],"anonymous":false},{"type":"event","name":"Unstaked","inputs":[{"name":"user","type":"address","indexed":true,"internalType":"address"},{"name":"amount","type":"uint256","indexed":false,"internalType":"uint256"}],"anonymous":false}],"bytecode":{"object":"0x6080604052348015600e575f5ffd5b506105c08061001c5f395ff3fe608060405234801561000f575f5ffd5b506004361061003f575f3560e01c806316934fc4146100435780632e17de7814610073578063a694fc3a1461008f575b5f5ffd5b61005d60048036038101906100589190610366565b6100ab565b60405161006a91906103a9565b60405180910390f35b61008d600480360381019061008891906103ec565b6100bf565b005b6100a960048036038101906100a491906103ec565b610223565b005b5f602052805f5260405f205f915090505481565b5f8111610101576040517f08c379a00000000000000000000000000000000000000000000000000000000081526004016100f890610471565b60405180910390fd5b5f5f3373ffffffffffffffffffffffffffffffffffffffff1673ffffffffffffffffffffffffffffffffffffffff1681526020019081526020015f2054811115610180576040517f08c379a0000000000000000000000000000000000000000000000000000000008152600401610177906104d9565b60405180910390fd5b805f5f3373ffffffffffffffffffffffffffffffffffffffff1673ffffffffffffffffffffffffffffffffffffffff1681526020019081526020015f205f8282546101cb9190610524565b925050819055503373ffffffffffffffffffffffffffffffffffffffff167f0f5bb82176feb1b5e747e28471aa92156a04d9f3ab9f45f28e2d704232b93f758260405161021891906103a9565b60405180910390a250565b5f8111610265576040517f08c379a000000000000000000000000000000000000000000000000000000000815260040161025c90610471565b60405180910390fd5b805f5f3373ffffffffffffffffffffffffffffffffffffffff1673ffffffffffffffffffffffffffffffffffffffff1681526020019081526020015f205f8282546102b09190610557565b925050819055503373ffffffffffffffffffffffffffffffffffffffff167f9e71bc8eea02a63969f509818f2dafb9254532904319f9dbda79b67bd34a5f3d826040516102fd91906103a9565b60405180910390a250565b5f5ffd5b5f73ffffffffffffffffffffffffffffffffffffffff82169050919050565b5f6103358261030c565b9050919050565b6103458161032b565b811461034f575f5ffd5b50565b5f813590506103608161033c565b92915050565b5f6020828403121561037b5761037a610308565b5b5f61038884828501610352565b91505092915050565b5f819050919050565b6103a381610391565b82525050565b5f6020820190506103bc5f83018461039a565b92915050565b6103cb81610391565b81146103d5575f5ffd5b50565b5f813590506103e6816103c2565b92915050565b5f6020828403121561040157610400610308565b5b5f61040e848285016103d8565b91505092915050565b5f82825260208201905092915050565b7f416d6f756e74206d757374206265203e203000000000000000000000000000005f82015250565b5f61045b601283610417565b915061046682610427565b602082019050919050565b5f6020820190508181035f8301526104888161044f565b9050919050565b7f496e73756666696369656e74207374616b6500000000000000000000000000005f82015250565b5f6104c3601283610417565b91506104ce8261048f565b602082019050919050565b5f6020820190508181035f8301526104f0816104b7565b9050919050565b7f4e487b71000000000000000000000000000000000000000000000000000000005f52601160045260245ffd5b5f61052e82610391565b915061053983610391565b9250828203905081811115610551576105506104f7565b5b92915050565b5f61056182610391565b915061056c83610391565b9250828201905080821115610584576105836104f7565b5b9291505056fea2646970667358221220edbb666a3f7bfbe75c2e4fc205a35b0381a47aaece73797c14ef057ec48b7f9264736f6c634300081e0033","linkReferences":{}},"methodIdentifiers":{"stake(uint256)":"a694fc3a","stakes(address)":"16934fc4","unstake(uint256)":"2e17de78"},"id":39}