{"abi":[{"type":"constructor","inputs":[],"stateMutability":"nonpayable"},{"type":"function","name":"awardAchievement","inputs":[{"name":"to","type":"address","internalType":"address"},{"name":"id","type":"uint256","internalType":"uint256"},{"name":"amount","type":"uint256","internalType":"uint256"}],"outputs":[],"stateMutability":"nonpayable"},{"type":"function","name":"balanceOf","inputs":[{"name":"account","type":"address","internalType":"address"},{"name":"id","type":"uint256","internalType":"uint256"}],"outputs":[{"name":"","type":"uint256","internalType":"uint256"}],"stateMutability":"view"},{"type":"function","name":"balanceOfBatch","inputs":[{"name":"accounts","type":"address[]","internalType":"address[]"},{"name":"ids","type":"uint256[]","internalType":"uint256[]"}],"outputs":[{"name":"","type":"uint256[]","internalType":"uint256[]"}],"stateMutability":"view"},{"type":"function","name":"burn","inputs":[{"name":"account","type":"address","internalType":"address"},{"name":"id","type":"uint256","internalType":"uint256"},{"name":"amount","type":"uint256","internalType":"uint256"}],"outputs":[],"stateMutability":"nonpayable"},{"type":"function","name":"isApprovedForAll","inputs":[{"name":"account","type":"address","internalType":"address"},{"name":"operator","type":"address","internalType":"address"}],"outputs":[{"name":"","type":"bool","internalType":"bool"}],"stateMutability":"view"},{"type":"function","name":"safeBatchTransferFrom","inputs":[{"name":"from","type":"address","internalType":"address"},{"name":"to","type":"address","internalType":"address"},{"name":"ids","type":"uint256[]","internalType":"uint256[]"},{"name":"values","type":"uint256[]","internalType":"uint256[]"},{"name":"data","type":"bytes","internalType":"bytes"}],"outputs":[],"stateMutability":"nonpayable"},{"type":"function","name":"safeTransferFrom","inputs":[{"name":"from","type":"address","internalType":"address"},{"name":"to","type":"address","internalType":"address"},{"name":"id","type":"uint256","internalType":"uint256"},{"name":"value","type":"uint256","internalType":"uint256"},{"name":"data","type":"bytes","internalType":"bytes"}],"outputs":[],"stateMutability":"nonpayable"},{"type":"function","name":"setApprovalForAll","inputs":[{"name":"operator","type":"address","internalType":"address"},{"name":"approved","type":"bool","internalType":"bool"}],"outputs":[],"stateMutability":"nonpayable"},{"type":"function","name":"setBaseURI","inputs":[{"name":"newBaseURI","type":"string","internalType":"string"}],"outputs":[],"stateMutability":"nonpayable"},{"type":"function","name":"supportsInterface","inputs":[{"name":"interfaceId","type":"bytes4","internalType":"bytes4"}],"outputs":[{"name":"","type":"bool","internalType":"bool"}],"stateMutability":"view"},{"type":"function","name":"uri","inputs":[{"name":"tokenId","type":"uint256","internalType":"uint256"}],"outputs":[{"name":"","type":"string","internalType":"string"}],"stateMutability":"view"},{"type":"event","name":"ApprovalForAll","inputs":[{"name":"account","type":"address","indexed":true,"internalType":"address"},{"name":"operator","type":"address","indexed":true,"internalType":"address"},{"name":"approved","type":"bool","indexed":false,"internalType":"bool"}],"anonymous":false},{"type":"event","name":"TransferBatch","inputs":[{"name":"operator","type":"address","indexed":true,"internalType":"address"},{"name":"from","type":"address","indexed":true,"internalType":"address"},{"name":"to","type":"address","indexed":true,"internalType":"address"},{"name":"ids","type":"uint256[]","indexed":false,"internalType":"uint256[]"},{"name":"values","type":"uint256[]","indexed":false,"internalType":"uint256[]"}],"anonymous":false},{"type":"event","name":"TransferSingle","inputs":[{"name":"operator","type":"address","indexed":true,"internalType":"address"},{"name":"from","type":"address","indexed":true,"internalType":"address"},{"name":"to","type":"address","indexed":true,"internalType":"address"},{"name":"id","type":"uint256","indexed":false,"internalType":"uint256"},{"name":"value","type":"uint256","indexed":false,"internalType":"uint256"}],"anonymous":false},{"type":"event","name":"URI","inputs":[{"name":"value","type":"string","indexed":false,"internalType":"string"},{"name":"id","type":"uint256","indexed":true,"internalType":"uint256"}],"anonymous":false},{"type":"error","name":"ERC1155InsufficientBalance","inputs":[{"name":"sender","type":"address","internalType":"address"},{"name":"balance","type":"uint256","internalType":"uint256"},{"name":"needed","type":"uint256","internalType":"uint256"},{"name":"tokenId","type":"uint256","internalType":"uint256"}]},{"type":"error","name":"ERC1155InvalidApprover","inputs":[{"name":"approver","type":"address","internalType":"address"}]},{"type":"error","name":"ERC1155InvalidArrayLength","inputs":[{"name":"idsLength","type":"uint256","internalType":"uint256"},{"name":"valuesLength","type":"uint256","internalType":"uint256"}]},{"type":"error","name":"ERC1155InvalidOperator","inputs":[{"name":"operator","type":"address","internalType":"address"}]},{"type":"error","name":"ERC1155InvalidReceiver","inputs":[{"name":"receiver","type":"address","internalType":"address"}]},{"type":"error","name":"ERC1155InvalidSender","inputs":[{"name":"sender","type":"address","internalType":"address"}]},{"type":"error","name":"ERC1155MissingApprovalForAll","inputs":[{"name":"operator","type":"address","internalType":"address"},{"name":"owner","type":"address","internalType":"address"}]},{"type":"error","name":"SoulboundTokenTransferNotAllowed","inputs":[]}],"bytecode":{"object":"0x608060405234801561000f575f5ffd5b50604051806060016040528060238152602001612ce0602391396100388161003e60201b60201c565b5061035d565b806002908161004d919061028e565b5050565b5f81519050919050565b7f4e487b71000000000000000000000000000000000000000000000000000000005f52604160045260245ffd5b7f4e487b71000000000000000000000000000000000000000000000000000000005f52602260045260245ffd5b5f60028204905060018216806100cc57607f821691505b6020821081036100df576100de610088565b5b50919050565b5f819050815f5260205f209050919050565b5f6020601f8301049050919050565b5f82821b905092915050565b5f600883026101417fffffffffffffffffffffffffffffffffffffffffffffffffffffffffffffffff82610106565b61014b8683610106565b95508019841693508086168417925050509392505050565b5f819050919050565b5f819050919050565b5f61018f61018a61018584610163565b61016c565b610163565b9050919050565b5f819050919050565b6101a883610175565b6101bc6101b482610196565b848454610112565b825550505050565b5f5f905090565b6101d36101c4565b6101de81848461019f565b505050565b5b81811015610201576101f65f826101cb565b6001810190506101e4565b5050565b601f82111561024657610217816100e5565b610220846100f7565b8101602085101561022f578190505b61024361023b856100f7565b8301826101e3565b50505b505050565b5f82821c905092915050565b5f6102665f198460080261024b565b1980831691505092915050565b5f61027e8383610257565b9150826002028217905092915050565b61029782610051565b67ffffffffffffffff8111156102b0576102af61005b565b5b6102ba82546100b5565b6102c5828285610205565b5f60209050601f8311600181146102f6575f84156102e4578287015190505b6102ee8582610273565b865550610355565b601f198416610304866100e5565b5f5b8281101561032b57848901518255600182019150602085019450602081019050610306565b868310156103485784890151610344601f891682610257565b8355505b6001600288020188555050505b505050505050565b6129768061036a5f395ff3fe608060405234801561000f575f5ffd5b50600436106100a6575f3560e01c806355f804b31161006f57806355f804b31461018657806362e3a643146101a2578063a22cb465146101be578063e985e9c5146101da578063f242432a1461020a578063f5298aca14610226576100a6565b8062fdd58e146100aa57806301ffc9a7146100da5780630e89341c1461010a5780632eb2c2d61461013a5780634e1273f414610156575b5f5ffd5b6100c460048036038101906100bf91906118f1565b610242565b6040516100d1919061193e565b60405180910390f35b6100f460048036038101906100ef91906119ac565b610297565b60405161010191906119f1565b60405180910390f35b610124600480360381019061011f9190611a0a565b610378565b6040516101319190611aa5565b60405180910390f35b610154600480360381019061014f9190611cb5565b6103b3565b005b610170600480360381019061016b9190611e40565b61045a565b60405161017d9190611f6d565b60405180910390f35b6101a0600480360381019061019b919061202b565b610564565b005b6101bc60048036038101906101b79190612072565b610570565b005b6101d860048036038101906101d391906120ec565b6105fd565b005b6101f460048036038101906101ef919061212a565b610613565b60405161020191906119f1565b60405180910390f35b610224600480360381019061021f9190612168565b6106a1565b005b610240600480360381019061023b9190612072565b610748565b005b5f5f5f8381526020019081526020015f205f8473ffffffffffffffffffffffffffffffffffffffff1673ffffffffffffffffffffffffffffffffffffffff1681526020019081526020015f2054905092915050565b5f7fd9b67a26000000000000000000000000000000000000000000000000000000007bffffffffffffffffffffffffffffffffffffffffffffffffffffffff1916827bffffffffffffffffffffffffffffffffffffffffffffffffffffffff1916148061036157507f0e89341c000000000000000000000000000000000000000000000000000000007bffffffffffffffffffffffffffffffffffffffffffffffffffffffff1916827bffffffffffffffffffffffffffffffffffffffffffffffffffffffff1916145b806103715750610370826107e5565b5b9050919050565b60606103835f61084e565b61038c836108e0565b60405160200161039d92919061227f565b6040516020818303038152906040529050919050565b5f6103bc6109aa565b90508073ffffffffffffffffffffffffffffffffffffffff168673ffffffffffffffffffffffffffffffffffffffff161415801561040157506103ff8682610613565b155b156104455780866040517fe237d92200000000000000000000000000000000000000000000000000000000815260040161043c9291906122bc565b60405180910390fd5b61045286868686866109b1565b505050505050565b606081518351146104a657815183516040517f5b05999100000000000000000000000000000000000000000000000000000000815260040161049d9291906122e3565b60405180910390fd5b5f835167ffffffffffffffff8111156104c2576104c1611ac9565b5b6040519080825280602002602001820160405280156104f05781602001602082028036833780820191505090505b5090505f5f90505b84518110156105595761052f6105178287610aa590919063ffffffff16565b61052a8387610ab890919063ffffffff16565b610242565b8282815181106105425761054161230a565b5b6020026020010181815250508060010190506104f8565b508091505092915050565b61056d81610acb565b50565b5f73ffffffffffffffffffffffffffffffffffffffff168373ffffffffffffffffffffffffffffffffffffffff16036105de576040517f08c379a00000000000000000000000000000000000000000000000000000000081526004016105d590612381565b60405180910390fd5b6105f883838360405180602001604052805f815250610ade565b505050565b61060f6106086109aa565b8383610b73565b5050565b5f60015f8473ffffffffffffffffffffffffffffffffffffffff1673ffffffffffffffffffffffffffffffffffffffff1681526020019081526020015f205f8373ffffffffffffffffffffffffffffffffffffffff1673ffffffffffffffffffffffffffffffffffffffff1681526020019081526020015f205f9054906101000a900460ff16905092915050565b5f6106aa6109aa565b90508073ffffffffffffffffffffffffffffffffffffffff168673ffffffffffffffffffffffffffffffffffffffff16141580156106ef57506106ed8682610613565b155b156107335780866040517fe237d92200000000000000000000000000000000000000000000000000000000815260040161072a9291906122bc565b60405180910390fd5b6107408686868686610cdc565b505050505050565b6107506109aa565b73ffffffffffffffffffffffffffffffffffffffff168373ffffffffffffffffffffffffffffffffffffffff1614806107965750610795836107906109aa565b610613565b5b6107d5576040517f08c379a00000000000000000000000000000000000000000000000000000000081526004016107cc906123e9565b60405180910390fd5b6107e0838383610de2565b505050565b5f7f01ffc9a7000000000000000000000000000000000000000000000000000000007bffffffffffffffffffffffffffffffffffffffffffffffffffffffff1916827bffffffffffffffffffffffffffffffffffffffffffffffffffffffff1916149050919050565b60606002805461085d90612434565b80601f016020809104026020016040519081016040528092919081815260200182805461088990612434565b80156108d45780601f106108ab576101008083540402835291602001916108d4565b820191905f5260205f20905b8154815290600101906020018083116108b757829003601f168201915b50505050509050919050565b60605f60016108ee84610e84565b0190505f8167ffffffffffffffff81111561090c5761090b611ac9565b5b6040519080825280601f01601f19166020018201604052801561093e5781602001600182028036833780820191505090505b5090505f82602001820190505b60011561099f578080600190039150507f3031323334353637383961626364656600000000000000000000000000000000600a86061a8153600a858161099457610993612464565b5b0494505f850361094b575b819350505050919050565b5f33905090565b5f73ffffffffffffffffffffffffffffffffffffffff168473ffffffffffffffffffffffffffffffffffffffff1603610a21575f6040517f57f447ce000000000000000000000000000000000000000000000000000000008152600401610a189190612491565b60405180910390fd5b5f73ffffffffffffffffffffffffffffffffffffffff168573ffffffffffffffffffffffffffffffffffffffff1603610a91575f6040517f01a83514000000000000000000000000000000000000000000000000000000008152600401610a889190612491565b60405180910390fd5b610a9e8585858585610fd5565b5050505050565b5f60208202602084010151905092915050565b5f60208202602084010151905092915050565b8060029081610ada919061264a565b5050565b5f73ffffffffffffffffffffffffffffffffffffffff168473ffffffffffffffffffffffffffffffffffffffff1603610b4e575f6040517f57f447ce000000000000000000000000000000000000000000000000000000008152600401610b459190612491565b60405180910390fd5b5f5f610b5a8585611081565b91509150610b6b5f87848487610fd5565b505050505050565b5f73ffffffffffffffffffffffffffffffffffffffff168273ffffffffffffffffffffffffffffffffffffffff1603610be3575f6040517fced3e100000000000000000000000000000000000000000000000000000000008152600401610bda9190612491565b60405180910390fd5b8060015f8573ffffffffffffffffffffffffffffffffffffffff1673ffffffffffffffffffffffffffffffffffffffff1681526020019081526020015f205f8473ffffffffffffffffffffffffffffffffffffffff1673ffffffffffffffffffffffffffffffffffffffff1681526020019081526020015f205f6101000a81548160ff0219169083151502179055508173ffffffffffffffffffffffffffffffffffffffff168373ffffffffffffffffffffffffffffffffffffffff167f17307eab39ab6107e8899845ad3d59bd9653f200f220920489ca2b5937696c3183604051610ccf91906119f1565b60405180910390a3505050565b5f73ffffffffffffffffffffffffffffffffffffffff168473ffffffffffffffffffffffffffffffffffffffff1603610d4c575f6040517f57f447ce000000000000000000000000000000000000000000000000000000008152600401610d439190612491565b60405180910390fd5b5f73ffffffffffffffffffffffffffffffffffffffff168573ffffffffffffffffffffffffffffffffffffffff1603610dbc575f6040517f01a83514000000000000000000000000000000000000000000000000000000008152600401610db39190612491565b60405180910390fd5b5f5f610dc88585611081565b91509150610dd98787848487610fd5565b50505050505050565b5f73ffffffffffffffffffffffffffffffffffffffff168373ffffffffffffffffffffffffffffffffffffffff1603610e52575f6040517f01a83514000000000000000000000000000000000000000000000000000000008152600401610e499190612491565b60405180910390fd5b5f5f610e5e8484611081565b91509150610e7d855f848460405180602001604052805f815250610fd5565b5050505050565b5f5f5f90507a184f03e93ff9f4daa797ed6e38ed64bf6a1f0100000000000000008310610ee0577a184f03e93ff9f4daa797ed6e38ed64bf6a1f0100000000000000008381610ed657610ed5612464565b5b0492506040810190505b6d04ee2d6d415b85acef81000000008310610f1d576d04ee2d6d415b85acef81000000008381610f1357610f12612464565b5b0492506020810190505b662386f26fc100008310610f4c57662386f26fc100008381610f4257610f41612464565b5b0492506010810190505b6305f5e1008310610f75576305f5e1008381610f6b57610f6a612464565b5b0492506008810190505b6127108310610f9a576127108381610f9057610f8f612464565b5b0492506004810190505b60648310610fbd5760648381610fb357610fb2612464565b5b0492506002810190505b600a8310610fcc576001810190505b80915050919050565b610fe1858585856110b1565b5f73ffffffffffffffffffffffffffffffffffffffff168473ffffffffffffffffffffffffffffffffffffffff161461107a575f61101d6109aa565b90506001845103611069575f61103c5f86610ab890919063ffffffff16565b90505f6110525f86610ab890919063ffffffff16565b9050611062838989858589611162565b5050611078565b611077818787878787611311565b5b505b5050505050565b60608060405191506001825283602083015260408201905060018152826020820152604081016040529250929050565b5f73ffffffffffffffffffffffffffffffffffffffff168473ffffffffffffffffffffffffffffffffffffffff161415801561111957505f73ffffffffffffffffffffffffffffffffffffffff168373ffffffffffffffffffffffffffffffffffffffff1614155b15611150576040517f4f48ee2000000000000000000000000000000000000000000000000000000000815260040160405180910390fd5b61115c848484846114c0565b50505050565b5f8473ffffffffffffffffffffffffffffffffffffffff163b1115611309578373ffffffffffffffffffffffffffffffffffffffff1663f23a6e6187878686866040518663ffffffff1660e01b81526004016111c295949392919061276b565b6020604051808303815f875af19250505080156111fd57506040513d601f19601f820116820180604052508101906111fa91906127d7565b60015b61127e573d805f811461122b576040519150601f19603f3d011682016040523d82523d5f602084013e611230565b606091505b505f81510361127657846040517f57f447ce00000000000000000000000000000000000000000000000000000000815260040161126d9190612491565b60405180910390fd5b805181602001fd5b63f23a6e6160e01b7bffffffffffffffffffffffffffffffffffffffffffffffffffffffff1916817bffffffffffffffffffffffffffffffffffffffffffffffffffffffff19161461130757846040517f57f447ce0000000000000000000000000000000000000000000000000000000081526004016112fe9190612491565b60405180910390fd5b505b505050505050565b5f8473ffffffffffffffffffffffffffffffffffffffff163b11156114b8578373ffffffffffffffffffffffffffffffffffffffff1663bc197c8187878686866040518663ffffffff1660e01b8152600401611371959493929190612802565b6020604051808303815f875af19250505080156113ac57506040513d601f19601f820116820180604052508101906113a991906127d7565b60015b61142d573d805f81146113da576040519150601f19603f3d011682016040523d82523d5f602084013e6113df565b606091505b505f81510361142557846040517f57f447ce00000000000000000000000000000000000000000000000000000000815260040161141c9190612491565b60405180910390fd5b805181602001fd5b63bc197c8160e01b7bffffffffffffffffffffffffffffffffffffffffffffffffffffffff1916817bffffffffffffffffffffffffffffffffffffffffffffffffffffffff1916146114b657846040517f57f447ce0000000000000000000000000000000000000000000000000000000081526004016114ad9190612491565b60405180910390fd5b505b505050505050565b805182511461150a57815181516040517f5b0599910000000000000000000000000000000000000000000000000000000081526004016115019291906122e3565b60405180910390fd5b5f6115136109aa565b90505f5f90505b8351811015611712575f6115378286610ab890919063ffffffff16565b90505f61154d8386610ab890919063ffffffff16565b90505f73ffffffffffffffffffffffffffffffffffffffff168873ffffffffffffffffffffffffffffffffffffffff1614611670575f5f5f8481526020019081526020015f205f8a73ffffffffffffffffffffffffffffffffffffffff1673ffffffffffffffffffffffffffffffffffffffff1681526020019081526020015f205490508181101561161c57888183856040517f03dee4c50000000000000000000000000000000000000000000000000000000081526004016116139493929190612868565b60405180910390fd5b8181035f5f8581526020019081526020015f205f8b73ffffffffffffffffffffffffffffffffffffffff1673ffffffffffffffffffffffffffffffffffffffff1681526020019081526020015f2081905550505b5f73ffffffffffffffffffffffffffffffffffffffff168773ffffffffffffffffffffffffffffffffffffffff161461170557805f5f8481526020019081526020015f205f8973ffffffffffffffffffffffffffffffffffffffff1673ffffffffffffffffffffffffffffffffffffffff1681526020019081526020015f205f8282546116fd91906128d8565b925050819055505b505080600101905061151a565b5060018351036117cd575f6117305f85610ab890919063ffffffff16565b90505f6117465f85610ab890919063ffffffff16565b90508573ffffffffffffffffffffffffffffffffffffffff168773ffffffffffffffffffffffffffffffffffffffff168473ffffffffffffffffffffffffffffffffffffffff167fc3d58168c5ae7397731d063d5bbf3d657854427343f4c083240f7aacaa2d0f6285856040516117be9291906122e3565b60405180910390a4505061184c565b8373ffffffffffffffffffffffffffffffffffffffff168573ffffffffffffffffffffffffffffffffffffffff168273ffffffffffffffffffffffffffffffffffffffff167f4a39dc06d4c0dbc64b70af90fd698a233a518aa5d07e595d983b8c0526c8f7fb868660405161184392919061290b565b60405180910390a45b5050505050565b5f604051905090565b5f5ffd5b5f5ffd5b5f73ffffffffffffffffffffffffffffffffffffffff82169050919050565b5f61188d82611864565b9050919050565b61189d81611883565b81146118a7575f5ffd5b50565b5f813590506118b881611894565b92915050565b5f819050919050565b6118d0816118be565b81146118da575f5ffd5b50565b5f813590506118eb816118c7565b92915050565b5f5f604083850312156119075761190661185c565b5b5f611914858286016118aa565b9250506020611925858286016118dd565b9150509250929050565b611938816118be565b82525050565b5f6020820190506119515f83018461192f565b92915050565b5f7fffffffff0000000000000000000000000000000000000000000000000000000082169050919050565b61198b81611957565b8114611995575f5ffd5b50565b5f813590506119a681611982565b92915050565b5f602082840312156119c1576119c061185c565b5b5f6119ce84828501611998565b91505092915050565b5f8115159050919050565b6119eb816119d7565b82525050565b5f602082019050611a045f8301846119e2565b92915050565b5f60208284031215611a1f57611a1e61185c565b5b5f611a2c848285016118dd565b91505092915050565b5f81519050919050565b5f82825260208201905092915050565b8281835e5f83830152505050565b5f601f19601f8301169050919050565b5f611a7782611a35565b611a818185611a3f565b9350611a91818560208601611a4f565b611a9a81611a5d565b840191505092915050565b5f6020820190508181035f830152611abd8184611a6d565b905092915050565b5f5ffd5b7f4e487b71000000000000000000000000000000000000000000000000000000005f52604160045260245ffd5b611aff82611a5d565b810181811067ffffffffffffffff82111715611b1e57611b1d611ac9565b5b80604052505050565b5f611b30611853565b9050611b3c8282611af6565b919050565b5f67ffffffffffffffff821115611b5b57611b5a611ac9565b5b602082029050602081019050919050565b5f5ffd5b5f611b82611b7d84611b41565b611b27565b90508083825260208201905060208402830185811115611ba557611ba4611b6c565b5b835b81811015611bce5780611bba88826118dd565b845260208401935050602081019050611ba7565b5050509392505050565b5f82601f830112611bec57611beb611ac5565b5b8135611bfc848260208601611b70565b91505092915050565b5f5ffd5b5f67ffffffffffffffff821115611c2357611c22611ac9565b5b611c2c82611a5d565b9050602081019050919050565b828183375f83830152505050565b5f611c59611c5484611c09565b611b27565b905082815260208101848484011115611c7557611c74611c05565b5b611c80848285611c39565b509392505050565b5f82601f830112611c9c57611c9b611ac5565b5b8135611cac848260208601611c47565b91505092915050565b5f5f5f5f5f60a08688031215611cce57611ccd61185c565b5b5f611cdb888289016118aa565b9550506020611cec888289016118aa565b945050604086013567ffffffffffffffff811115611d0d57611d0c611860565b5b611d1988828901611bd8565b935050606086013567ffffffffffffffff811115611d3a57611d39611860565b5b611d4688828901611bd8565b925050608086013567ffffffffffffffff811115611d6757611d66611860565b5b611d7388828901611c88565b9150509295509295909350565b5f67ffffffffffffffff821115611d9a57611d99611ac9565b5b602082029050602081019050919050565b5f611dbd611db884611d80565b611b27565b90508083825260208201905060208402830185811115611de057611ddf611b6c565b5b835b81811015611e095780611df588826118aa565b845260208401935050602081019050611de2565b5050509392505050565b5f82601f830112611e2757611e26611ac5565b5b8135611e37848260208601611dab565b91505092915050565b5f5f60408385031215611e5657611e5561185c565b5b5f83013567ffffffffffffffff811115611e7357611e72611860565b5b611e7f85828601611e13565b925050602083013567ffffffffffffffff811115611ea057611e9f611860565b5b611eac85828601611bd8565b9150509250929050565b5f81519050919050565b5f82825260208201905092915050565b5f819050602082019050919050565b611ee8816118be565b82525050565b5f611ef98383611edf565b60208301905092915050565b5f602082019050919050565b5f611f1b82611eb6565b611f258185611ec0565b9350611f3083611ed0565b805f5b83811015611f60578151611f478882611eee565b9750611f5283611f05565b925050600181019050611f33565b5085935050505092915050565b5f6020820190508181035f830152611f858184611f11565b905092915050565b5f67ffffffffffffffff821115611fa757611fa6611ac9565b5b611fb082611a5d565b9050602081019050919050565b5f611fcf611fca84611f8d565b611b27565b905082815260208101848484011115611feb57611fea611c05565b5b611ff6848285611c39565b509392505050565b5f82601f83011261201257612011611ac5565b5b8135612022848260208601611fbd565b91505092915050565b5f602082840312156120405761203f61185c565b5b5f82013567ffffffffffffffff81111561205d5761205c611860565b5b61206984828501611ffe565b91505092915050565b5f5f5f606084860312156120895761208861185c565b5b5f612096868287016118aa565b93505060206120a7868287016118dd565b92505060406120b8868287016118dd565b9150509250925092565b6120cb816119d7565b81146120d5575f5ffd5b50565b5f813590506120e6816120c2565b92915050565b5f5f604083850312156121025761210161185c565b5b5f61210f858286016118aa565b9250506020612120858286016120d8565b9150509250929050565b5f5f604083850312156121405761213f61185c565b5b5f61214d858286016118aa565b925050602061215e858286016118aa565b9150509250929050565b5f5f5f5f5f60a086880312156121815761218061185c565b5b5f61218e888289016118aa565b955050602061219f888289016118aa565b94505060406121b0888289016118dd565b93505060606121c1888289016118dd565b925050608086013567ffffffffffffffff8111156121e2576121e1611860565b5b6121ee88828901611c88565b9150509295509295909350565b5f81905092915050565b5f61220f82611a35565b61221981856121fb565b9350612229818560208601611a4f565b80840191505092915050565b7f2e6a736f6e0000000000000000000000000000000000000000000000000000005f82015250565b5f6122696005836121fb565b915061227482612235565b600582019050919050565b5f61228a8285612205565b91506122968284612205565b91506122a18261225d565b91508190509392505050565b6122b681611883565b82525050565b5f6040820190506122cf5f8301856122ad565b6122dc60208301846122ad565b9392505050565b5f6040820190506122f65f83018561192f565b612303602083018461192f565b9392505050565b7f4e487b71000000000000000000000000000000000000000000000000000000005f52603260045260245ffd5b7f496e76616c69642077616c6c65742061646472657373000000000000000000005f82015250565b5f61236b601683611a3f565b915061237682612337565b602082019050919050565b5f6020820190508181035f8301526123988161235f565b9050919050565b7f43616c6c6572206973206e6f74206f776e6572206e6f7220617070726f7665645f82015250565b5f6123d3602083611a3f565b91506123de8261239f565b602082019050919050565b5f6020820190508181035f830152612400816123c7565b9050919050565b7f4e487b71000000000000000000000000000000000000000000000000000000005f52602260045260245ffd5b5f600282049050600182168061244b57607f821691505b60208210810361245e5761245d612407565b5b50919050565b7f4e487b71000000000000000000000000000000000000000000000000000000005f52601260045260245ffd5b5f6020820190506124a45f8301846122ad565b92915050565b5f819050815f5260205f209050919050565b5f6020601f8301049050919050565b5f82821b905092915050565b5f600883026125067fffffffffffffffffffffffffffffffffffffffffffffffffffffffffffffffff826124cb565b61251086836124cb565b95508019841693508086168417925050509392505050565b5f819050919050565b5f61254b612546612541846118be565b612528565b6118be565b9050919050565b5f819050919050565b61256483612531565b61257861257082612552565b8484546124d7565b825550505050565b5f5f905090565b61258f612580565b61259a81848461255b565b505050565b5b818110156125bd576125b25f82612587565b6001810190506125a0565b5050565b601f821115612602576125d3816124aa565b6125dc846124bc565b810160208510156125eb578190505b6125ff6125f7856124bc565b83018261259f565b50505b505050565b5f82821c905092915050565b5f6126225f1984600802612607565b1980831691505092915050565b5f61263a8383612613565b9150826002028217905092915050565b61265382611a35565b67ffffffffffffffff81111561266c5761266b611ac9565b5b6126768254612434565b6126818282856125c1565b5f60209050601f8311600181146126b2575f84156126a0578287015190505b6126aa858261262f565b865550612711565b601f1984166126c0866124aa565b5f5b828110156126e7578489015182556001820191506020850194506020810190506126c2565b868310156127045784890151612700601f891682612613565b8355505b6001600288020188555050505b505050505050565b5f81519050919050565b5f82825260208201905092915050565b5f61273d82612719565b6127478185612723565b9350612757818560208601611a4f565b61276081611a5d565b840191505092915050565b5f60a08201905061277e5f8301886122ad565b61278b60208301876122ad565b612798604083018661192f565b6127a5606083018561192f565b81810360808301526127b78184612733565b90509695505050505050565b5f815190506127d181611982565b92915050565b5f602082840312156127ec576127eb61185c565b5b5f6127f9848285016127c3565b91505092915050565b5f60a0820190506128155f8301886122ad565b61282260208301876122ad565b81810360408301526128348186611f11565b905081810360608301526128488185611f11565b9050818103608083015261285c8184612733565b90509695505050505050565b5f60808201905061287b5f8301876122ad565b612888602083018661192f565b612895604083018561192f565b6128a2606083018461192f565b95945050505050565b7f4e487b71000000000000000000000000000000000000000000000000000000005f52601160045260245ffd5b5f6128e2826118be565b91506128ed836118be565b9250828201905080821115612905576129046128ab565b5b92915050565b5f6040820190508181035f8301526129238185611f11565b905081810360208301526129378184611f11565b9050939250505056fea264697066735822122009fa8e232e39d0d6aa4e638c4133dc4d914b9b5b15f0296e3de23488b7dd239764736f6c634300081e003368747470733a2f2f6170692e6564752d636861696e2f616368696576656d656e74732f","linkReferences":{}},"methodIdentifiers":{"awardAchievement(address,uint256,uint256)":"62e3a643","balanceOf(address,uint256)":"00fdd58e","balanceOfBatch(address[],uint256[])":"4e1273f4","burn(address,uint256,uint256)":"f5298aca","isApprovedForAll(address,address)":"e985e9c5","safeBatchTransferFrom(address,address,uint256[],uint256[],bytes)":"2eb2c2d6","safeTransferFrom(address,address,uint256,uint256,bytes)":"f242432a","setApprovalForAll(address,bool)":"a22cb465","setBaseURI(string)":"55f804b3","supportsInterface(bytes4)":"01ffc9a7","uri(uint256)":"0e89341c"},"id":60}