{"abi":[{"type":"constructor","inputs":[{"name":"_priceFeed","type":"address","internalType":"address"}],"stateMutability":"nonpayable"},{"type":"function","name":"lastPrediction","inputs":[],"outputs":[{"name":"","type":"uint256","internalType":"uint256"}],"stateMutability":"view"},{"type":"function","name":"predictEDUPrice","inputs":[],"outputs":[],"stateMutability":"nonpayable"}],"bytecode":{"object":"0x608060405234801561000f575f5ffd5b50604051610471380380610471833981810160405281019061003191906100d4565b805f5f6101000a81548173ffffffffffffffffffffffffffffffffffffffff021916908373ffffffffffffffffffffffffffffffffffffffff160217905550506100ff565b5f5ffd5b5f73ffffffffffffffffffffffffffffffffffffffff82169050919050565b5f6100a38261007a565b9050919050565b6100b381610099565b81146100bd575f5ffd5b50565b5f815190506100ce816100aa565b92915050565b5f602082840312156100e9576100e8610076565b5b5f6100f6848285016100c0565b91505092915050565b6103658061010c5f395ff3fe608060405234801561000f575f5ffd5b5060043610610034575f3560e01c80636c11514514610038578063b77abaf014610056575b5f5ffd5b610040610060565b60405161004d9190610134565b60405180910390f35b61005e610066565b005b60015481565b5f5f5f9054906101000a900473ffffffffffffffffffffffffffffffffffffffff1673ffffffffffffffffffffffffffffffffffffffff1663feaf968c6040518163ffffffff1660e01b815260040160a060405180830381865afa1580156100d0573d5f5f3e3d5ffd5b505050506040513d601f19601f820116820180604052508101906100f491906101ed565b505050915050600a600f826101099190610291565b61011391906102ff565b60018190555050565b5f819050919050565b61012e8161011c565b82525050565b5f6020820190506101475f830184610125565b92915050565b5f5ffd5b5f69ffffffffffffffffffff82169050919050565b61016f81610151565b8114610179575f5ffd5b50565b5f8151905061018a81610166565b92915050565b5f819050919050565b6101a281610190565b81146101ac575f5ffd5b50565b5f815190506101bd81610199565b92915050565b6101cc8161011c565b81146101d6575f5ffd5b50565b5f815190506101e7816101c3565b92915050565b5f5f5f5f5f60a086880312156102065761020561014d565b5b5f6102138882890161017c565b9550506020610224888289016101af565b9450506040610235888289016101d9565b9350506060610246888289016101d9565b92505060806102578882890161017c565b9150509295509295909350565b7f4e487b71000000000000000000000000000000000000000000000000000000005f52601160045260245ffd5b5f61029b8261011c565b91506102a68361011c565b92508282026102b48161011c565b915082820484148315176102cb576102ca610264565b5b5092915050565b7f4e487b71000000000000000000000000000000000000000000000000000000005f52601260045260245ffd5b5f6103098261011c565b91506103148361011c565b925082610324576103236102d2565b5b82820490509291505056fea2646970667358221220a0098dee5dcf4d909df149486b81d920aee1411f51206e5209b43cdaf7938cd664736f6c634300081e0033","linkReferences":{}},"methodIdentifiers":{"lastPrediction()":"6c115145","predictEDUPrice()":"b77abaf0"},"id":67}