{"abi":[{"type":"constructor","inputs":[{"name":"_priceFeed","type":"address","internalType":"address"}],"stateMutability":"nonpayable"},{"type":"function","name":"STALE_DELAY","inputs":[],"outputs":[{"name":"","type":"uint256","internalType":"uint256"}],"stateMutability":"view"},{"type":"function","name":"getEDUPrice","inputs":[],"outputs":[{"name":"","type":"int256","internalType":"int256"}],"stateMutability":"view"},{"type":"function","name":"lastRoundId","inputs":[],"outputs":[{"name":"","type":"uint80","internalType":"uint80"}],"stateMutability":"view"},{"type":"function","name":"updateRoundId","inputs":[],"outputs":[],"stateMutability":"nonpayable"}],"bytecode":{"object":"0x608060405234801561000f575f5ffd5b50604051610ade380380610ade83398181016040528101906100319190610203565b5f73ffffffffffffffffffffffffffffffffffffffff168173ffffffffffffffffffffffffffffffffffffffff160361009f576040517f08c379a000000000000000000000000000000000000000000000000000000000815260040161009690610288565b60405180910390fd5b805f5f6101000a81548173ffffffffffffffffffffffffffffffffffffffff021916908373ffffffffffffffffffffffffffffffffffffffff1602179055505f5f5f9054906101000a900473ffffffffffffffffffffffffffffffffffffffff1673ffffffffffffffffffffffffffffffffffffffff1663feaf968c6040518163ffffffff1660e01b815260040160a060405180830381865afa158015610148573d5f5f3e3d5ffd5b505050506040513d601f19601f8201168201806040525081019061016c919061034b565b505050509050805f60146101000a81548169ffffffffffffffffffff021916908369ffffffffffffffffffff16021790555050506103c2565b5f5ffd5b5f73ffffffffffffffffffffffffffffffffffffffff82169050919050565b5f6101d2826101a9565b9050919050565b6101e2816101c8565b81146101ec575f5ffd5b50565b5f815190506101fd816101d9565b92915050565b5f60208284031215610218576102176101a5565b5b5f610225848285016101ef565b91505092915050565b5f82825260208201905092915050565b7f496e76616c6964206f7261636c652061646472657373000000000000000000005f82015250565b5f61027260168361022e565b915061027d8261023e565b602082019050919050565b5f6020820190508181035f83015261029f81610266565b9050919050565b5f69ffffffffffffffffffff82169050919050565b6102c4816102a6565b81146102ce575f5ffd5b50565b5f815190506102df816102bb565b92915050565b5f819050919050565b6102f7816102e5565b8114610301575f5ffd5b50565b5f81519050610312816102ee565b92915050565b5f819050919050565b61032a81610318565b8114610334575f5ffd5b50565b5f8151905061034581610321565b92915050565b5f5f5f5f5f60a08688031215610364576103636101a5565b5b5f610371888289016102d1565b955050602061038288828901610304565b945050604061039388828901610337565b93505060606103a488828901610337565b92505060806103b5888289016102d1565b9150509295509295909350565b61070f806103cf5f395ff3fe608060405234801561000f575f5ffd5b506004361061004a575f3560e01c80631305a5141461004e578063348236a114610058578063388ca80f14610076578063a1f3888a14610094575b5f5ffd5b6100566100b2565b005b610060610175565b60405161006d91906103b1565b60405180910390f35b61007e610378565b60405161008b91906103ee565b60405180910390f35b61009c610393565b6040516100a9919061041f565b60405180910390f35b5f5f5f9054906101000a900473ffffffffffffffffffffffffffffffffffffffff1673ffffffffffffffffffffffffffffffffffffffff1663feaf968c6040518163ffffffff1660e01b815260040160a060405180830381865afa15801561011c573d5f5f3e3d5ffd5b505050506040513d601f19601f8201168201806040525081019061014091906104ba565b505050509050805f60146101000a81548169ffffffffffffffffffff021916908369ffffffffffffffffffff16021790555050565b5f5f5f5f5f5f5f9054906101000a900473ffffffffffffffffffffffffffffffffffffffff1673ffffffffffffffffffffffffffffffffffffffff1663feaf968c6040518163ffffffff1660e01b815260040160a060405180830381865afa1580156101e3573d5f5f3e3d5ffd5b505050506040513d601f19601f8201168201806040525081019061020791906104ba565b945094505093509350610e10824261021f919061055e565b1115610260576040517f08c379a0000000000000000000000000000000000000000000000000000000008152600401610257906105eb565b60405180910390fd5b8369ffffffffffffffffffff168169ffffffffffffffffffff1610156102bb576040517f08c379a00000000000000000000000000000000000000000000000000000000081526004016102b290610653565b60405180910390fd5b5f60149054906101000a900469ffffffffffffffffffff1669ffffffffffffffffffff168469ffffffffffffffffffff161161032c576040517f08c379a000000000000000000000000000000000000000000000000000000000815260040161032390610653565b60405180910390fd5b5f831361036e576040517f08c379a0000000000000000000000000000000000000000000000000000000008152600401610365906106bb565b60405180910390fd5b8294505050505090565b5f60149054906101000a900469ffffffffffffffffffff1681565b610e1081565b5f819050919050565b6103ab81610399565b82525050565b5f6020820190506103c45f8301846103a2565b92915050565b5f69ffffffffffffffffffff82169050919050565b6103e8816103ca565b82525050565b5f6020820190506104015f8301846103df565b92915050565b5f819050919050565b61041981610407565b82525050565b5f6020820190506104325f830184610410565b92915050565b5f5ffd5b610445816103ca565b811461044f575f5ffd5b50565b5f815190506104608161043c565b92915050565b61046f81610399565b8114610479575f5ffd5b50565b5f8151905061048a81610466565b92915050565b61049981610407565b81146104a3575f5ffd5b50565b5f815190506104b481610490565b92915050565b5f5f5f5f5f60a086880312156104d3576104d2610438565b5b5f6104e088828901610452565b95505060206104f18882890161047c565b9450506040610502888289016104a6565b9350506060610513888289016104a6565b925050608061052488828901610452565b9150509295509295909350565b7f4e487b71000000000000000000000000000000000000000000000000000000005f52601160045260245ffd5b5f61056882610407565b915061057383610407565b925082820390508181111561058b5761058a610531565b5b92915050565b5f82825260208201905092915050565b7f5374616c652070726963652064617461000000000000000000000000000000005f82015250565b5f6105d5601083610591565b91506105e0826105a1565b602082019050919050565b5f6020820190508181035f830152610602816105c9565b9050919050565b7f5374616c6520726f756e640000000000000000000000000000000000000000005f82015250565b5f61063d600b83610591565b915061064882610609565b602082019050919050565b5f6020820190508181035f83015261066a81610631565b9050919050565b7f496e76616c6964207072696365000000000000000000000000000000000000005f82015250565b5f6106a5600d83610591565b91506106b082610671565b602082019050919050565b5f6020820190508181035f8301526106d281610699565b905091905056fea26469706673582212202d91aa3963913dc47735d5dd6e88df9b309cb65bff7d563326562acac9f32d4264736f6c634300081e0033","linkReferences":{}},"methodIdentifiers":{"STALE_DELAY()":"a1f3888a","getEDUPrice()":"348236a1","lastRoundId()":"388ca80f","updateRoundId()":"1305a514"},"id":68}