{"abi":[{"type":"constructor","inputs":[],"stateMutability":"nonpayable"},{"type":"function","name":"awardAchievement","inputs":[{"name":"student","type":"address","internalType":"address"},{"name":"courseId","type":"uint256","internalType":"uint256"},{"name":"ipfsHash","type":"string","internalType":"string"}],"outputs":[],"stateMutability":"nonpayable"},{"type":"function","name":"balanceOf","inputs":[{"name":"account","type":"address","internalType":"address"},{"name":"id","type":"uint256","internalType":"uint256"}],"outputs":[{"name":"","type":"uint256","internalType":"uint256"}],"stateMutability":"view"},{"type":"function","name":"balanceOfBatch","inputs":[{"name":"accounts","type":"address[]","internalType":"address[]"},{"name":"ids","type":"uint256[]","internalType":"uint256[]"}],"outputs":[{"name":"","type":"uint256[]","internalType":"uint256[]"}],"stateMutability":"view"},{"type":"function","name":"hasAchievement","inputs":[{"name":"","type":"address","internalType":"address"},{"name":"","type":"uint256","internalType":"uint256"}],"outputs":[{"name":"","type":"bool","internalType":"bool"}],"stateMutability":"view"},{"type":"function","name":"isApprovedForAll","inputs":[{"name":"account","type":"address","internalType":"address"},{"name":"operator","type":"address","internalType":"address"}],"outputs":[{"name":"","type":"bool","internalType":"bool"}],"stateMutability":"view"},{"type":"function","name":"safeBatchTransferFrom","inputs":[{"name":"from","type":"address","internalType":"address"},{"name":"to","type":"address","internalType":"address"},{"name":"ids","type":"uint256[]","internalType":"uint256[]"},{"name":"values","type":"uint256[]","internalType":"uint256[]"},{"name":"data","type":"bytes","internalType":"bytes"}],"outputs":[],"stateMutability":"nonpayable"},{"type":"function","name":"safeTransferFrom","inputs":[{"name":"from","type":"address","internalType":"address"},{"name":"to","type":"address","internalType":"address"},{"name":"id","type":"uint256","internalType":"uint256"},{"name":"value","type":"uint256","internalType":"uint256"},{"name":"data","type":"bytes","internalType":"bytes"}],"outputs":[],"stateMutability":"nonpayable"},{"type":"function","name":"setApprovalForAll","inputs":[{"name":"operator","type":"address","internalType":"address"},{"name":"approved","type":"bool","internalType":"bool"}],"outputs":[],"stateMutability":"nonpayable"},{"type":"function","name":"supportsInterface","inputs":[{"name":"interfaceId","type":"bytes4","internalType":"bytes4"}],"outputs":[{"name":"","type":"bool","internalType":"bool"}],"stateMutability":"view"},{"type":"function","name":"uri","inputs":[{"name":"","type":"uint256","internalType":"uint256"}],"outputs":[{"name":"","type":"string","internalType":"string"}],"stateMutability":"view"},{"type":"event","name":"ApprovalForAll","inputs":[{"name":"account","type":"address","indexed":true,"internalType":"address"},{"name":"operator","type":"address","indexed":true,"internalType":"address"},{"name":"approved","type":"bool","indexed":false,"internalType":"bool"}],"anonymous":false},{"type":"event","name":"TransferBatch","inputs":[{"name":"operator","type":"address","indexed":true,"internalType":"address"},{"name":"from","type":"address","indexed":true,"internalType":"address"},{"name":"to","type":"address","indexed":true,"internalType":"address"},{"name":"ids","type":"uint256[]","indexed":false,"internalType":"uint256[]"},{"name":"values","type":"uint256[]","indexed":false,"internalType":"uint256[]"}],"anonymous":false},{"type":"event","name":"TransferSingle","inputs":[{"name":"operator","type":"address","indexed":true,"internalType":"address"},{"name":"from","type":"address","indexed":true,"internalType":"address"},{"name":"to","type":"address","indexed":true,"internalType":"address"},{"name":"id","type":"uint256","indexed":false,"internalType":"uint256"},{"name":"value","type":"uint256","indexed":false,"internalType":"uint256"}],"anonymous":false},{"type":"event","name":"URI","inputs":[{"name":"value","type":"string","indexed":false,"internalType":"string"},{"name":"id","type":"uint256","indexed":true,"internalType":"uint256"}],"anonymous":false},{"type":"error","name":"ERC1155InsufficientBalance","inputs":[{"name":"sender","type":"address","internalType":"address"},{"name":"balance","type":"uint256","internalType":"uint256"},{"name":"needed","type":"uint256","internalType":"uint256"},{"name":"tokenId","type":"uint256","internalType":"uint256"}]},{"type":"error","name":"ERC1155InvalidApprover","inputs":[{"name":"approver","type":"address","internalType":"address"}]},{"type":"error","name":"ERC1155InvalidArrayLength","inputs":[{"name":"idsLength","type":"uint256","internalType":"uint256"},{"name":"valuesLength","type":"uint256","internalType":"uint256"}]},{"type":"error","name":"ERC1155InvalidOperator","inputs":[{"name":"operator","type":"address","internalType":"address"}]},{"type":"error","name":"ERC1155InvalidReceiver","inputs":[{"name":"receiver","type":"address","internalType":"address"}]},{"type":"error","name":"ERC1155InvalidSender","inputs":[{"name":"sender","type":"address","internalType":"address"}]},{"type":"error","name":"ERC1155MissingApprovalForAll","inputs":[{"name":"operator","type":"address","internalType":"address"},{"name":"owner","type":"address","internalType":"address"}]}],"bytecode":{"object":"0x608060405234801561000f575f5ffd5b5060405180602001604052805f81525061002e8161003460201b60201c565b50610353565b80600290816100439190610284565b5050565b5f81519050919050565b7f4e487b71000000000000000000000000000000000000000000000000000000005f52604160045260245ffd5b7f4e487b71000000000000000000000000000000000000000000000000000000005f52602260045260245ffd5b5f60028204905060018216806100c257607f821691505b6020821081036100d5576100d461007e565b5b50919050565b5f819050815f5260205f209050919050565b5f6020601f8301049050919050565b5f82821b905092915050565b5f600883026101377fffffffffffffffffffffffffffffffffffffffffffffffffffffffffffffffff826100fc565b61014186836100fc565b95508019841693508086168417925050509392505050565b5f819050919050565b5f819050919050565b5f61018561018061017b84610159565b610162565b610159565b9050919050565b5f819050919050565b61019e8361016b565b6101b26101aa8261018c565b848454610108565b825550505050565b5f5f905090565b6101c96101ba565b6101d4818484610195565b505050565b5b818110156101f7576101ec5f826101c1565b6001810190506101da565b5050565b601f82111561023c5761020d816100db565b610216846100ed565b81016020851015610225578190505b610239610231856100ed565b8301826101d9565b50505b505050565b5f82821c905092915050565b5f61025c5f1984600802610241565b1980831691505092915050565b5f610274838361024d565b9150826002028217905092915050565b61028d82610047565b67ffffffffffffffff8111156102a6576102a5610051565b5b6102b082546100ab565b6102bb8282856101fb565b5f60209050601f8311600181146102ec575f84156102da578287015190505b6102e48582610269565b86555061034b565b601f1984166102fa866100db565b5f5b82811015610321578489015182556001820191506020850194506020810190506102fc565b8683101561033e578489015161033a601f89168261024d565b8355505b6001600288020188555050505b505050505050565b6121c9806103605f395ff3fe608060405234801561000f575f5ffd5b506004361061009b575f3560e01c8063a22cb46511610064578063a22cb4651461017b578063ab5eba1614610197578063e4839aea146101c7578063e985e9c5146101e3578063f242432a146102135761009b565b8062fdd58e1461009f57806301ffc9a7146100cf5780630e89341c146100ff5780632eb2c2d61461012f5780634e1273f41461014b575b5f5ffd5b6100b960048036038101906100b49190611525565b61022f565b6040516100c69190611572565b60405180910390f35b6100e960048036038101906100e491906115e0565b610284565b6040516100f69190611625565b60405180910390f35b6101196004803603810190610114919061163e565b610365565b60405161012691906116d9565b60405180910390f35b610149600480360381019061014491906118e9565b6103f7565b005b61016560048036038101906101609190611a74565b61049e565b6040516101729190611ba1565b60405180910390f35b61019560048036038101906101909190611beb565b6105a8565b005b6101b160048036038101906101ac9190611525565b6105be565b6040516101be9190611625565b60405180910390f35b6101e160048036038101906101dc9190611cc7565b6105e8565b005b6101fd60048036038101906101f89190611d33565b6106f7565b60405161020a9190611625565b60405180910390f35b61022d60048036038101906102289190611d71565b610785565b005b5f5f5f8381526020019081526020015f205f8473ffffffffffffffffffffffffffffffffffffffff1673ffffffffffffffffffffffffffffffffffffffff1681526020019081526020015f2054905092915050565b5f7fd9b67a26000000000000000000000000000000000000000000000000000000007bffffffffffffffffffffffffffffffffffffffffffffffffffffffff1916827bffffffffffffffffffffffffffffffffffffffffffffffffffffffff1916148061034e57507f0e89341c000000000000000000000000000000000000000000000000000000007bffffffffffffffffffffffffffffffffffffffffffffffffffffffff1916827bffffffffffffffffffffffffffffffffffffffffffffffffffffffff1916145b8061035e575061035d8261082c565b5b9050919050565b60606002805461037490611e31565b80601f01602080910402602001604051908101604052809291908181526020018280546103a090611e31565b80156103eb5780601f106103c2576101008083540402835291602001916103eb565b820191905f5260205f20905b8154815290600101906020018083116103ce57829003601f168201915b50505050509050919050565b5f610400610895565b90508073ffffffffffffffffffffffffffffffffffffffff168673ffffffffffffffffffffffffffffffffffffffff1614158015610445575061044386826106f7565b155b156104895780866040517fe237d922000000000000000000000000000000000000000000000000000000008152600401610480929190611e70565b60405180910390fd5b610496868686868661089c565b505050505050565b606081518351146104ea57815183516040517f5b0599910000000000000000000000000000000000000000000000000000000081526004016104e1929190611e97565b60405180910390fd5b5f835167ffffffffffffffff811115610506576105056116fd565b5b6040519080825280602002602001820160405280156105345781602001602082028036833780820191505090505b5090505f5f90505b845181101561059d5761057361055b828761099090919063ffffffff16565b61056e83876109a390919063ffffffff16565b61022f565b82828151811061058657610585611ebe565b5b60200260200101818152505080600101905061053c565b508091505092915050565b6105ba6105b3610895565b83836109b6565b5050565b6003602052815f5260405f20602052805f5260405f205f915091509054906101000a900460ff1681565b60035f8473ffffffffffffffffffffffffffffffffffffffff1673ffffffffffffffffffffffffffffffffffffffff1681526020019081526020015f205f8381526020019081526020015f205f9054906101000a900460ff1615610681576040517f08c379a000000000000000000000000000000000000000000000000000000000815260040161067890611f35565b60405180910390fd5b61068e8383600184610b1f565b600160035f8573ffffffffffffffffffffffffffffffffffffffff1673ffffffffffffffffffffffffffffffffffffffff1681526020019081526020015f205f8481526020019081526020015f205f6101000a81548160ff021916908315150217905550505050565b5f60015f8473ffffffffffffffffffffffffffffffffffffffff1673ffffffffffffffffffffffffffffffffffffffff1681526020019081526020015f205f8373ffffffffffffffffffffffffffffffffffffffff1673ffffffffffffffffffffffffffffffffffffffff1681526020019081526020015f205f9054906101000a900460ff16905092915050565b5f61078e610895565b90508073ffffffffffffffffffffffffffffffffffffffff168673ffffffffffffffffffffffffffffffffffffffff16141580156107d357506107d186826106f7565b155b156108175780866040517fe237d92200000000000000000000000000000000000000000000000000000000815260040161080e929190611e70565b60405180910390fd5b6108248686868686610bb4565b505050505050565b5f7f01ffc9a7000000000000000000000000000000000000000000000000000000007bffffffffffffffffffffffffffffffffffffffffffffffffffffffff1916827bffffffffffffffffffffffffffffffffffffffffffffffffffffffff1916149050919050565b5f33905090565b5f73ffffffffffffffffffffffffffffffffffffffff168473ffffffffffffffffffffffffffffffffffffffff160361090c575f6040517f57f447ce0000000000000000000000000000000000000000000000000000000081526004016109039190611f53565b60405180910390fd5b5f73ffffffffffffffffffffffffffffffffffffffff168573ffffffffffffffffffffffffffffffffffffffff160361097c575f6040517f01a835140000000000000000000000000000000000000000000000000000000081526004016109739190611f53565b60405180910390fd5b6109898585858585610cba565b5050505050565b5f60208202602084010151905092915050565b5f60208202602084010151905092915050565b5f73ffffffffffffffffffffffffffffffffffffffff168273ffffffffffffffffffffffffffffffffffffffff1603610a26575f6040517fced3e100000000000000000000000000000000000000000000000000000000008152600401610a1d9190611f53565b60405180910390fd5b8060015f8573ffffffffffffffffffffffffffffffffffffffff1673ffffffffffffffffffffffffffffffffffffffff1681526020019081526020015f205f8473ffffffffffffffffffffffffffffffffffffffff1673ffffffffffffffffffffffffffffffffffffffff1681526020019081526020015f205f6101000a81548160ff0219169083151502179055508173ffffffffffffffffffffffffffffffffffffffff168373ffffffffffffffffffffffffffffffffffffffff167f17307eab39ab6107e8899845ad3d59bd9653f200f220920489ca2b5937696c3183604051610b129190611625565b60405180910390a3505050565b5f73ffffffffffffffffffffffffffffffffffffffff168473ffffffffffffffffffffffffffffffffffffffff1603610b8f575f6040517f57f447ce000000000000000000000000000000000000000000000000000000008152600401610b869190611f53565b60405180910390fd5b5f5f610b9b8585610d66565b91509150610bac5f87848487610cba565b505050505050565b5f73ffffffffffffffffffffffffffffffffffffffff168473ffffffffffffffffffffffffffffffffffffffff1603610c24575f6040517f57f447ce000000000000000000000000000000000000000000000000000000008152600401610c1b9190611f53565b60405180910390fd5b5f73ffffffffffffffffffffffffffffffffffffffff168573ffffffffffffffffffffffffffffffffffffffff1603610c94575f6040517f01a83514000000000000000000000000000000000000000000000000000000008152600401610c8b9190611f53565b60405180910390fd5b5f5f610ca08585610d66565b91509150610cb18787848487610cba565b50505050505050565b610cc685858585610d96565b5f73ffffffffffffffffffffffffffffffffffffffff168473ffffffffffffffffffffffffffffffffffffffff1614610d5f575f610d02610895565b90506001845103610d4e575f610d215f866109a390919063ffffffff16565b90505f610d375f866109a390919063ffffffff16565b9050610d47838989858589611129565b5050610d5d565b610d5c8187878787876112d8565b5b505b5050505050565b60608060405191506001825283602083015260408201905060018152826020820152604081016040529250929050565b8051825114610de057815181516040517f5b059991000000000000000000000000000000000000000000000000000000008152600401610dd7929190611e97565b60405180910390fd5b5f610de9610895565b90505f5f90505b8351811015610fe8575f610e0d82866109a390919063ffffffff16565b90505f610e2383866109a390919063ffffffff16565b90505f73ffffffffffffffffffffffffffffffffffffffff168873ffffffffffffffffffffffffffffffffffffffff1614610f46575f5f5f8481526020019081526020015f205f8a73ffffffffffffffffffffffffffffffffffffffff1673ffffffffffffffffffffffffffffffffffffffff1681526020019081526020015f2054905081811015610ef257888183856040517f03dee4c5000000000000000000000000000000000000000000000000000000008152600401610ee99493929190611f6c565b60405180910390fd5b8181035f5f8581526020019081526020015f205f8b73ffffffffffffffffffffffffffffffffffffffff1673ffffffffffffffffffffffffffffffffffffffff1681526020019081526020015f2081905550505b5f73ffffffffffffffffffffffffffffffffffffffff168773ffffffffffffffffffffffffffffffffffffffff1614610fdb57805f5f8481526020019081526020015f205f8973ffffffffffffffffffffffffffffffffffffffff1673ffffffffffffffffffffffffffffffffffffffff1681526020019081526020015f205f828254610fd39190611fdc565b925050819055505b5050806001019050610df0565b5060018351036110a3575f6110065f856109a390919063ffffffff16565b90505f61101c5f856109a390919063ffffffff16565b90508573ffffffffffffffffffffffffffffffffffffffff168773ffffffffffffffffffffffffffffffffffffffff168473ffffffffffffffffffffffffffffffffffffffff167fc3d58168c5ae7397731d063d5bbf3d657854427343f4c083240f7aacaa2d0f628585604051611094929190611e97565b60405180910390a45050611122565b8373ffffffffffffffffffffffffffffffffffffffff168573ffffffffffffffffffffffffffffffffffffffff168273ffffffffffffffffffffffffffffffffffffffff167f4a39dc06d4c0dbc64b70af90fd698a233a518aa5d07e595d983b8c0526c8f7fb868660405161111992919061200f565b60405180910390a45b5050505050565b5f8473ffffffffffffffffffffffffffffffffffffffff163b11156112d0578373ffffffffffffffffffffffffffffffffffffffff1663f23a6e6187878686866040518663ffffffff1660e01b8152600401611189959493929190612096565b6020604051808303815f875af19250505080156111c457506040513d601f19601f820116820180604052508101906111c19190612102565b60015b611245573d805f81146111f2576040519150601f19603f3d011682016040523d82523d5f602084013e6111f7565b606091505b505f81510361123d57846040517f57f447ce0000000000000000000000000000000000000000000000000000000081526004016112349190611f53565b60405180910390fd5b805181602001fd5b63f23a6e6160e01b7bffffffffffffffffffffffffffffffffffffffffffffffffffffffff1916817bffffffffffffffffffffffffffffffffffffffffffffffffffffffff1916146112ce57846040517f57f447ce0000000000000000000000000000000000000000000000000000000081526004016112c59190611f53565b60405180910390fd5b505b505050505050565b5f8473ffffffffffffffffffffffffffffffffffffffff163b111561147f578373ffffffffffffffffffffffffffffffffffffffff1663bc197c8187878686866040518663ffffffff1660e01b815260040161133895949392919061212d565b6020604051808303815f875af192505050801561137357506040513d601f19601f820116820180604052508101906113709190612102565b60015b6113f4573d805f81146113a1576040519150601f19603f3d011682016040523d82523d5f602084013e6113a6565b606091505b505f8151036113ec57846040517f57f447ce0000000000000000000000000000000000000000000000000000000081526004016113e39190611f53565b60405180910390fd5b805181602001fd5b63bc197c8160e01b7bffffffffffffffffffffffffffffffffffffffffffffffffffffffff1916817bffffffffffffffffffffffffffffffffffffffffffffffffffffffff19161461147d57846040517f57f447ce0000000000000000000000000000000000000000000000000000000081526004016114749190611f53565b60405180910390fd5b505b505050505050565b5f604051905090565b5f5ffd5b5f5ffd5b5f73ffffffffffffffffffffffffffffffffffffffff82169050919050565b5f6114c182611498565b9050919050565b6114d1816114b7565b81146114db575f5ffd5b50565b5f813590506114ec816114c8565b92915050565b5f819050919050565b611504816114f2565b811461150e575f5ffd5b50565b5f8135905061151f816114fb565b92915050565b5f5f6040838503121561153b5761153a611490565b5b5f611548858286016114de565b925050602061155985828601611511565b9150509250929050565b61156c816114f2565b82525050565b5f6020820190506115855f830184611563565b92915050565b5f7fffffffff0000000000000000000000000000000000000000000000000000000082169050919050565b6115bf8161158b565b81146115c9575f5ffd5b50565b5f813590506115da816115b6565b92915050565b5f602082840312156115f5576115f4611490565b5b5f611602848285016115cc565b91505092915050565b5f8115159050919050565b61161f8161160b565b82525050565b5f6020820190506116385f830184611616565b92915050565b5f6020828403121561165357611652611490565b5b5f61166084828501611511565b91505092915050565b5f81519050919050565b5f82825260208201905092915050565b8281835e5f83830152505050565b5f601f19601f8301169050919050565b5f6116ab82611669565b6116b58185611673565b93506116c5818560208601611683565b6116ce81611691565b840191505092915050565b5f6020820190508181035f8301526116f181846116a1565b905092915050565b5f5ffd5b7f4e487b71000000000000000000000000000000000000000000000000000000005f52604160045260245ffd5b61173382611691565b810181811067ffffffffffffffff82111715611752576117516116fd565b5b80604052505050565b5f611764611487565b9050611770828261172a565b919050565b5f67ffffffffffffffff82111561178f5761178e6116fd565b5b602082029050602081019050919050565b5f5ffd5b5f6117b66117b184611775565b61175b565b905080838252602082019050602084028301858111156117d9576117d86117a0565b5b835b8181101561180257806117ee8882611511565b8452602084019350506020810190506117db565b5050509392505050565b5f82601f8301126118205761181f6116f9565b5b81356118308482602086016117a4565b91505092915050565b5f5ffd5b5f67ffffffffffffffff821115611857576118566116fd565b5b61186082611691565b9050602081019050919050565b828183375f83830152505050565b5f61188d6118888461183d565b61175b565b9050828152602081018484840111156118a9576118a8611839565b5b6118b484828561186d565b509392505050565b5f82601f8301126118d0576118cf6116f9565b5b81356118e084826020860161187b565b91505092915050565b5f5f5f5f5f60a0868803121561190257611901611490565b5b5f61190f888289016114de565b9550506020611920888289016114de565b945050604086013567ffffffffffffffff81111561194157611940611494565b5b61194d8882890161180c565b935050606086013567ffffffffffffffff81111561196e5761196d611494565b5b61197a8882890161180c565b925050608086013567ffffffffffffffff81111561199b5761199a611494565b5b6119a7888289016118bc565b9150509295509295909350565b5f67ffffffffffffffff8211156119ce576119cd6116fd565b5b602082029050602081019050919050565b5f6119f16119ec846119b4565b61175b565b90508083825260208201905060208402830185811115611a1457611a136117a0565b5b835b81811015611a3d5780611a2988826114de565b845260208401935050602081019050611a16565b5050509392505050565b5f82601f830112611a5b57611a5a6116f9565b5b8135611a6b8482602086016119df565b91505092915050565b5f5f60408385031215611a8a57611a89611490565b5b5f83013567ffffffffffffffff811115611aa757611aa6611494565b5b611ab385828601611a47565b925050602083013567ffffffffffffffff811115611ad457611ad3611494565b5b611ae08582860161180c565b9150509250929050565b5f81519050919050565b5f82825260208201905092915050565b5f819050602082019050919050565b611b1c816114f2565b82525050565b5f611b2d8383611b13565b60208301905092915050565b5f602082019050919050565b5f611b4f82611aea565b611b598185611af4565b9350611b6483611b04565b805f5b83811015611b94578151611b7b8882611b22565b9750611b8683611b39565b925050600181019050611b67565b5085935050505092915050565b5f6020820190508181035f830152611bb98184611b45565b905092915050565b611bca8161160b565b8114611bd4575f5ffd5b50565b5f81359050611be581611bc1565b92915050565b5f5f60408385031215611c0157611c00611490565b5b5f611c0e858286016114de565b9250506020611c1f85828601611bd7565b9150509250929050565b5f67ffffffffffffffff821115611c4357611c426116fd565b5b611c4c82611691565b9050602081019050919050565b5f611c6b611c6684611c29565b61175b565b905082815260208101848484011115611c8757611c86611839565b5b611c9284828561186d565b509392505050565b5f82601f830112611cae57611cad6116f9565b5b8135611cbe848260208601611c59565b91505092915050565b5f5f5f60608486031215611cde57611cdd611490565b5b5f611ceb868287016114de565b9350506020611cfc86828701611511565b925050604084013567ffffffffffffffff811115611d1d57611d1c611494565b5b611d2986828701611c9a565b9150509250925092565b5f5f60408385031215611d4957611d48611490565b5b5f611d56858286016114de565b9250506020611d67858286016114de565b9150509250929050565b5f5f5f5f5f60a08688031215611d8a57611d89611490565b5b5f611d97888289016114de565b9550506020611da8888289016114de565b9450506040611db988828901611511565b9350506060611dca88828901611511565b925050608086013567ffffffffffffffff811115611deb57611dea611494565b5b611df7888289016118bc565b9150509295509295909350565b7f4e487b71000000000000000000000000000000000000000000000000000000005f52602260045260245ffd5b5f6002820490506001821680611e4857607f821691505b602082108103611e5b57611e5a611e04565b5b50919050565b611e6a816114b7565b82525050565b5f604082019050611e835f830185611e61565b611e906020830184611e61565b9392505050565b5f604082019050611eaa5f830185611563565b611eb76020830184611563565b9392505050565b7f4e487b71000000000000000000000000000000000000000000000000000000005f52603260045260245ffd5b7f416c7265616479206177617264656400000000000000000000000000000000005f82015250565b5f611f1f600f83611673565b9150611f2a82611eeb565b602082019050919050565b5f6020820190508181035f830152611f4c81611f13565b9050919050565b5f602082019050611f665f830184611e61565b92915050565b5f608082019050611f7f5f830187611e61565b611f8c6020830186611563565b611f996040830185611563565b611fa66060830184611563565b95945050505050565b7f4e487b71000000000000000000000000000000000000000000000000000000005f52601160045260245ffd5b5f611fe6826114f2565b9150611ff1836114f2565b925082820190508082111561200957612008611faf565b5b92915050565b5f6040820190508181035f8301526120278185611b45565b9050818103602083015261203b8184611b45565b90509392505050565b5f81519050919050565b5f82825260208201905092915050565b5f61206882612044565b612072818561204e565b9350612082818560208601611683565b61208b81611691565b840191505092915050565b5f60a0820190506120a95f830188611e61565b6120b66020830187611e61565b6120c36040830186611563565b6120d06060830185611563565b81810360808301526120e2818461205e565b90509695505050505050565b5f815190506120fc816115b6565b92915050565b5f6020828403121561211757612116611490565b5b5f612124848285016120ee565b91505092915050565b5f60a0820190506121405f830188611e61565b61214d6020830187611e61565b818103604083015261215f8186611b45565b905081810360608301526121738185611b45565b90508181036080830152612187818461205e565b9050969550505050505056fea2646970667358221220eb3b9b176d8ec699c4bb9e32d666f2f8b449784c9edbd65ef9ff4d74b56ec59c64736f6c634300081e0033","linkReferences":{}},"methodIdentifiers":{"awardAchievement(address,uint256,string)":"e4839aea","balanceOf(address,uint256)":"00fdd58e","balanceOfBatch(address[],uint256[])":"4e1273f4","hasAchievement(address,uint256)":"ab5eba16","isApprovedForAll(address,address)":"e985e9c5","safeBatchTransferFrom(address,address,uint256[],uint256[],bytes)":"2eb2c2d6","safeTransferFrom(address,address,uint256,uint256,bytes)":"f242432a","setApprovalForAll(address,bool)":"a22cb465","supportsInterface(bytes4)":"01ffc9a7","uri(uint256)":"0e89341c"},"id":65}