{"abi":[{"type":"constructor","inputs":[],"stateMutability":"nonpayable"},{"type":"function","name":"createProject","inputs":[{"name":"tokenId","type":"uint256","internalType":"uint256"},{"name":"royaltyRate","type":"uint256","internalType":"uint256"},{"name":"fundingGoal","type":"uint256","internalType":"uint256"}],"outputs":[],"stateMutability":"nonpayable"},{"type":"function","name":"owner","inputs":[],"outputs":[{"name":"","type":"address","internalType":"address"}],"stateMutability":"view"},{"type":"function","name":"projects","inputs":[{"name":"","type":"uint256","internalType":"uint256"}],"outputs":[{"name":"royaltyRate","type":"uint256","internalType":"uint256"},{"name":"fundingGoal","type":"uint256","internalType":"uint256"}],"stateMutability":"view"},{"type":"function","name":"renounceOwnership","inputs":[],"outputs":[],"stateMutability":"nonpayable"},{"type":"function","name":"transferOwnership","inputs":[{"name":"newOwner","type":"address","internalType":"address"}],"outputs":[],"stateMutability":"nonpayable"},{"type":"event","name":"OwnershipTransferred","inputs":[{"name":"previousOwner","type":"address","indexed":true,"internalType":"address"},{"name":"newOwner","type":"address","indexed":true,"internalType":"address"}],"anonymous":false},{"type":"error","name":"OwnableInvalidOwner","inputs":[{"name":"owner","type":"address","internalType":"address"}]},{"type":"error","name":"OwnableUnauthorizedAccount","inputs":[{"name":"account","type":"address","internalType":"address"}]}],"bytecode":{"object":"0x608060405234801561000f575f5ffd5b50335f73ffffffffffffffffffffffffffffffffffffffff168173ffffffffffffffffffffffffffffffffffffffff1603610081575f6040517f1e4fbdf70000000000000000000000000000000000000000000000000000000081526004016100789190610196565b60405180910390fd5b6100908161009660201b60201c565b506101af565b5f5f5f9054906101000a900473ffffffffffffffffffffffffffffffffffffffff169050815f5f6101000a81548173ffffffffffffffffffffffffffffffffffffffff021916908373ffffffffffffffffffffffffffffffffffffffff1602179055508173ffffffffffffffffffffffffffffffffffffffff168173ffffffffffffffffffffffffffffffffffffffff167f8be0079c531659141344cd1fd0a4f28419497f9722a3daafe3b4186f6b6457e060405160405180910390a35050565b5f73ffffffffffffffffffffffffffffffffffffffff82169050919050565b5f61018082610157565b9050919050565b61019081610176565b82525050565b5f6020820190506101a95f830184610187565b92915050565b61052a806101bc5f395ff3fe608060405234801561000f575f5ffd5b5060043610610055575f3560e01c8063107046bd14610059578063385aecae1461008a578063715018a6146100a65780638da5cb5b146100b0578063f2fde38b146100ce575b5f5ffd5b610073600480360381019061006e9190610396565b6100ea565b6040516100819291906103d0565b60405180910390f35b6100a4600480360381019061009f91906103f7565b61010a565b005b6100ae610152565b005b6100b8610165565b6040516100c59190610486565b60405180910390f35b6100e860048036038101906100e391906104c9565b61018c565b005b6001602052805f5260405f205f91509050805f0154908060010154905082565b610112610210565b60405180604001604052808381526020018281525060015f8581526020019081526020015f205f820151815f015560208201518160010155905050505050565b61015a610210565b6101635f610297565b565b5f5f5f9054906101000a900473ffffffffffffffffffffffffffffffffffffffff16905090565b610194610210565b5f73ffffffffffffffffffffffffffffffffffffffff168173ffffffffffffffffffffffffffffffffffffffff1603610204575f6040517f1e4fbdf70000000000000000000000000000000000000000000000000000000081526004016101fb9190610486565b60405180910390fd5b61020d81610297565b50565b610218610358565b73ffffffffffffffffffffffffffffffffffffffff16610236610165565b73ffffffffffffffffffffffffffffffffffffffff161461029557610259610358565b6040517f118cdaa700000000000000000000000000000000000000000000000000000000815260040161028c9190610486565b60405180910390fd5b565b5f5f5f9054906101000a900473ffffffffffffffffffffffffffffffffffffffff169050815f5f6101000a81548173ffffffffffffffffffffffffffffffffffffffff021916908373ffffffffffffffffffffffffffffffffffffffff1602179055508173ffffffffffffffffffffffffffffffffffffffff168173ffffffffffffffffffffffffffffffffffffffff167f8be0079c531659141344cd1fd0a4f28419497f9722a3daafe3b4186f6b6457e060405160405180910390a35050565b5f33905090565b5f5ffd5b5f819050919050565b61037581610363565b811461037f575f5ffd5b50565b5f813590506103908161036c565b92915050565b5f602082840312156103ab576103aa61035f565b5b5f6103b884828501610382565b91505092915050565b6103ca81610363565b82525050565b5f6040820190506103e35f8301856103c1565b6103f060208301846103c1565b9392505050565b5f5f5f6060848603121561040e5761040d61035f565b5b5f61041b86828701610382565b935050602061042c86828701610382565b925050604061043d86828701610382565b9150509250925092565b5f73ffffffffffffffffffffffffffffffffffffffff82169050919050565b5f61047082610447565b9050919050565b61048081610466565b82525050565b5f6020820190506104995f830184610477565b92915050565b6104a881610466565b81146104b2575f5ffd5b50565b5f813590506104c38161049f565b92915050565b5f602082840312156104de576104dd61035f565b5b5f6104eb848285016104b5565b9150509291505056fea2646970667358221220084f15dd8c0a6ed7b829dbe5a27343a4e20f3455b5b6ba0891fefc45cd33217264736f6c634300081e0033","linkReferences":{}},"methodIdentifiers":{"createProject(uint256,uint256,uint256)":"385aecae","owner()":"8da5cb5b","projects(uint256)":"107046bd","renounceOwnership()":"715018a6","transferOwnership(address)":"f2fde38b"},"id":68}