{"abi":[{"type":"constructor","inputs":[{"name":"token","type":"address","internalType":"contract IVotes"}],"stateMutability":"nonpayable"},{"type":"receive","stateMutability":"payable"},{"type":"function","name":"BALLOT_TYPEHASH","inputs":[],"outputs":[{"name":"","type":"bytes32","internalType":"bytes32"}],"stateMutability":"view"},{"type":"function","name":"CLOCK_MODE","inputs":[],"outputs":[{"name":"","type":"string","internalType":"string"}],"stateMutability":"view"},{"type":"function","name":"COUNTING_MODE","inputs":[],"outputs":[{"name":"","type":"string","internalType":"string"}],"stateMutability":"pure"},{"type":"function","name":"EXTENDED_BALLOT_TYPEHASH","inputs":[],"outputs":[{"name":"","type":"bytes32","internalType":"bytes32"}],"stateMutability":"view"},{"type":"function","name":"cancel","inputs":[{"name":"targets","type":"address[]","internalType":"address[]"},{"name":"values","type":"uint256[]","internalType":"uint256[]"},{"name":"calldatas","type":"bytes[]","internalType":"bytes[]"},{"name":"descriptionHash","type":"bytes32","internalType":"bytes32"}],"outputs":[{"name":"","type":"uint256","internalType":"uint256"}],"stateMutability":"nonpayable"},{"type":"function","name":"castVote","inputs":[{"name":"proposalId","type":"uint256","internalType":"uint256"},{"name":"support","type":"uint8","internalType":"uint8"}],"outputs":[{"name":"","type":"uint256","internalType":"uint256"}],"stateMutability":"nonpayable"},{"type":"function","name":"castVoteBySig","inputs":[{"name":"proposalId","type":"uint256","internalType":"uint256"},{"name":"support","type":"uint8","internalType":"uint8"},{"name":"voter","type":"address","internalType":"address"},{"name":"signature","type":"bytes","internalType":"bytes"}],"outputs":[{"name":"","type":"uint256","internalType":"uint256"}],"stateMutability":"nonpayable"},{"type":"function","name":"castVoteWithReason","inputs":[{"name":"proposalId","type":"uint256","internalType":"uint256"},{"name":"support","type":"uint8","internalType":"uint8"},{"name":"reason","type":"string","internalType":"string"}],"outputs":[{"name":"","type":"uint256","internalType":"uint256"}],"stateMutability":"nonpayable"},{"type":"function","name":"castVoteWithReasonAndParams","inputs":[{"name":"proposalId","type":"uint256","internalType":"uint256"},{"name":"support","type":"uint8","internalType":"uint8"},{"name":"reason","type":"string","internalType":"string"},{"name":"params","type":"bytes","internalType":"bytes"}],"outputs":[{"name":"","type":"uint256","internalType":"uint256"}],"stateMutability":"nonpayable"},{"type":"function","name":"castVoteWithReasonAndParamsBySig","inputs":[{"name":"proposalId","type":"uint256","internalType":"uint256"},{"name":"support","type":"uint8","internalType":"uint8"},{"name":"voter","type":"address","internalType":"address"},{"name":"reason","type":"string","internalType":"string"},{"name":"params","type":"bytes","internalType":"bytes"},{"name":"signature","type":"bytes","internalType":"bytes"}],"outputs":[{"name":"","type":"uint256","internalType":"uint256"}],"stateMutability":"nonpayable"},{"type":"function","name":"clock","inputs":[],"outputs":[{"name":"","type":"uint48","internalType":"uint48"}],"stateMutability":"view"},{"type":"function","name":"eip712Domain","inputs":[],"outputs":[{"name":"fields","type":"bytes1","internalType":"bytes1"},{"name":"name","type":"string","internalType":"string"},{"name":"version","type":"string","internalType":"string"},{"name":"chainId","type":"uint256","internalType":"uint256"},{"name":"verifyingContract","type":"address","internalType":"address"},{"name":"salt","type":"bytes32","internalType":"bytes32"},{"name":"extensions","type":"uint256[]","internalType":"uint256[]"}],"stateMutability":"view"},{"type":"function","name":"execute","inputs":[{"name":"targets","type":"address[]","internalType":"address[]"},{"name":"values","type":"uint256[]","internalType":"uint256[]"},{"name":"calldatas","type":"bytes[]","internalType":"bytes[]"},{"name":"descriptionHash","type":"bytes32","internalType":"bytes32"}],"outputs":[{"name":"","type":"uint256","internalType":"uint256"}],"stateMutability":"payable"},{"type":"function","name":"getVotes","inputs":[{"name":"account","type":"address","internalType":"address"},{"name":"timepoint","type":"uint256","internalType":"uint256"}],"outputs":[{"name":"","type":"uint256","internalType":"uint256"}],"stateMutability":"view"},{"type":"function","name":"getVotesWithParams","inputs":[{"name":"account","type":"address","internalType":"address"},{"name":"timepoint","type":"uint256","internalType":"uint256"},{"name":"params","type":"bytes","internalType":"bytes"}],"outputs":[{"name":"","type":"uint256","internalType":"uint256"}],"stateMutability":"view"},{"type":"function","name":"hasVoted","inputs":[{"name":"proposalId","type":"uint256","internalType":"uint256"},{"name":"account","type":"address","internalType":"address"}],"outputs":[{"name":"","type":"bool","internalType":"bool"}],"stateMutability":"view"},{"type":"function","name":"hashProposal","inputs":[{"name":"targets","type":"address[]","internalType":"address[]"},{"name":"values","type":"uint256[]","internalType":"uint256[]"},{"name":"calldatas","type":"bytes[]","internalType":"bytes[]"},{"name":"descriptionHash","type":"bytes32","internalType":"bytes32"}],"outputs":[{"name":"","type":"uint256","internalType":"uint256"}],"stateMutability":"pure"},{"type":"function","name":"name","inputs":[],"outputs":[{"name":"","type":"string","internalType":"string"}],"stateMutability":"view"},{"type":"function","name":"nonces","inputs":[{"name":"owner","type":"address","internalType":"address"}],"outputs":[{"name":"","type":"uint256","internalType":"uint256"}],"stateMutability":"view"},{"type":"function","name":"onERC1155BatchReceived","inputs":[{"name":"","type":"address","internalType":"address"},{"name":"","type":"address","internalType":"address"},{"name":"","type":"uint256[]","internalType":"uint256[]"},{"name":"","type":"uint256[]","internalType":"uint256[]"},{"name":"","type":"bytes","internalType":"bytes"}],"outputs":[{"name":"","type":"bytes4","internalType":"bytes4"}],"stateMutability":"nonpayable"},{"type":"function","name":"onERC1155Received","inputs":[{"name":"","type":"address","internalType":"address"},{"name":"","type":"address","internalType":"address"},{"name":"","type":"uint256","internalType":"uint256"},{"name":"","type":"uint256","internalType":"uint256"},{"name":"","type":"bytes","internalType":"bytes"}],"outputs":[{"name":"","type":"bytes4","internalType":"bytes4"}],"stateMutability":"nonpayable"},{"type":"function","name":"onERC721Received","inputs":[{"name":"","type":"address","internalType":"address"},{"name":"","type":"address","internalType":"address"},{"name":"","type":"uint256","internalType":"uint256"},{"name":"","type":"bytes","internalType":"bytes"}],"outputs":[{"name":"","type":"bytes4","internalType":"bytes4"}],"stateMutability":"nonpayable"},{"type":"function","name":"proposalDeadline","inputs":[{"name":"proposalId","type":"uint256","internalType":"uint256"}],"outputs":[{"name":"","type":"uint256","internalType":"uint256"}],"stateMutability":"view"},{"type":"function","name":"proposalEta","inputs":[{"name":"proposalId","type":"uint256","internalType":"uint256"}],"outputs":[{"name":"","type":"uint256","internalType":"uint256"}],"stateMutability":"view"},{"type":"function","name":"proposalNeedsQueuing","inputs":[{"name":"","type":"uint256","internalType":"uint256"}],"outputs":[{"name":"","type":"bool","internalType":"bool"}],"stateMutability":"view"},{"type":"function","name":"proposalProposer","inputs":[{"name":"proposalId","type":"uint256","internalType":"uint256"}],"outputs":[{"name":"","type":"address","internalType":"address"}],"stateMutability":"view"},{"type":"function","name":"proposalSnapshot","inputs":[{"name":"proposalId","type":"uint256","internalType":"uint256"}],"outputs":[{"name":"","type":"uint256","internalType":"uint256"}],"stateMutability":"view"},{"type":"function","name":"proposalThreshold","inputs":[],"outputs":[{"name":"","type":"uint256","internalType":"uint256"}],"stateMutability":"view"},{"type":"function","name":"propose","inputs":[{"name":"targets","type":"address[]","internalType":"address[]"},{"name":"values","type":"uint256[]","internalType":"uint256[]"},{"name":"calldatas","type":"bytes[]","internalType":"bytes[]"},{"name":"description","type":"string","internalType":"string"}],"outputs":[{"name":"","type":"uint256","internalType":"uint256"}],"stateMutability":"nonpayable"},{"type":"function","name":"queue","inputs":[{"name":"targets","type":"address[]","internalType":"address[]"},{"name":"values","type":"uint256[]","internalType":"uint256[]"},{"name":"calldatas","type":"bytes[]","internalType":"bytes[]"},{"name":"descriptionHash","type":"bytes32","internalType":"bytes32"}],"outputs":[{"name":"","type":"uint256","internalType":"uint256"}],"stateMutability":"nonpayable"},{"type":"function","name":"quorum","inputs":[{"name":"blockNumber","type":"uint256","internalType":"uint256"}],"outputs":[{"name":"","type":"uint256","internalType":"uint256"}],"stateMutability":"view"},{"type":"function","name":"quorumDenominator","inputs":[],"outputs":[{"name":"","type":"uint256","internalType":"uint256"}],"stateMutability":"view"},{"type":"function","name":"quorumNumerator","inputs":[{"name":"timepoint","type":"uint256","internalType":"uint256"}],"outputs":[{"name":"","type":"uint256","internalType":"uint256"}],"stateMutability":"view"},{"type":"function","name":"quorumNumerator","inputs":[],"outputs":[{"name":"","type":"uint256","internalType":"uint256"}],"stateMutability":"view"},{"type":"function","name":"relay","inputs":[{"name":"target","type":"address","internalType":"address"},{"name":"value","type":"uint256","internalType":"uint256"},{"name":"data","type":"bytes","internalType":"bytes"}],"outputs":[],"stateMutability":"payable"},{"type":"function","name":"state","inputs":[{"name":"proposalId","type":"uint256","internalType":"uint256"}],"outputs":[{"name":"","type":"uint8","internalType":"enum IGovernor.ProposalState"}],"stateMutability":"view"},{"type":"function","name":"supportsInterface","inputs":[{"name":"interfaceId","type":"bytes4","internalType":"bytes4"}],"outputs":[{"name":"","type":"bool","internalType":"bool"}],"stateMutability":"view"},{"type":"function","name":"token","inputs":[],"outputs":[{"name":"","type":"address","internalType":"contract IERC5805"}],"stateMutability":"view"},{"type":"function","name":"updateQuorumNumerator","inputs":[{"name":"newQuorumNumerator","type":"uint256","internalType":"uint256"}],"outputs":[],"stateMutability":"nonpayable"},{"type":"function","name":"version","inputs":[],"outputs":[{"name":"","type":"string","internalType":"string"}],"stateMutability":"view"},{"type":"function","name":"votingDelay","inputs":[],"outputs":[{"name":"","type":"uint256","internalType":"uint256"}],"stateMutability":"pure"},{"type":"function","name":"votingPeriod","inputs":[],"outputs":[{"name":"","type":"uint256","internalType":"uint256"}],"stateMutability":"pure"},{"type":"event","name":"EIP712DomainChanged","inputs":[],"anonymous":false},{"type":"event","name":"ProposalCanceled","inputs":[{"name":"proposalId","type":"uint256","indexed":false,"internalType":"uint256"}],"anonymous":false},{"type":"event","name":"ProposalCreated","inputs":[{"name":"proposalId","type":"uint256","indexed":false,"internalType":"uint256"},{"name":"proposer","type":"address","indexed":false,"internalType":"address"},{"name":"targets","type":"address[]","indexed":false,"internalType":"address[]"},{"name":"values","type":"uint256[]","indexed":false,"internalType":"uint256[]"},{"name":"signatures","type":"string[]","indexed":false,"internalType":"string[]"},{"name":"calldatas","type":"bytes[]","indexed":false,"internalType":"bytes[]"},{"name":"voteStart","type":"uint256","indexed":false,"internalType":"uint256"},{"name":"voteEnd","type":"uint256","indexed":false,"internalType":"uint256"},{"name":"description","type":"string","indexed":false,"internalType":"string"}],"anonymous":false},{"type":"event","name":"ProposalExecuted","inputs":[{"name":"proposalId","type":"uint256","indexed":false,"internalType":"uint256"}],"anonymous":false},{"type":"event","name":"ProposalQueued","inputs":[{"name":"proposalId","type":"uint256","indexed":false,"internalType":"uint256"},{"name":"etaSeconds","type":"uint256","indexed":false,"internalType":"uint256"}],"anonymous":false},{"type":"event","name":"QuorumNumeratorUpdated","inputs":[{"name":"oldQuorumNumerator","type":"uint256","indexed":false,"internalType":"uint256"},{"name":"newQuorumNumerator","type":"uint256","indexed":false,"internalType":"uint256"}],"anonymous":false},{"type":"event","name":"VoteCast","inputs":[{"name":"voter","type":"address","indexed":true,"internalType":"address"},{"name":"proposalId","type":"uint256","indexed":false,"internalType":"uint256"},{"name":"support","type":"uint8","indexed":false,"internalType":"uint8"},{"name":"weight","type":"uint256","indexed":false,"internalType":"uint256"},{"name":"reason","type":"string","indexed":false,"internalType":"string"}],"anonymous":false},{"type":"event","name":"VoteCastWithParams","inputs":[{"name":"voter","type":"address","indexed":true,"internalType":"address"},{"name":"proposalId","type":"uint256","indexed":false,"internalType":"uint256"},{"name":"support","type":"uint8","indexed":false,"internalType":"uint8"},{"name":"weight","type":"uint256","indexed":false,"internalType":"uint256"},{"name":"reason","type":"string","indexed":false,"internalType":"string"},{"name":"params","type":"bytes","indexed":false,"internalType":"bytes"}],"anonymous":false},{"type":"error","name":"CheckpointUnorderedInsertion","inputs":[]},{"type":"error","name":"FailedInnerCall","inputs":[]},{"type":"error","name":"GovernorAlreadyCastVote","inputs":[{"name":"voter","type":"address","internalType":"address"}]},{"type":"error","name":"GovernorAlreadyQueuedProposal","inputs":[{"name":"proposalId","type":"uint256","internalType":"uint256"}]},{"type":"error","name":"GovernorDisabledDeposit","inputs":[]},{"type":"error","name":"GovernorInsufficientProposerVotes","inputs":[{"name":"proposer","type":"address","internalType":"address"},{"name":"votes","type":"uint256","internalType":"uint256"},{"name":"threshold","type":"uint256","internalType":"uint256"}]},{"type":"error","name":"GovernorInvalidProposalLength","inputs":[{"name":"targets","type":"uint256","internalType":"uint256"},{"name":"calldatas","type":"uint256","internalType":"uint256"},{"name":"values","type":"uint256","internalType":"uint256"}]},{"type":"error","name":"GovernorInvalidQuorumFraction","inputs":[{"name":"quorumNumerator","type":"uint256","internalType":"uint256"},{"name":"quorumDenominator","type":"uint256","internalType":"uint256"}]},{"type":"error","name":"GovernorInvalidSignature","inputs":[{"name":"voter","type":"address","internalType":"address"}]},{"type":"error","name":"GovernorInvalidVoteType","inputs":[]},{"type":"error","name":"GovernorInvalidVotingPeriod","inputs":[{"name":"votingPeriod","type":"uint256","internalType":"uint256"}]},{"type":"error","name":"GovernorNonexistentProposal","inputs":[{"name":"proposalId","type":"uint256","internalType":"uint256"}]},{"type":"error","name":"GovernorNotQueuedProposal","inputs":[{"name":"proposalId","type":"uint256","internalType":"uint256"}]},{"type":"error","name":"GovernorOnlyExecutor","inputs":[{"name":"account","type":"address","internalType":"address"}]},{"type":"error","name":"GovernorOnlyProposer","inputs":[{"name":"account","type":"address","internalType":"address"}]},{"type":"error","name":"GovernorQueueNotImplemented","inputs":[]},{"type":"error","name":"GovernorRestrictedProposer","inputs":[{"name":"proposer","type":"address","internalType":"address"}]},{"type":"error","name":"GovernorUnexpectedProposalState","inputs":[{"name":"proposalId","type":"uint256","internalType":"uint256"},{"name":"current","type":"uint8","internalType":"enum IGovernor.ProposalState"},{"name":"expectedStates","type":"bytes32","internalType":"bytes32"}]},{"type":"error","name":"InvalidAccountNonce","inputs":[{"name":"account","type":"address","internalType":"address"},{"name":"currentNonce","type":"uint256","internalType":"uint256"}]},{"type":"error","name":"InvalidShortString","inputs":[]},{"type":"error","name":"QueueEmpty","inputs":[]},{"type":"error","name":"QueueFull","inputs":[]},{"type":"error","name":"SafeCastOverflowedUintDowncast","inputs":[{"name":"bits","type":"uint8","internalType":"uint8"},{"name":"value","type":"uint256","internalType":"uint256"}]},{"type":"error","name":"StringTooLong","inputs":[{"name":"str","type":"string","internalType":"string"}]}],"bytecode":{"object":"0x610180604052348015610010575f5ffd5b50604051616fac380380616fac833981810160405281019061003291906109e0565b6004816040518060400160405280600b81526020017f454455476f7665726e6f720000000000000000000000000000000000000000008152508061007a61018060201b60201c565b61008d5f836101bd60201b90919060201c565b61012081815250506100a96001826101bd60201b90919060201c565b6101408181525050818051906020012060e08181525050808051906020012061010081815250504660a081815250506100e661020a60201b60201c565b608081815250503073ffffffffffffffffffffffffffffffffffffffff1660c08173ffffffffffffffffffffffffffffffffffffffff1681525050505080600390816101329190610c48565b50508073ffffffffffffffffffffffffffffffffffffffff166101608173ffffffffffffffffffffffffffffffffffffffff1681525050506101798161026460201b60201c565b5050611070565b60606040518060400160405280600181526020017f3100000000000000000000000000000000000000000000000000000000000000815250905090565b5f6020835110156101de576101d78361033e60201b60201c565b9050610204565b826101ee836103a360201b60201c565b5f0190816101fc9190610c48565b5060ff5f1b90505b92915050565b5f7f8b73c3c69bb8fe3d512ecc4cf759cc79239f7b179b0ffacaa9a75d522b39400f60e051610100514630604051602001610249959493929190610d4d565b60405160208183030381529060405280519060200120905090565b5f6102736103ac60201b60201c565b9050808211156102bc5781816040517f243e54450000000000000000000000000000000000000000000000000000000081526004016102b3929190610d9e565b60405180910390fd5b5f6102cb6103b460201b60201c565b90506102fe6102de6103e660201b60201c565b6102ed8561047d60201b60201c565b60076104ea60201b9092919060201c565b50507f0553476bf02ef2726e8ce5ced78d63e26e602e4a2257b1f559418e24b46339978184604051610331929190610d9e565b60405180910390a1505050565b5f5f829050601f8151111561038a57826040517f305a27a90000000000000000000000000000000000000000000000000000000081526004016103819190610e2b565b60405180910390fd5b80518161039690610e78565b5f1c175f1b915050919050565b5f819050919050565b5f6064905090565b5f6103c5600761050b60201b60201c565b79ffffffffffffffffffffffffffffffffffffffffffffffffffff16905090565b5f6103f561057360201b60201c565b73ffffffffffffffffffffffffffffffffffffffff166391ddadf46040518163ffffffff1660e01b8152600401602060405180830381865afa92505050801561045c57506040513d601f19601f820116820180604052508101906104599190610f19565b60015b6104755761046e61057d60201b60201c565b905061047a565b809150505b90565b5f79ffffffffffffffffffffffffffffffffffffffffffffffffffff80168211156104e25760d0826040517f6dfcc6500000000000000000000000000000000000000000000000000000000081526004016104d9929190610f89565b60405180910390fd5b819050919050565b5f5f6104ff855f01858561059260201b60201c565b91509150935093915050565b5f5f825f018054905090505f81146105695761053b835f016001836105309190610fdd565b61090660201b60201c565b5f0160069054906101000a900479ffffffffffffffffffffffffffffffffffffffffffffffffffff1661056b565b5f5b915050919050565b5f61016051905090565b5f61058d4361091860201b60201c565b905090565b5f5f5f858054905090505f81111561081e575f6105c1876001846105b69190610fdd565b61090660201b60201c565b6040518060400160405290815f82015f9054906101000a900465ffffffffffff1665ffffffffffff1665ffffffffffff1681526020015f820160069054906101000a900479ffffffffffffffffffffffffffffffffffffffffffffffffffff1679ffffffffffffffffffffffffffffffffffffffffffffffffffff1679ffffffffffffffffffffffffffffffffffffffffffffffffffff168152505090508565ffffffffffff16815f015165ffffffffffff1611156106ac576040517f2520601d00000000000000000000000000000000000000000000000000000000815260040160405180910390fd5b8565ffffffffffff16815f015165ffffffffffff160361073457846106e3886001856106d89190610fdd565b61090660201b60201c565b5f0160066101000a81548179ffffffffffffffffffffffffffffffffffffffffffffffffffff021916908379ffffffffffffffffffffffffffffffffffffffffffffffffffff16021790555061080d565b8660405180604001604052808865ffffffffffff1681526020018779ffffffffffffffffffffffffffffffffffffffffffffffffffff16815250908060018154018082558091505060019003905f5260205f20015f909190919091505f820151815f015f6101000a81548165ffffffffffff021916908365ffffffffffff1602179055506020820151815f0160066101000a81548179ffffffffffffffffffffffffffffffffffffffffffffffffffff021916908379ffffffffffffffffffffffffffffffffffffffffffffffffffff16021790555050505b8060200151859350935050506108fe565b8560405180604001604052808765ffffffffffff1681526020018679ffffffffffffffffffffffffffffffffffffffffffffffffffff16815250908060018154018082558091505060019003905f5260205f20015f909190919091505f820151815f015f6101000a81548165ffffffffffff021916908365ffffffffffff1602179055506020820151815f0160066101000a81548179ffffffffffffffffffffffffffffffffffffffffffffffffffff021916908379ffffffffffffffffffffffffffffffffffffffffffffffffffff16021790555050505f8492509250505b935093915050565b5f825f528160205f2001905092915050565b5f65ffffffffffff8016821115610969576030826040517f6dfcc650000000000000000000000000000000000000000000000000000000008152600401610960929190611049565b60405180910390fd5b819050919050565b5f5ffd5b5f73ffffffffffffffffffffffffffffffffffffffff82169050919050565b5f61099e82610975565b9050919050565b5f6109af82610994565b9050919050565b6109bf816109a5565b81146109c9575f5ffd5b50565b5f815190506109da816109b6565b92915050565b5f602082840312156109f5576109f4610971565b5b5f610a02848285016109cc565b91505092915050565b5f81519050919050565b7f4e487b71000000000000000000000000000000000000000000000000000000005f52604160045260245ffd5b7f4e487b71000000000000000000000000000000000000000000000000000000005f52602260045260245ffd5b5f6002820490506001821680610a8657607f821691505b602082108103610a9957610a98610a42565b5b50919050565b5f819050815f5260205f209050919050565b5f6020601f8301049050919050565b5f82821b905092915050565b5f60088302610afb7fffffffffffffffffffffffffffffffffffffffffffffffffffffffffffffffff82610ac0565b610b058683610ac0565b95508019841693508086168417925050509392505050565b5f819050919050565b5f819050919050565b5f610b49610b44610b3f84610b1d565b610b26565b610b1d565b9050919050565b5f819050919050565b610b6283610b2f565b610b76610b6e82610b50565b848454610acc565b825550505050565b5f5f905090565b610b8d610b7e565b610b98818484610b59565b505050565b5b81811015610bbb57610bb05f82610b85565b600181019050610b9e565b5050565b601f821115610c0057610bd181610a9f565b610bda84610ab1565b81016020851015610be9578190505b610bfd610bf585610ab1565b830182610b9d565b50505b505050565b5f82821c905092915050565b5f610c205f1984600802610c05565b1980831691505092915050565b5f610c388383610c11565b9150826002028217905092915050565b610c5182610a0b565b67ffffffffffffffff811115610c6a57610c69610a15565b5b610c748254610a6f565b610c7f828285610bbf565b5f60209050601f831160018114610cb0575f8415610c9e578287015190505b610ca88582610c2d565b865550610d0f565b601f198416610cbe86610a9f565b5f5b82811015610ce557848901518255600182019150602085019450602081019050610cc0565b86831015610d025784890151610cfe601f891682610c11565b8355505b6001600288020188555050505b505050505050565b5f819050919050565b610d2981610d17565b82525050565b610d3881610b1d565b82525050565b610d4781610994565b82525050565b5f60a082019050610d605f830188610d20565b610d6d6020830187610d20565b610d7a6040830186610d20565b610d876060830185610d2f565b610d946080830184610d3e565b9695505050505050565b5f604082019050610db15f830185610d2f565b610dbe6020830184610d2f565b9392505050565b5f82825260208201905092915050565b8281835e5f83830152505050565b5f601f19601f8301169050919050565b5f610dfd82610a0b565b610e078185610dc5565b9350610e17818560208601610dd5565b610e2081610de3565b840191505092915050565b5f6020820190508181035f830152610e438184610df3565b905092915050565b5f81519050919050565b5f819050602082019050919050565b5f610e6f8251610d17565b80915050919050565b5f610e8282610e4b565b82610e8c84610e55565b9050610e9781610e64565b92506020821015610ed757610ed27fffffffffffffffffffffffffffffffffffffffffffffffffffffffffffffffff83602003600802610ac0565b831692505b5050919050565b5f65ffffffffffff82169050919050565b610ef881610ede565b8114610f02575f5ffd5b50565b5f81519050610f1381610eef565b92915050565b5f60208284031215610f2e57610f2d610971565b5b5f610f3b84828501610f05565b91505092915050565b5f819050919050565b5f60ff82169050919050565b5f610f73610f6e610f6984610f44565b610b26565b610f4d565b9050919050565b610f8381610f59565b82525050565b5f604082019050610f9c5f830185610f7a565b610fa96020830184610d2f565b9392505050565b7f4e487b71000000000000000000000000000000000000000000000000000000005f52601160045260245ffd5b5f610fe782610b1d565b9150610ff283610b1d565b925082820390508181111561100a57611009610fb0565b5b92915050565b5f819050919050565b5f61103361102e61102984611010565b610b26565b610f4d565b9050919050565b61104381611019565b82525050565b5f60408201905061105c5f83018561103a565b6110696020830184610d2f565b9392505050565b60805160a05160c05160e05161010051610120516101405161016051615ee16110cb5f395f611e0b01525f612c4201525f612c0701525f613a5f01525f613a3e01525f61304201525f61309801525f6130c10152615ee15ff3fe608060405260043610610254575f3560e01c80637d5e81e211610138578063b58131b0116100b5578063dd4e2ba511610079578063dd4e2ba514610a3b578063deaaa7cc14610a65578063eb9019d414610a8f578063f23a6e6114610acb578063f8ce560a14610b07578063fc0c546a14610b43576102c7565b8063b58131b014610941578063bc197c811461096b578063c01f9e37146109a7578063c28bc2fa146109e3578063c59057e4146109ff576102c7565b806397c3d334116100fc57806397c3d334146108395780639a802a6d14610863578063a7713a701461089f578063a9a95294146108c9578063ab58fb8e14610905576102c7565b80637d5e81e21461072b5780637ecebe001461076757806384b0196e146107a35780638ff262e3146107d357806391ddadf41461080f576102c7565b80633932abb1116101d157806354fd4d501161019557806354fd4d50146105d557806356781388146105ff5780635b8d0e0d1461063b5780635f398a141461067757806360c4247f146106b35780637b3c71d3146106ef576102c7565b80633932abb1146104cd5780633e4f49e6146104f75780634385963214610533578063452115d61461056f5780634bf5d7e9146105ab576102c7565b8063150b7a0211610218578063150b7a02146103bf578063160cbed7146103fb5780632656227d146104375780632d63f693146104675780632fe3e261146104a3576102c7565b806301ffc9a7146102cb57806302a251a31461030757806306f3f9e61461033157806306fdde0314610359578063143489d014610383576102c7565b366102c7573073ffffffffffffffffffffffffffffffffffffffff16610278610b6d565b73ffffffffffffffffffffffffffffffffffffffff16146102c5576040517fe90a651e00000000000000000000000000000000000000000000000000000000815260040160405180910390fd5b005b5f5ffd5b3480156102d6575f5ffd5b506102f160048036038101906102ec9190613dd0565b610b74565b6040516102fe9190613e15565b60405180910390f35b348015610312575f5ffd5b5061031b610c55565b6040516103289190613e46565b60405180910390f35b34801561033c575f5ffd5b5061035760048036038101906103529190613e89565b610c5d565b005b348015610364575f5ffd5b5061036d610c71565b60405161037a9190613f24565b60405180910390f35b34801561038e575f5ffd5b506103a960048036038101906103a49190613e89565b610d01565b6040516103b69190613f83565b60405180910390f35b3480156103ca575f5ffd5b506103e560048036038101906103e091906140f2565b610d3c565b6040516103f29190614181565b60405180910390f35b348015610406575f5ffd5b50610421600480360381019061041c919061442f565b610dbb565b60405161042e9190613e46565b60405180910390f35b610451600480360381019061044c919061442f565b610eb1565b60405161045e9190613e46565b60405180910390f35b348015610472575f5ffd5b5061048d60048036038101906104889190613e89565b61108e565b60405161049a9190613e46565b60405180910390f35b3480156104ae575f5ffd5b506104b76110c4565b6040516104c491906144f6565b60405180910390f35b3480156104d8575f5ffd5b506104e16110e8565b6040516104ee9190613e46565b60405180910390f35b348015610502575f5ffd5b5061051d60048036038101906105189190613e89565b6110f0565b60405161052a9190614582565b60405180910390f35b34801561053e575f5ffd5b506105596004803603810190610554919061459b565b611247565b6040516105669190613e15565b60405180910390f35b34801561057a575f5ffd5b506105956004803603810190610590919061442f565b6112a9565b6040516105a29190613e46565b60405180910390f35b3480156105b6575f5ffd5b506105bf611369565b6040516105cc9190613f24565b60405180910390f35b3480156105e0575f5ffd5b506105e9611426565b6040516105f69190613f24565b60405180910390f35b34801561060a575f5ffd5b506106256004803603810190610620919061460f565b611463565b6040516106329190613e46565b60405180910390f35b348015610646575f5ffd5b50610661600480360381019061065c91906146a6565b611492565b60405161066e9190613e46565b60405180910390f35b348015610682575f5ffd5b5061069d60048036038101906106989190614788565b6115c1565b6040516106aa9190613e46565b60405180910390f35b3480156106be575f5ffd5b506106d960048036038101906106d49190613e89565b611629565b6040516106e69190613e46565b60405180910390f35b3480156106fa575f5ffd5b5061071560048036038101906107109190614828565b611722565b6040516107229190613e46565b60405180910390f35b348015610736575f5ffd5b50610751600480360381019061074c9190614937565b611788565b60405161075e9190613e46565b60405180910390f35b348015610772575f5ffd5b5061078d60048036038101906107889190614a0b565b611875565b60405161079a9190613e46565b60405180910390f35b3480156107ae575f5ffd5b506107b76118bb565b6040516107ca9796959493929190614b27565b60405180910390f35b3480156107de575f5ffd5b506107f960048036038101906107f49190614ba9565b611960565b6040516108069190613e46565b60405180910390f35b34801561081a575f5ffd5b50610823611a34565b6040516108309190614c49565b60405180910390f35b348015610844575f5ffd5b5061084d611abf565b60405161085a9190613e46565b60405180910390f35b34801561086e575f5ffd5b5061088960048036038101906108849190614c62565b611ac7565b6040516108969190613e46565b60405180910390f35b3480156108aa575f5ffd5b506108b3611adc565b6040516108c09190613e46565b60405180910390f35b3480156108d4575f5ffd5b506108ef60048036038101906108ea9190613e89565b611b08565b6040516108fc9190613e15565b60405180910390f35b348015610910575f5ffd5b5061092b60048036038101906109269190613e89565b611b11565b6040516109389190613e46565b60405180910390f35b34801561094c575f5ffd5b50610955611b47565b6040516109629190613e46565b60405180910390f35b348015610976575f5ffd5b50610991600480360381019061098c9190614cce565b611b4e565b60405161099e9190614181565b60405180910390f35b3480156109b2575f5ffd5b506109cd60048036038101906109c89190613e89565b611bce565b6040516109da9190613e46565b60405180910390f35b6109fd60048036038101906109f89190614dee565b611c38565b005b348015610a0a575f5ffd5b50610a256004803603810190610a20919061442f565b611cc1565b604051610a329190613e46565b60405180910390f35b348015610a46575f5ffd5b50610a4f611cfb565b604051610a5c9190613f24565b60405180910390f35b348015610a70575f5ffd5b50610a79611d38565b604051610a8691906144f6565b60405180910390f35b348015610a9a575f5ffd5b50610ab56004803603810190610ab09190614e5f565b611d5c565b604051610ac29190613e46565b60405180910390f35b348015610ad6575f5ffd5b50610af16004803603810190610aec9190614e9d565b611d77565b604051610afe9190614181565b60405180910390f35b348015610b12575f5ffd5b50610b2d6004803603810190610b289190613e89565b611df7565b604051610b3a9190613e46565b60405180910390f35b348015610b4e575f5ffd5b50610b57611e08565b604051610b649190614f8b565b60405180910390f35b5f30905090565b5f7f65455a86000000000000000000000000000000000000000000000000000000007bffffffffffffffffffffffffffffffffffffffffffffffffffffffff1916827bffffffffffffffffffffffffffffffffffffffffffffffffffffffff19161480610c3e57507f4e2312e0000000000000000000000000000000000000000000000000000000007bffffffffffffffffffffffffffffffffffffffffffffffffffffffff1916827bffffffffffffffffffffffffffffffffffffffffffffffffffffffff1916145b80610c4e5750610c4d82611e2f565b5b9050919050565b5f6064905090565b610c65611e98565b610c6e81611f8d565b50565b606060038054610c8090614fd1565b80601f0160208091040260200160405190810160405280929190818152602001828054610cac90614fd1565b8015610cf75780601f10610cce57610100808354040283529160200191610cf7565b820191905f5260205f20905b815481529060010190602001808311610cda57829003601f168201915b5050505050905090565b5f60045f8381526020019081526020015f205f015f9054906101000a900473ffffffffffffffffffffffffffffffffffffffff169050919050565b5f3073ffffffffffffffffffffffffffffffffffffffff16610d5c610b6d565b73ffffffffffffffffffffffffffffffffffffffff1614610da9576040517fe90a651e00000000000000000000000000000000000000000000000000000000815260040160405180910390fd5b63150b7a0260e01b9050949350505050565b5f5f610dc986868686611cc1565b9050610dde81610dd9600461204f565b612073565b505f610ded82888888886120de565b90505f8165ffffffffffff1614610e72578060045f8481526020019081526020015f206001015f6101000a81548165ffffffffffff021916908365ffffffffffff1602179055507f9a2e42fd6722813d69113e7d0079d3d940171428df7373df9c7f7617cfda28928282604051610e65929190615031565b60405180910390a1610ea4565b6040517f90884a4600000000000000000000000000000000000000000000000000000000815260040160405180910390fd5b8192505050949350505050565b5f5f610ebf86868686611cc1565b9050610edf81610ecf600561204f565b610ed9600461204f565b17612073565b50600160045f8381526020019081526020015f205f01601e6101000a81548160ff0219169083151502179055503073ffffffffffffffffffffffffffffffffffffffff16610f2b610b6d565b73ffffffffffffffffffffffffffffffffffffffff1614610fe4575f5f90505b8651811015610fe2573073ffffffffffffffffffffffffffffffffffffffff16878281518110610f7e57610f7d615058565b5b602002602001015173ffffffffffffffffffffffffffffffffffffffff1603610fd757610fd6858281518110610fb757610fb6615058565b5b60200260200101518051906020012060056120eb90919063ffffffff16565b5b806001019050610f4b565b505b610ff1818787878761220a565b3073ffffffffffffffffffffffffffffffffffffffff16611010610b6d565b73ffffffffffffffffffffffffffffffffffffffff161415801561103b575061103960056122f2565b155b1561104b5761104a600561235e565b5b7f712ae1383f79ac853f8d882153778e0260ef8f03b504e2866e0593e04d2b291f8160405161107a9190613e46565b60405180910390a180915050949350505050565b5f60045f8381526020019081526020015f205f0160149054906101000a900465ffffffffffff1665ffffffffffff169050919050565b7f3e83946653575f9a39005e1545185629e92736b7528ab20ca3816f315424a81181565b5f6001905090565b5f5f60045f8481526020019081526020015f2090505f815f01601e9054906101000a900460ff1690505f825f01601f9054906101000a900460ff169050811561113f5760079350505050611242565b80156111515760029350505050611242565b5f61115b8661108e565b90505f81036111a157856040517f6ad060750000000000000000000000000000000000000000000000000000000081526004016111989190613e46565b60405180910390fd5b5f6111aa611a34565b65ffffffffffff1690508082106111c8575f95505050505050611242565b5f6111d288611bce565b90508181106111ea5760019650505050505050611242565b6111f3886123d4565b15806112055750611203886123de565b155b156112195760039650505050505050611242565b5f61122389611b11565b036112375760049650505050505050611242565b600596505050505050505b919050565b5f60085f8481526020019081526020015f205f8373ffffffffffffffffffffffffffffffffffffffff1673ffffffffffffffffffffffffffffffffffffffff1681526020019081526020015f205f9054906101000a900460ff16905092915050565b5f5f6112b786868686611cc1565b90506112cb816112c65f61204f565b612073565b506112d581610d01565b73ffffffffffffffffffffffffffffffffffffffff166112f36123e8565b73ffffffffffffffffffffffffffffffffffffffff1614611352576113166123e8565b6040517f233d98e30000000000000000000000000000000000000000000000000000000081526004016113499190613f83565b60405180910390fd5b61135e868686866123ef565b915050949350505050565b6060611373611e08565b73ffffffffffffffffffffffffffffffffffffffff16634bf5d7e96040518163ffffffff1660e01b81526004015f60405180830381865afa9250505080156113dd57506040513d5f823e3d601f19601f820116820180604052508101906113da91906150f3565b60015b61141e576040518060400160405280601d81526020017f6d6f64653d626c6f636b6e756d6265722666726f6d3d64656661756c740000008152509050611423565b809150505b90565b60606040518060400160405280600181526020017f3100000000000000000000000000000000000000000000000000000000000000815250905090565b5f5f61146d6123e8565b905061148984828560405180602001604052805f8152506124d1565b91505092915050565b5f5f61151f876115197f3e83946653575f9a39005e1545185629e92736b7528ab20ca3816f315424a8118c8c8c6114c88e6124f0565b8d8d6040516114d8929190615168565b60405180910390208c805190602001206040516020016114fe979695949392919061518f565b60405160208183030381529060405280519060200120612543565b8561255c565b90508061156357866040517f94ab6c0700000000000000000000000000000000000000000000000000000000815260040161155a9190613f83565b60405180910390fd5b6115b389888a89898080601f0160208091040260200160405190810160405280939291908181526020018383808284375f81840152601f19601f82011690508083019250505050505050886125e9565b915050979650505050505050565b5f5f6115cb6123e8565b905061161d87828888888080601f0160208091040260200160405190810160405280939291908181526020018383808284375f81840152601f19601f82011690508083019250505050505050876125e9565b91505095945050505050565b5f5f60075f018054905090505f60075f016001836116479190615229565b8154811061165857611657615058565b5b905f5260205f200190505f815f015f9054906101000a900465ffffffffffff1690505f825f0160069054906101000a900479ffffffffffffffffffffffffffffffffffffffffffffffffffff169050858265ffffffffffff16116116de578079ffffffffffffffffffffffffffffffffffffffffffffffffffff1694505050505061171d565b6116fa6116ea876126e6565b600761273f90919063ffffffff16565b79ffffffffffffffffffffffffffffffffffffffffffffffffffff169450505050505b919050565b5f5f61172c6123e8565b905061177d86828787878080601f0160208091040260200160405190810160405280939291908181526020018383808284375f81840152601f19601f820116905080830192505050505050506124d1565b915050949350505050565b5f5f6117926123e8565b905061179e818461282f565b6117df57806040517fd9b395570000000000000000000000000000000000000000000000000000000081526004016117d69190613f83565b60405180910390fd5b5f6118058260016117ee611a34565b6117f8919061525c565b65ffffffffffff16611d5c565b90505f611810611b47565b90508082101561185b578282826040517fc242ee1600000000000000000000000000000000000000000000000000000000815260040161185293929190615295565b60405180910390fd5b611868888888888761297a565b9350505050949350505050565b5f60025f8373ffffffffffffffffffffffffffffffffffffffff1673ffffffffffffffffffffffffffffffffffffffff1681526020019081526020015f20549050919050565b5f6060805f5f5f60606118cc612bff565b6118d4612c39565b46305f5f1b5f67ffffffffffffffff8111156118f3576118f2613fce565b5b6040519080825280602002602001820160405280156119215781602001602082028036833780820191505090505b507f0f00000000000000000000000000000000000000000000000000000000000000959493929190965096509650965096509650965090919293949596565b5f5f6119cb846119c57ff2aad550cf55f045cb27e9c559f9889fdfb6e6cdaa032301d6ea397784ae51d78989896119968b6124f0565b6040516020016119aa9594939291906152ca565b60405160208183030381529060405280519060200120612543565b8561255c565b905080611a0f57836040517f94ab6c07000000000000000000000000000000000000000000000000000000008152600401611a069190613f83565b60405180910390fd5b611a2986858760405180602001604052805f8152506124d1565b915050949350505050565b5f611a3d611e08565b73ffffffffffffffffffffffffffffffffffffffff166391ddadf46040518163ffffffff1660e01b8152600401602060405180830381865afa925050508015611aa457506040513d601f19601f82011682018060405250810190611aa19190615345565b60015b611ab757611ab0612c74565b9050611abc565b809150505b90565b5f6064905090565b5f611ad3848484612c83565b90509392505050565b5f611ae76007612d0e565b79ffffffffffffffffffffffffffffffffffffffffffffffffffff16905090565b5f5f9050919050565b5f60045f8381526020019081526020015f206001015f9054906101000a900465ffffffffffff1665ffffffffffff169050919050565b5f5f905090565b5f3073ffffffffffffffffffffffffffffffffffffffff16611b6e610b6d565b73ffffffffffffffffffffffffffffffffffffffff1614611bbb576040517fe90a651e00000000000000000000000000000000000000000000000000000000815260040160405180910390fd5b63bc197c8160e01b905095945050505050565b5f60045f8381526020019081526020015f205f01601a9054906101000a900463ffffffff1663ffffffff1660045f8481526020019081526020015f205f0160149054906101000a900465ffffffffffff16611c299190615370565b65ffffffffffff169050919050565b611c40611e98565b5f5f8573ffffffffffffffffffffffffffffffffffffffff16858585604051611c6a929190615168565b5f6040518083038185875af1925050503d805f8114611ca4576040519150601f19603f3d011682016040523d82523d5f602084013e611ca9565b606091505b5091509150611cb88282612d70565b50505050505050565b5f84848484604051602001611cd9949392919061556d565b604051602081830303815290604052805190602001205f1c9050949350505050565b60606040518060400160405280602081526020017f737570706f72743d627261766f2671756f72756d3d666f722c6162737461696e815250905090565b7ff2aad550cf55f045cb27e9c559f9889fdfb6e6cdaa032301d6ea397784ae51d781565b5f611d6f8383611d6a612d94565b612c83565b905092915050565b5f3073ffffffffffffffffffffffffffffffffffffffff16611d97610b6d565b73ffffffffffffffffffffffffffffffffffffffff1614611de4576040517fe90a651e00000000000000000000000000000000000000000000000000000000815260040160405180910390fd5b63f23a6e6160e01b905095945050505050565b5f611e0182612daa565b9050919050565b5f7f0000000000000000000000000000000000000000000000000000000000000000905090565b5f7f01ffc9a7000000000000000000000000000000000000000000000000000000007bffffffffffffffffffffffffffffffffffffffffffffffffffffffff1916827bffffffffffffffffffffffffffffffffffffffffffffffffffffffff1916149050919050565b611ea06123e8565b73ffffffffffffffffffffffffffffffffffffffff16611ebe610b6d565b73ffffffffffffffffffffffffffffffffffffffff1614611f1d57611ee16123e8565b6040517f47096e47000000000000000000000000000000000000000000000000000000008152600401611f149190613f83565b60405180910390fd5b3073ffffffffffffffffffffffffffffffffffffffff16611f3c610b6d565b73ffffffffffffffffffffffffffffffffffffffff1614611f8b575f611f60612e56565b604051611f6e929190615168565b604051809103902090505b80611f846005612e62565b03611f7957505b565b5f611f96611abf565b905080821115611fdf5781816040517f243e5445000000000000000000000000000000000000000000000000000000008152600401611fd69291906155c5565b60405180910390fd5b5f611fe8611adc565b905061200f611ff5611a34565b611ffe85612fb7565b60076130249092919063ffffffff16565b50507f0553476bf02ef2726e8ce5ced78d63e26e602e4a2257b1f559418e24b463399781846040516120429291906155c5565b60405180910390a1505050565b5f8160078111156120635761206261450f565b5b60ff166001901b5f1b9050919050565b5f5f61207e846110f0565b90505f5f1b8361208d8361204f565b16036120d4578381846040517f31b75e4d0000000000000000000000000000000000000000000000000000000081526004016120cb939291906155ec565b60405180910390fd5b8091505092915050565b5f5f905095945050505050565b5f825f0160109054906101000a90046fffffffffffffffffffffffffffffffff169050825f015f9054906101000a90046fffffffffffffffffffffffffffffffff166fffffffffffffffffffffffffffffffff16600182016fffffffffffffffffffffffffffffffff160361218c576040517f8acb5f2700000000000000000000000000000000000000000000000000000000815260040160405180910390fd5b81836001015f836fffffffffffffffffffffffffffffffff166fffffffffffffffffffffffffffffffff1681526020019081526020015f208190555060018101835f0160106101000a8154816fffffffffffffffffffffffffffffffff02191690836fffffffffffffffffffffffffffffffff160217905550505050565b5f5f90505b84518110156122ea575f5f86838151811061222d5761222c615058565b5b602002602001015173ffffffffffffffffffffffffffffffffffffffff1686848151811061225e5761225d615058565b5b602002602001015186858151811061227957612278615058565b5b602002602001015160405161228e9190615651565b5f6040518083038185875af1925050503d805f81146122c8576040519150601f19603f3d011682016040523d82523d5f602084013e6122cd565b606091505b50915091506122dc8282612d70565b50505080600101905061220f565b505050505050565b5f815f015f9054906101000a90046fffffffffffffffffffffffffffffffff166fffffffffffffffffffffffffffffffff16825f0160109054906101000a90046fffffffffffffffffffffffffffffffff166fffffffffffffffffffffffffffffffff16149050919050565b5f815f015f6101000a8154816fffffffffffffffffffffffffffffffff02191690836fffffffffffffffffffffffffffffffff1602179055505f815f0160106101000a8154816fffffffffffffffffffffffffffffffff02191690836fffffffffffffffffffffffffffffffff16021790555050565b5f60019050919050565b5f60019050919050565b5f33905090565b5f5f6123fd86868686611cc1565b90506124618161240d600761204f565b612417600661204f565b612421600261204f565b6001806007808111156124375761243661450f565b5b6124419190615667565b600261244d91906157ca565b6124579190615229565b5f1b181818612073565b50600160045f8381526020019081526020015f205f01601f6101000a81548160ff0219169083151502179055507f789cf55be980739dad1d0699b93b58e806b51c9d96619bfa8fe0a28abaa7b30c816040516124bd9190613e46565b60405180910390a180915050949350505050565b5f6124e6858585856124e1612d94565b6125e9565b9050949350505050565b5f60025f8373ffffffffffffffffffffffffffffffffffffffff1673ffffffffffffffffffffffffffffffffffffffff1681526020019081526020015f205f815480929190600101919050559050919050565b5f61255561254f61303f565b836130f5565b9050919050565b5f5f5f6125698585613135565b50915091505f60038111156125815761258061450f565b5b8160038111156125945761259361450f565b5b1480156125cc57508573ffffffffffffffffffffffffffffffffffffffff168273ffffffffffffffffffffffffffffffffffffffff16145b806125de57506125dd86868661318a565b5b925050509392505050565b5f6125fd866125f8600161204f565b612073565b505f6126128661260c8961108e565b85612c83565b905061262187878784876132a9565b5f835103612682578573ffffffffffffffffffffffffffffffffffffffff167fb8e138887d0aa13bab447e82de9d5c1777041ecd21ca36ba824ff1e6c07ddda4888784886040516126759493929190615814565b60405180910390a26126d9565b8573ffffffffffffffffffffffffffffffffffffffff167fe2babfbac5889a709b63bb7f598b324e08bc5a4fb9ec647fb3cbc9ec07eb871288878488886040516126d09594939291906158a6565b60405180910390a25b8091505095945050505050565b5f65ffffffffffff8016821115612737576030826040517f6dfcc65000000000000000000000000000000000000000000000000000000000815260040161272e92919061593e565b60405180910390fd5b819050919050565b5f5f835f018054905090505f5f90505f82905060058311156127c3575f61276584613356565b846127709190615229565b905061277e875f018261344c565b5f015f9054906101000a900465ffffffffffff1665ffffffffffff168665ffffffffffff1610156127b1578091506127c1565b6001816127be9190615965565b92505b505b5f6127d2875f0187858561345e565b90505f8114612821576127f3875f016001836127ee9190615229565b61344c565b5f0160069054906101000a900479ffffffffffffffffffffffffffffffffffffffffffffffffffff16612823565b5f5b94505050505092915050565b5f5f825190506034811015612848576001915050612974565b5f6014820384015190507f2370726f706f7365723d3078000000000000000000000000000000000000000073ffffffffffffffffffffffffffffffffffffffff19168173ffffffffffffffffffffffffffffffffffffffff1916146128b257600192505050612974565b5f5f90505f6028846128c49190615229565b90505b8381101561293e575f5f6128f78884815181106128e7576128e6615058565b5b602001015160f81c60f81b6134d3565b915091508161290f5760019650505050505050612974565b8060ff1660048573ffffffffffffffffffffffffffffffffffffffff16901b17935050508060010190506128c7565b508573ffffffffffffffffffffffffffffffffffffffff168173ffffffffffffffffffffffffffffffffffffffff161493505050505b92915050565b5f61298e8686868680519060200120611cc1565b9050845186511415806129a357508351865114155b806129ae57505f8651145b156129f7578551845186516040517f447b05d00000000000000000000000000000000000000000000000000000000081526004016129ee93929190615998565b60405180910390fd5b5f60045f8381526020019081526020015f205f0160149054906101000a900465ffffffffffff1665ffffffffffff1614612a765780612a35826110f0565b5f5f1b6040517f31b75e4d000000000000000000000000000000000000000000000000000000008152600401612a6d939291906155ec565b60405180910390fd5b5f612a7f6110e8565b612a87611a34565b65ffffffffffff16612a999190615965565b90505f612aa4610c55565b90505f60045f8581526020019081526020015f20905084815f015f6101000a81548173ffffffffffffffffffffffffffffffffffffffff021916908373ffffffffffffffffffffffffffffffffffffffff160217905550612b04836126e6565b815f0160146101000a81548165ffffffffffff021916908365ffffffffffff160217905550612b328261356a565b815f01601a6101000a81548163ffffffff021916908363ffffffff1602179055507f7d84a6263ae0d98d3329bd7b46bb4e8d6f98cd35a7adb45c274c8b7fd5ebd5e084868b8b8d5167ffffffffffffffff811115612b9357612b92613fce565b5b604051908082528060200260200182016040528015612bc657816020015b6060815260200190600190039081612bb15790505b508c89898b612bd59190615965565b8e604051612beb99989796959493929190615ad0565b60405180910390a150505095945050505050565b6060612c345f7f00000000000000000000000000000000000000000000000000000000000000006135c190919063ffffffff16565b905090565b6060612c6f60017f00000000000000000000000000000000000000000000000000000000000000006135c190919063ffffffff16565b905090565b5f612c7e436126e6565b905090565b5f612c8c611e08565b73ffffffffffffffffffffffffffffffffffffffff16633a46b1a885856040518363ffffffff1660e01b8152600401612cc6929190615b7e565b602060405180830381865afa158015612ce1573d5f5f3e3d5ffd5b505050506040513d601f19601f82011682018060405250810190612d059190615bb9565b90509392505050565b5f5f825f018054905090505f8114612d6657612d38835f01600183612d339190615229565b61344c565b5f0160069054906101000a900479ffffffffffffffffffffffffffffffffffffffffffffffffffff16612d68565b5f5b915050919050565b606082612d8557612d808261366e565b612d8d565b819050612d8e565b5b92915050565b606060405180602001604052805f815250905090565b5f612db3611abf565b612dbc83611629565b612dc4611e08565b73ffffffffffffffffffffffffffffffffffffffff16638e539e8c856040518263ffffffff1660e01b8152600401612dfc9190613e46565b602060405180830381865afa158015612e17573d5f5f3e3d5ffd5b505050506040513d601f19601f82011682018060405250810190612e3b9190615bb9565b612e459190615be4565b612e4f9190615c52565b9050919050565b365f5f36915091509091565b5f5f825f015f9054906101000a90046fffffffffffffffffffffffffffffffff169050825f0160109054906101000a90046fffffffffffffffffffffffffffffffff166fffffffffffffffffffffffffffffffff16816fffffffffffffffffffffffffffffffff1603612f01576040517f75e52f4f00000000000000000000000000000000000000000000000000000000815260040160405180910390fd5b826001015f826fffffffffffffffffffffffffffffffff166fffffffffffffffffffffffffffffffff1681526020019081526020015f20549150826001015f826fffffffffffffffffffffffffffffffff166fffffffffffffffffffffffffffffffff1681526020019081526020015f205f905560018101835f015f6101000a8154816fffffffffffffffffffffffffffffffff02191690836fffffffffffffffffffffffffffffffff16021790555050919050565b5f79ffffffffffffffffffffffffffffffffffffffffffffffffffff801682111561301c5760d0826040517f6dfcc650000000000000000000000000000000000000000000000000000000008152600401613013929190615cbb565b60405180910390fd5b819050919050565b5f5f613033855f0185856136b2565b91509150935093915050565b5f7f000000000000000000000000000000000000000000000000000000000000000073ffffffffffffffffffffffffffffffffffffffff163073ffffffffffffffffffffffffffffffffffffffff161480156130ba57507f000000000000000000000000000000000000000000000000000000000000000046145b156130e7577f000000000000000000000000000000000000000000000000000000000000000090506130f2565b6130ef613a1a565b90505b90565b5f6040517f190100000000000000000000000000000000000000000000000000000000000081528360028201528260228201526042812091505092915050565b5f5f5f6041845103613175575f5f5f602087015192506040870151915060608701515f1a905061316788828585613aaf565b955095509550505050613183565b5f600285515f1b9250925092505b9250925092565b5f5f5f8573ffffffffffffffffffffffffffffffffffffffff1685856040516024016131b7929190615ce2565b604051602081830303815290604052631626ba7e60e01b6020820180517bffffffffffffffffffffffffffffffffffffffffffffffffffffffff83818316178352505050506040516132099190615651565b5f60405180830381855afa9150503d805f8114613241576040519150601f19603f3d011682016040523d82523d5f602084013e613246565b606091505b509150915081801561325a57506020815110155b801561329e5750631626ba7e60e01b7bffffffffffffffffffffffffffffffffffffffffffffffffffffffff19168180602001905181019061329c9190615d24565b145b925050509392505050565b5f82116132eb576040517f08c379a00000000000000000000000000000000000000000000000000000000081526004016132e290615d99565b60405180910390fd5b600160085f8781526020019081526020015f205f8673ffffffffffffffffffffffffffffffffffffffff1673ffffffffffffffffffffffffffffffffffffffff1681526020019081526020015f205f6101000a81548160ff0219169083151502179055505050505050565b5f5f8203613366575f9050613447565b5f600161337284613b96565b901c6001901b9050600181848161338c5761338b615c25565b5b048201901c905060018184816133a5576133a4615c25565b5b048201901c905060018184816133be576133bd615c25565b5b048201901c905060018184816133d7576133d6615c25565b5b048201901c905060018184816133f0576133ef615c25565b5b048201901c9050600181848161340957613408615c25565b5b048201901c9050600181848161342257613421615c25565b5b048201901c90506134438182858161343d5761343c615c25565b5b04613c6d565b9150505b919050565b5f825f528160205f2001905092915050565b5f5b818310156134c8575f6134738484613c85565b90508465ffffffffffff16613488878361344c565b5f015f9054906101000a900465ffffffffffff1665ffffffffffff1611156134b2578092506134c2565b6001816134bf9190615965565b93505b50613460565b819050949350505050565b5f5f5f8360f81c90508060ff16602f1080156134f25750603a8160ff16105b15613507576001603082039250925050613565565b8060ff16604010801561351d575060478160ff16105b15613532576001603782039250925050613565565b8060ff166060108015613548575060678160ff16105b1561355d576001605782039250925050613565565b5f5f92509250505b915091565b5f63ffffffff80168211156135b9576020826040517f6dfcc6500000000000000000000000000000000000000000000000000000000081526004016135b0929190615df0565b60405180910390fd5b819050919050565b606060ff5f1b83146135dd576135d683613caa565b9050613668565b8180546135e990614fd1565b80601f016020809104026020016040519081016040528092919081815260200182805461361590614fd1565b80156136605780601f1061363757610100808354040283529160200191613660565b820191905f5260205f20905b81548152906001019060200180831161364357829003601f168201915b505050505090505b92915050565b5f815111156136805780518082602001fd5b6040517f1425ea4200000000000000000000000000000000000000000000000000000000815260040160405180910390fd5b5f5f5f858054905090505f811115613932575f6136db876001846136d69190615229565b61344c565b6040518060400160405290815f82015f9054906101000a900465ffffffffffff1665ffffffffffff1665ffffffffffff1681526020015f820160069054906101000a900479ffffffffffffffffffffffffffffffffffffffffffffffffffff1679ffffffffffffffffffffffffffffffffffffffffffffffffffff1679ffffffffffffffffffffffffffffffffffffffffffffffffffff168152505090508565ffffffffffff16815f015165ffffffffffff1611156137c6576040517f2520601d00000000000000000000000000000000000000000000000000000000815260040160405180910390fd5b8565ffffffffffff16815f015165ffffffffffff160361384857846137f7886001856137f29190615229565b61344c565b5f0160066101000a81548179ffffffffffffffffffffffffffffffffffffffffffffffffffff021916908379ffffffffffffffffffffffffffffffffffffffffffffffffffff160217905550613921565b8660405180604001604052808865ffffffffffff1681526020018779ffffffffffffffffffffffffffffffffffffffffffffffffffff16815250908060018154018082558091505060019003905f5260205f20015f909190919091505f820151815f015f6101000a81548165ffffffffffff021916908365ffffffffffff1602179055506020820151815f0160066101000a81548179ffffffffffffffffffffffffffffffffffffffffffffffffffff021916908379ffffffffffffffffffffffffffffffffffffffffffffffffffff16021790555050505b806020015185935093505050613a12565b8560405180604001604052808765ffffffffffff1681526020018679ffffffffffffffffffffffffffffffffffffffffffffffffffff16815250908060018154018082558091505060019003905f5260205f20015f909190919091505f820151815f015f6101000a81548165ffffffffffff021916908365ffffffffffff1602179055506020820151815f0160066101000a81548179ffffffffffffffffffffffffffffffffffffffffffffffffffff021916908379ffffffffffffffffffffffffffffffffffffffffffffffffffff16021790555050505f8492509250505b935093915050565b5f7f8b73c3c69bb8fe3d512ecc4cf759cc79239f7b179b0ffacaa9a75d522b39400f7f00000000000000000000000000000000000000000000000000000000000000007f00000000000000000000000000000000000000000000000000000000000000004630604051602001613a94959493929190615e17565b60405160208183030381529060405280519060200120905090565b5f5f5f7f7fffffffffffffffffffffffffffffff5d576e7357a4501ddfe92f46681b20a0845f1c1115613aeb575f600385925092509250613b8c565b5f6001888888886040515f8152602001604052604051613b0e9493929190615e68565b6020604051602081039080840390855afa158015613b2e573d5f5f3e3d5ffd5b5050506020604051035190505f73ffffffffffffffffffffffffffffffffffffffff168173ffffffffffffffffffffffffffffffffffffffff1603613b7f575f60015f5f1b93509350935050613b8c565b805f5f5f1b935093509350505b9450945094915050565b5f5f5f90505f608084901c1115613bb557608083901c92506080810190505b5f604084901c1115613bcf57604083901c92506040810190505b5f602084901c1115613be957602083901c92506020810190505b5f601084901c1115613c0357601083901c92506010810190505b5f600884901c1115613c1d57600883901c92506008810190505b5f600484901c1115613c3757600483901c92506004810190505b5f600284901c1115613c5157600283901c92506002810190505b5f600184901c1115613c64576001810190505b80915050919050565b5f818310613c7b5781613c7d565b825b905092915050565b5f6002828418613c959190615c52565b828416613ca29190615965565b905092915050565b60605f613cb683613d1c565b90505f602067ffffffffffffffff811115613cd457613cd3613fce565b5b6040519080825280601f01601f191660200182016040528015613d065781602001600182028036833780820191505090505b5090508181528360208201528092505050919050565b5f5f60ff835f1c169050601f811115613d61576040517fb3512b0c00000000000000000000000000000000000000000000000000000000815260040160405180910390fd5b80915050919050565b5f604051905090565b5f5ffd5b5f5ffd5b5f7fffffffff0000000000000000000000000000000000000000000000000000000082169050919050565b613daf81613d7b565b8114613db9575f5ffd5b50565b5f81359050613dca81613da6565b92915050565b5f60208284031215613de557613de4613d73565b5b5f613df284828501613dbc565b91505092915050565b5f8115159050919050565b613e0f81613dfb565b82525050565b5f602082019050613e285f830184613e06565b92915050565b5f819050919050565b613e4081613e2e565b82525050565b5f602082019050613e595f830184613e37565b92915050565b613e6881613e2e565b8114613e72575f5ffd5b50565b5f81359050613e8381613e5f565b92915050565b5f60208284031215613e9e57613e9d613d73565b5b5f613eab84828501613e75565b91505092915050565b5f81519050919050565b5f82825260208201905092915050565b8281835e5f83830152505050565b5f601f19601f8301169050919050565b5f613ef682613eb4565b613f008185613ebe565b9350613f10818560208601613ece565b613f1981613edc565b840191505092915050565b5f6020820190508181035f830152613f3c8184613eec565b905092915050565b5f73ffffffffffffffffffffffffffffffffffffffff82169050919050565b5f613f6d82613f44565b9050919050565b613f7d81613f63565b82525050565b5f602082019050613f965f830184613f74565b92915050565b613fa581613f63565b8114613faf575f5ffd5b50565b5f81359050613fc081613f9c565b92915050565b5f5ffd5b5f5ffd5b7f4e487b71000000000000000000000000000000000000000000000000000000005f52604160045260245ffd5b61400482613edc565b810181811067ffffffffffffffff8211171561402357614022613fce565b5b80604052505050565b5f614035613d6a565b90506140418282613ffb565b919050565b5f67ffffffffffffffff8211156140605761405f613fce565b5b61406982613edc565b9050602081019050919050565b828183375f83830152505050565b5f61409661409184614046565b61402c565b9050828152602081018484840111156140b2576140b1613fca565b5b6140bd848285614076565b509392505050565b5f82601f8301126140d9576140d8613fc6565b5b81356140e9848260208601614084565b91505092915050565b5f5f5f5f6080858703121561410a57614109613d73565b5b5f61411787828801613fb2565b945050602061412887828801613fb2565b935050604061413987828801613e75565b925050606085013567ffffffffffffffff81111561415a57614159613d77565b5b614166878288016140c5565b91505092959194509250565b61417b81613d7b565b82525050565b5f6020820190506141945f830184614172565b92915050565b5f67ffffffffffffffff8211156141b4576141b3613fce565b5b602082029050602081019050919050565b5f5ffd5b5f6141db6141d68461419a565b61402c565b905080838252602082019050602084028301858111156141fe576141fd6141c5565b5b835b8181101561422757806142138882613fb2565b845260208401935050602081019050614200565b5050509392505050565b5f82601f83011261424557614244613fc6565b5b81356142558482602086016141c9565b91505092915050565b5f67ffffffffffffffff82111561427857614277613fce565b5b602082029050602081019050919050565b5f61429b6142968461425e565b61402c565b905080838252602082019050602084028301858111156142be576142bd6141c5565b5b835b818110156142e757806142d38882613e75565b8452602084019350506020810190506142c0565b5050509392505050565b5f82601f83011261430557614304613fc6565b5b8135614315848260208601614289565b91505092915050565b5f67ffffffffffffffff82111561433857614337613fce565b5b602082029050602081019050919050565b5f61435b6143568461431e565b61402c565b9050808382526020820190506020840283018581111561437e5761437d6141c5565b5b835b818110156143c557803567ffffffffffffffff8111156143a3576143a2613fc6565b5b8086016143b089826140c5565b85526020850194505050602081019050614380565b5050509392505050565b5f82601f8301126143e3576143e2613fc6565b5b81356143f3848260208601614349565b91505092915050565b5f819050919050565b61440e816143fc565b8114614418575f5ffd5b50565b5f8135905061442981614405565b92915050565b5f5f5f5f6080858703121561444757614446613d73565b5b5f85013567ffffffffffffffff81111561446457614463613d77565b5b61447087828801614231565b945050602085013567ffffffffffffffff81111561449157614490613d77565b5b61449d878288016142f1565b935050604085013567ffffffffffffffff8111156144be576144bd613d77565b5b6144ca878288016143cf565b92505060606144db8782880161441b565b91505092959194509250565b6144f0816143fc565b82525050565b5f6020820190506145095f8301846144e7565b92915050565b7f4e487b71000000000000000000000000000000000000000000000000000000005f52602160045260245ffd5b6008811061454d5761454c61450f565b5b50565b5f81905061455d8261453c565b919050565b5f61456c82614550565b9050919050565b61457c81614562565b82525050565b5f6020820190506145955f830184614573565b92915050565b5f5f604083850312156145b1576145b0613d73565b5b5f6145be85828601613e75565b92505060206145cf85828601613fb2565b9150509250929050565b5f60ff82169050919050565b6145ee816145d9565b81146145f8575f5ffd5b50565b5f81359050614609816145e5565b92915050565b5f5f6040838503121561462557614624613d73565b5b5f61463285828601613e75565b9250506020614643858286016145fb565b9150509250929050565b5f5ffd5b5f5f83601f84011261466657614665613fc6565b5b8235905067ffffffffffffffff8111156146835761468261464d565b5b60208301915083600182028301111561469f5761469e6141c5565b5b9250929050565b5f5f5f5f5f5f5f60c0888a0312156146c1576146c0613d73565b5b5f6146ce8a828b01613e75565b97505060206146df8a828b016145fb565b96505060406146f08a828b01613fb2565b955050606088013567ffffffffffffffff81111561471157614710613d77565b5b61471d8a828b01614651565b9450945050608088013567ffffffffffffffff8111156147405761473f613d77565b5b61474c8a828b016140c5565b92505060a088013567ffffffffffffffff81111561476d5761476c613d77565b5b6147798a828b016140c5565b91505092959891949750929550565b5f5f5f5f5f608086880312156147a1576147a0613d73565b5b5f6147ae88828901613e75565b95505060206147bf888289016145fb565b945050604086013567ffffffffffffffff8111156147e0576147df613d77565b5b6147ec88828901614651565b9350935050606086013567ffffffffffffffff81111561480f5761480e613d77565b5b61481b888289016140c5565b9150509295509295909350565b5f5f5f5f606085870312156148405761483f613d73565b5b5f61484d87828801613e75565b945050602061485e878288016145fb565b935050604085013567ffffffffffffffff81111561487f5761487e613d77565b5b61488b87828801614651565b925092505092959194509250565b5f67ffffffffffffffff8211156148b3576148b2613fce565b5b6148bc82613edc565b9050602081019050919050565b5f6148db6148d684614899565b61402c565b9050828152602081018484840111156148f7576148f6613fca565b5b614902848285614076565b509392505050565b5f82601f83011261491e5761491d613fc6565b5b813561492e8482602086016148c9565b91505092915050565b5f5f5f5f6080858703121561494f5761494e613d73565b5b5f85013567ffffffffffffffff81111561496c5761496b613d77565b5b61497887828801614231565b945050602085013567ffffffffffffffff81111561499957614998613d77565b5b6149a5878288016142f1565b935050604085013567ffffffffffffffff8111156149c6576149c5613d77565b5b6149d2878288016143cf565b925050606085013567ffffffffffffffff8111156149f3576149f2613d77565b5b6149ff8782880161490a565b91505092959194509250565b5f60208284031215614a2057614a1f613d73565b5b5f614a2d84828501613fb2565b91505092915050565b5f7fff0000000000000000000000000000000000000000000000000000000000000082169050919050565b614a6a81614a36565b82525050565b5f81519050919050565b5f82825260208201905092915050565b5f819050602082019050919050565b614aa281613e2e565b82525050565b5f614ab38383614a99565b60208301905092915050565b5f602082019050919050565b5f614ad582614a70565b614adf8185614a7a565b9350614aea83614a8a565b805f5b83811015614b1a578151614b018882614aa8565b9750614b0c83614abf565b925050600181019050614aed565b5085935050505092915050565b5f60e082019050614b3a5f83018a614a61565b8181036020830152614b4c8189613eec565b90508181036040830152614b608188613eec565b9050614b6f6060830187613e37565b614b7c6080830186613f74565b614b8960a08301856144e7565b81810360c0830152614b9b8184614acb565b905098975050505050505050565b5f5f5f5f60808587031215614bc157614bc0613d73565b5b5f614bce87828801613e75565b9450506020614bdf878288016145fb565b9350506040614bf087828801613fb2565b925050606085013567ffffffffffffffff811115614c1157614c10613d77565b5b614c1d878288016140c5565b91505092959194509250565b5f65ffffffffffff82169050919050565b614c4381614c29565b82525050565b5f602082019050614c5c5f830184614c3a565b92915050565b5f5f5f60608486031215614c7957614c78613d73565b5b5f614c8686828701613fb2565b9350506020614c9786828701613e75565b925050604084013567ffffffffffffffff811115614cb857614cb7613d77565b5b614cc4868287016140c5565b9150509250925092565b5f5f5f5f5f60a08688031215614ce757614ce6613d73565b5b5f614cf488828901613fb2565b9550506020614d0588828901613fb2565b945050604086013567ffffffffffffffff811115614d2657614d25613d77565b5b614d32888289016142f1565b935050606086013567ffffffffffffffff811115614d5357614d52613d77565b5b614d5f888289016142f1565b925050608086013567ffffffffffffffff811115614d8057614d7f613d77565b5b614d8c888289016140c5565b9150509295509295909350565b5f5f83601f840112614dae57614dad613fc6565b5b8235905067ffffffffffffffff811115614dcb57614dca61464d565b5b602083019150836001820283011115614de757614de66141c5565b5b9250929050565b5f5f5f5f60608587031215614e0657614e05613d73565b5b5f614e1387828801613fb2565b9450506020614e2487828801613e75565b935050604085013567ffffffffffffffff811115614e4557614e44613d77565b5b614e5187828801614d99565b925092505092959194509250565b5f5f60408385031215614e7557614e74613d73565b5b5f614e8285828601613fb2565b9250506020614e9385828601613e75565b9150509250929050565b5f5f5f5f5f60a08688031215614eb657614eb5613d73565b5b5f614ec388828901613fb2565b9550506020614ed488828901613fb2565b9450506040614ee588828901613e75565b9350506060614ef688828901613e75565b925050608086013567ffffffffffffffff811115614f1757614f16613d77565b5b614f23888289016140c5565b9150509295509295909350565b5f819050919050565b5f614f53614f4e614f4984613f44565b614f30565b613f44565b9050919050565b5f614f6482614f39565b9050919050565b5f614f7582614f5a565b9050919050565b614f8581614f6b565b82525050565b5f602082019050614f9e5f830184614f7c565b92915050565b7f4e487b71000000000000000000000000000000000000000000000000000000005f52602260045260245ffd5b5f6002820490506001821680614fe857607f821691505b602082108103614ffb57614ffa614fa4565b5b50919050565b5f61501b61501661501184614c29565b614f30565b613e2e565b9050919050565b61502b81615001565b82525050565b5f6040820190506150445f830185613e37565b6150516020830184615022565b9392505050565b7f4e487b71000000000000000000000000000000000000000000000000000000005f52603260045260245ffd5b5f61509761509284614899565b61402c565b9050828152602081018484840111156150b3576150b2613fca565b5b6150be848285613ece565b509392505050565b5f82601f8301126150da576150d9613fc6565b5b81516150ea848260208601615085565b91505092915050565b5f6020828403121561510857615107613d73565b5b5f82015167ffffffffffffffff81111561512557615124613d77565b5b615131848285016150c6565b91505092915050565b5f81905092915050565b5f61514f838561513a565b935061515c838584614076565b82840190509392505050565b5f615174828486615144565b91508190509392505050565b615189816145d9565b82525050565b5f60e0820190506151a25f83018a6144e7565b6151af6020830189613e37565b6151bc6040830188615180565b6151c96060830187613f74565b6151d66080830186613e37565b6151e360a08301856144e7565b6151f060c08301846144e7565b98975050505050505050565b7f4e487b71000000000000000000000000000000000000000000000000000000005f52601160045260245ffd5b5f61523382613e2e565b915061523e83613e2e565b9250828203905081811115615256576152556151fc565b5b92915050565b5f61526682614c29565b915061527183614c29565b9250828203905065ffffffffffff81111561528f5761528e6151fc565b5b92915050565b5f6060820190506152a85f830186613f74565b6152b56020830185613e37565b6152c26040830184613e37565b949350505050565b5f60a0820190506152dd5f8301886144e7565b6152ea6020830187613e37565b6152f76040830186615180565b6153046060830185613f74565b6153116080830184613e37565b9695505050505050565b61532481614c29565b811461532e575f5ffd5b50565b5f8151905061533f8161531b565b92915050565b5f6020828403121561535a57615359613d73565b5b5f61536784828501615331565b91505092915050565b5f61537a82614c29565b915061538583614c29565b9250828201905065ffffffffffff8111156153a3576153a26151fc565b5b92915050565b5f81519050919050565b5f82825260208201905092915050565b5f819050602082019050919050565b6153db81613f63565b82525050565b5f6153ec83836153d2565b60208301905092915050565b5f602082019050919050565b5f61540e826153a9565b61541881856153b3565b9350615423836153c3565b805f5b8381101561545357815161543a88826153e1565b9750615445836153f8565b925050600181019050615426565b5085935050505092915050565b5f81519050919050565b5f82825260208201905092915050565b5f819050602082019050919050565b5f81519050919050565b5f82825260208201905092915050565b5f6154ad82615489565b6154b78185615493565b93506154c7818560208601613ece565b6154d081613edc565b840191505092915050565b5f6154e683836154a3565b905092915050565b5f602082019050919050565b5f61550482615460565b61550e818561546a565b9350836020820285016155208561547a565b805f5b8581101561555b578484038952815161553c85826154db565b9450615547836154ee565b925060208a01995050600181019050615523565b50829750879550505050505092915050565b5f6080820190508181035f8301526155858187615404565b905081810360208301526155998186614acb565b905081810360408301526155ad81856154fa565b90506155bc60608301846144e7565b95945050505050565b5f6040820190506155d85f830185613e37565b6155e56020830184613e37565b9392505050565b5f6060820190506155ff5f830186613e37565b61560c6020830185614573565b61561960408301846144e7565b949350505050565b5f61562b82615489565b615635818561513a565b9350615645818560208601613ece565b80840191505092915050565b5f61565c8284615621565b915081905092915050565b5f615671826145d9565b915061567c836145d9565b9250828201905060ff811115615695576156946151fc565b5b92915050565b5f8160011c9050919050565b5f5f8291508390505b60018511156156f0578086048111156156cc576156cb6151fc565b5b60018516156156db5780820291505b80810290506156e98561569b565b94506156b0565b94509492505050565b5f8261570857600190506157c3565b81615715575f90506157c3565b816001811461572b576002811461573557615764565b60019150506157c3565b60ff841115615747576157466151fc565b5b8360020a91508482111561575e5761575d6151fc565b5b506157c3565b5060208310610133831016604e8410600b84101617156157995782820a905083811115615794576157936151fc565b5b6157c3565b6157a684848460016156a7565b925090508184048111156157bd576157bc6151fc565b5b81810290505b9392505050565b5f6157d482613e2e565b91506157df836145d9565b925061580c7fffffffffffffffffffffffffffffffffffffffffffffffffffffffffffffffff84846156f9565b905092915050565b5f6080820190506158275f830187613e37565b6158346020830186615180565b6158416040830185613e37565b81810360608301526158538184613eec565b905095945050505050565b5f82825260208201905092915050565b5f61587882615489565b615882818561585e565b9350615892818560208601613ece565b61589b81613edc565b840191505092915050565b5f60a0820190506158b95f830188613e37565b6158c66020830187615180565b6158d36040830186613e37565b81810360608301526158e58185613eec565b905081810360808301526158f9818461586e565b90509695505050505050565b5f819050919050565b5f61592861592361591e84615905565b614f30565b6145d9565b9050919050565b6159388161590e565b82525050565b5f6040820190506159515f83018561592f565b61595e6020830184613e37565b9392505050565b5f61596f82613e2e565b915061597a83613e2e565b9250828201905080821115615992576159916151fc565b5b92915050565b5f6060820190506159ab5f830186613e37565b6159b86020830185613e37565b6159c56040830184613e37565b949350505050565b5f81519050919050565b5f82825260208201905092915050565b5f819050602082019050919050565b5f82825260208201905092915050565b5f615a1082613eb4565b615a1a81856159f6565b9350615a2a818560208601613ece565b615a3381613edc565b840191505092915050565b5f615a498383615a06565b905092915050565b5f602082019050919050565b5f615a67826159cd565b615a7181856159d7565b935083602082028501615a83856159e7565b805f5b85811015615abe5784840389528151615a9f8582615a3e565b9450615aaa83615a51565b925060208a01995050600181019050615a86565b50829750879550505050505092915050565b5f61012082019050615ae45f83018c613e37565b615af1602083018b613f74565b8181036040830152615b03818a615404565b90508181036060830152615b178189614acb565b90508181036080830152615b2b8188615a5d565b905081810360a0830152615b3f81876154fa565b9050615b4e60c0830186613e37565b615b5b60e0830185613e37565b818103610100830152615b6e8184613eec565b90509a9950505050505050505050565b5f604082019050615b915f830185613f74565b615b9e6020830184613e37565b9392505050565b5f81519050615bb381613e5f565b92915050565b5f60208284031215615bce57615bcd613d73565b5b5f615bdb84828501615ba5565b91505092915050565b5f615bee82613e2e565b9150615bf983613e2e565b9250828202615c0781613e2e565b91508282048414831517615c1e57615c1d6151fc565b5b5092915050565b7f4e487b71000000000000000000000000000000000000000000000000000000005f52601260045260245ffd5b5f615c5c82613e2e565b9150615c6783613e2e565b925082615c7757615c76615c25565b5b828204905092915050565b5f819050919050565b5f615ca5615ca0615c9b84615c82565b614f30565b6145d9565b9050919050565b615cb581615c8b565b82525050565b5f604082019050615cce5f830185615cac565b615cdb6020830184613e37565b9392505050565b5f604082019050615cf55f8301856144e7565b8181036020830152615d07818461586e565b90509392505050565b5f81519050615d1e81614405565b92915050565b5f60208284031215615d3957615d38613d73565b5b5f615d4684828501615d10565b91505092915050565b7f4e6f20766f74696e6720706f77657200000000000000000000000000000000005f82015250565b5f615d83600f83613ebe565b9150615d8e82615d4f565b602082019050919050565b5f6020820190508181035f830152615db081615d77565b9050919050565b5f819050919050565b5f615dda615dd5615dd084615db7565b614f30565b6145d9565b9050919050565b615dea81615dc0565b82525050565b5f604082019050615e035f830185615de1565b615e106020830184613e37565b9392505050565b5f60a082019050615e2a5f8301886144e7565b615e3760208301876144e7565b615e4460408301866144e7565b615e516060830185613e37565b615e5e6080830184613f74565b9695505050505050565b5f608082019050615e7b5f8301876144e7565b615e886020830186615180565b615e9560408301856144e7565b615ea260608301846144e7565b9594505050505056fea2646970667358221220338360df574f9a21504833cbf580dc889a9a0b6700e58f9424d22b684437a84964736f6c634300081e0033","linkReferences":{}},"methodIdentifiers":{"BALLOT_TYPEHASH()":"deaaa7cc","CLOCK_MODE()":"4bf5d7e9","COUNTING_MODE()":"dd4e2ba5","EXTENDED_BALLOT_TYPEHASH()":"2fe3e261","cancel(address[],uint256[],bytes[],bytes32)":"452115d6","castVote(uint256,uint8)":"56781388","castVoteBySig(uint256,uint8,address,bytes)":"8ff262e3","castVoteWithReason(uint256,uint8,string)":"7b3c71d3","castVoteWithReasonAndParams(uint256,uint8,string,bytes)":"5f398a14","castVoteWithReasonAndParamsBySig(uint256,uint8,address,string,bytes,bytes)":"5b8d0e0d","clock()":"91ddadf4","eip712Domain()":"84b0196e","execute(address[],uint256[],bytes[],bytes32)":"2656227d","getVotes(address,uint256)":"eb9019d4","getVotesWithParams(address,uint256,bytes)":"9a802a6d","hasVoted(uint256,address)":"43859632","hashProposal(address[],uint256[],bytes[],bytes32)":"c59057e4","name()":"06fdde03","nonces(address)":"7ecebe00","onERC1155BatchReceived(address,address,uint256[],uint256[],bytes)":"bc197c81","onERC1155Received(address,address,uint256,uint256,bytes)":"f23a6e61","onERC721Received(address,address,uint256,bytes)":"150b7a02","proposalDeadline(uint256)":"c01f9e37","proposalEta(uint256)":"ab58fb8e","proposalNeedsQueuing(uint256)":"a9a95294","proposalProposer(uint256)":"143489d0","proposalSnapshot(uint256)":"2d63f693","proposalThreshold()":"b58131b0","propose(address[],uint256[],bytes[],string)":"7d5e81e2","queue(address[],uint256[],bytes[],bytes32)":"160cbed7","quorum(uint256)":"f8ce560a","quorumDenominator()":"97c3d334","quorumNumerator()":"a7713a70","quorumNumerator(uint256)":"60c4247f","relay(address,uint256,bytes)":"c28bc2fa","state(uint256)":"3e4f49e6","supportsInterface(bytes4)":"01ffc9a7","token()":"fc0c546a","updateQuorumNumerator(uint256)":"06f3f9e6","version()":"54fd4d50","votingDelay()":"3932abb1","votingPeriod()":"02a251a3"},"id":62}