{"abi":[{"type":"constructor","inputs":[],"stateMutability":"nonpayable"},{"type":"function","name":"DEFAULT_ADMIN_ROLE","inputs":[],"outputs":[{"name":"","type":"bytes32","internalType":"bytes32"}],"stateMutability":"view"},{"type":"function","name":"MAX_SUPPLY","inputs":[],"outputs":[{"name":"","type":"uint256","internalType":"uint256"}],"stateMutability":"view"},{"type":"function","name":"PROFESSOR_ROLE","inputs":[],"outputs":[{"name":"","type":"bytes32","internalType":"bytes32"}],"stateMutability":"view"},{"type":"function","name":"STUDENT_ROLE","inputs":[],"outputs":[{"name":"","type":"bytes32","internalType":"bytes32"}],"stateMutability":"view"},{"type":"function","name":"allowance","inputs":[{"name":"owner","type":"address","internalType":"address"},{"name":"spender","type":"address","internalType":"address"}],"outputs":[{"name":"","type":"uint256","internalType":"uint256"}],"stateMutability":"view"},{"type":"function","name":"approve","inputs":[{"name":"spender","type":"address","internalType":"address"},{"name":"value","type":"uint256","internalType":"uint256"}],"outputs":[{"name":"","type":"bool","internalType":"bool"}],"stateMutability":"nonpayable"},{"type":"function","name":"balanceOf","inputs":[{"name":"account","type":"address","internalType":"address"}],"outputs":[{"name":"","type":"uint256","internalType":"uint256"}],"stateMutability":"view"},{"type":"function","name":"decimals","inputs":[],"outputs":[{"name":"","type":"uint8","internalType":"uint8"}],"stateMutability":"pure"},{"type":"function","name":"getRoleAdmin","inputs":[{"name":"role","type":"bytes32","internalType":"bytes32"}],"outputs":[{"name":"","type":"bytes32","internalType":"bytes32"}],"stateMutability":"view"},{"type":"function","name":"getStake","inputs":[{"name":"user","type":"address","internalType":"address"}],"outputs":[{"name":"","type":"uint256","internalType":"uint256"}],"stateMutability":"view"},{"type":"function","name":"grantRole","inputs":[{"name":"role","type":"bytes32","internalType":"bytes32"},{"name":"account","type":"address","internalType":"address"}],"outputs":[],"stateMutability":"nonpayable"},{"type":"function","name":"hasRole","inputs":[{"name":"role","type":"bytes32","internalType":"bytes32"},{"name":"account","type":"address","internalType":"address"}],"outputs":[{"name":"","type":"bool","internalType":"bool"}],"stateMutability":"view"},{"type":"function","name":"maxStake","inputs":[],"outputs":[{"name":"","type":"uint256","internalType":"uint256"}],"stateMutability":"view"},{"type":"function","name":"mint","inputs":[{"name":"to","type":"address","internalType":"address"},{"name":"amount","type":"uint256","internalType":"uint256"}],"outputs":[],"stateMutability":"nonpayable"},{"type":"function","name":"name","inputs":[],"outputs":[{"name":"","type":"string","internalType":"string"}],"stateMutability":"view"},{"type":"function","name":"paused","inputs":[],"outputs":[{"name":"","type":"bool","internalType":"bool"}],"stateMutability":"view"},{"type":"function","name":"renounceRole","inputs":[{"name":"role","type":"bytes32","internalType":"bytes32"},{"name":"callerConfirmation","type":"address","internalType":"address"}],"outputs":[],"stateMutability":"nonpayable"},{"type":"function","name":"resetUserStake","inputs":[{"name":"user","type":"address","internalType":"address"}],"outputs":[],"stateMutability":"nonpayable"},{"type":"function","name":"revokeRole","inputs":[{"name":"role","type":"bytes32","internalType":"bytes32"},{"name":"account","type":"address","internalType":"address"}],"outputs":[],"stateMutability":"nonpayable"},{"type":"function","name":"setPaused","inputs":[{"name":"_paused","type":"bool","internalType":"bool"}],"outputs":[],"stateMutability":"nonpayable"},{"type":"function","name":"stake","inputs":[{"name":"amount","type":"uint256","internalType":"uint256"}],"outputs":[],"stateMutability":"nonpayable"},{"type":"function","name":"stakedBalance","inputs":[{"name":"","type":"address","internalType":"address"}],"outputs":[{"name":"","type":"uint256","internalType":"uint256"}],"stateMutability":"view"},{"type":"function","name":"supportsInterface","inputs":[{"name":"interfaceId","type":"bytes4","internalType":"bytes4"}],"outputs":[{"name":"","type":"bool","internalType":"bool"}],"stateMutability":"view"},{"type":"function","name":"symbol","inputs":[],"outputs":[{"name":"","type":"string","internalType":"string"}],"stateMutability":"view"},{"type":"function","name":"totalSupply","inputs":[],"outputs":[{"name":"","type":"uint256","internalType":"uint256"}],"stateMutability":"view"},{"type":"function","name":"transfer","inputs":[{"name":"to","type":"address","internalType":"address"},{"name":"value","type":"uint256","internalType":"uint256"}],"outputs":[{"name":"","type":"bool","internalType":"bool"}],"stateMutability":"nonpayable"},{"type":"function","name":"transferFrom","inputs":[{"name":"from","type":"address","internalType":"address"},{"name":"to","type":"address","internalType":"address"},{"name":"value","type":"uint256","internalType":"uint256"}],"outputs":[{"name":"","type":"bool","internalType":"bool"}],"stateMutability":"nonpayable"},{"type":"function","name":"unstake","inputs":[{"name":"amount","type":"uint256","internalType":"uint256"}],"outputs":[],"stateMutability":"nonpayable"},{"type":"event","name":"Approval","inputs":[{"name":"owner","type":"address","indexed":true,"internalType":"address"},{"name":"spender","type":"address","indexed":true,"internalType":"address"},{"name":"value","type":"uint256","indexed":false,"internalType":"uint256"}],"anonymous":false},{"type":"event","name":"RoleAdminChanged","inputs":[{"name":"role","type":"bytes32","indexed":true,"internalType":"bytes32"},{"name":"previousAdminRole","type":"bytes32","indexed":true,"internalType":"bytes32"},{"name":"newAdminRole","type":"bytes32","indexed":true,"internalType":"bytes32"}],"anonymous":false},{"type":"event","name":"RoleGranted","inputs":[{"name":"role","type":"bytes32","indexed":true,"internalType":"bytes32"},{"name":"account","type":"address","indexed":true,"internalType":"address"},{"name":"sender","type":"address","indexed":true,"internalType":"address"}],"anonymous":false},{"type":"event","name":"RoleRevoked","inputs":[{"name":"role","type":"bytes32","indexed":true,"internalType":"bytes32"},{"name":"account","type":"address","indexed":true,"internalType":"address"},{"name":"sender","type":"address","indexed":true,"internalType":"address"}],"anonymous":false},{"type":"event","name":"Staked","inputs":[{"name":"user","type":"address","indexed":true,"internalType":"address"},{"name":"amount","type":"uint256","indexed":false,"internalType":"uint256"}],"anonymous":false},{"type":"event","name":"Transfer","inputs":[{"name":"from","type":"address","indexed":true,"internalType":"address"},{"name":"to","type":"address","indexed":true,"internalType":"address"},{"name":"value","type":"uint256","indexed":false,"internalType":"uint256"}],"anonymous":false},{"type":"event","name":"Unstaked","inputs":[{"name":"user","type":"address","indexed":true,"internalType":"address"},{"name":"amount","type":"uint256","indexed":false,"internalType":"uint256"}],"anonymous":false},{"type":"error","name":"AccessControlBadConfirmation","inputs":[]},{"type":"error","name":"AccessControlUnauthorizedAccount","inputs":[{"name":"account","type":"address","internalType":"address"},{"name":"neededRole","type":"bytes32","internalType":"bytes32"}]},{"type":"error","name":"ERC20InsufficientAllowance","inputs":[{"name":"spender","type":"address","internalType":"address"},{"name":"allowance","type":"uint256","internalType":"uint256"},{"name":"needed","type":"uint256","internalType":"uint256"}]},{"type":"error","name":"ERC20InsufficientBalance","inputs":[{"name":"sender","type":"address","internalType":"address"},{"name":"balance","type":"uint256","internalType":"uint256"},{"name":"needed","type":"uint256","internalType":"uint256"}]},{"type":"error","name":"ERC20InvalidApprover","inputs":[{"name":"approver","type":"address","internalType":"address"}]},{"type":"error","name":"ERC20InvalidReceiver","inputs":[{"name":"receiver","type":"address","internalType":"address"}]},{"type":"error","name":"ERC20InvalidSender","inputs":[{"name":"sender","type":"address","internalType":"address"}]},{"type":"error","name":"ERC20InvalidSpender","inputs":[{"name":"spender","type":"address","internalType":"address"}]}],"bytecode":{"object":"0x608060405269021e19e0c9bab240000060075534801561001d575f5ffd5b506040518060400160405280600981526020017f45445520546f6b656e00000000000000000000000000000000000000000000008152506040518060400160405280600381526020017f454455000000000000000000000000000000000000000000000000000000000081525081600390816100999190610462565b5080600490816100a99190610462565b5050506100be5f5f1b336100c460201b60201c565b50610531565b5f6100d583836101ba60201b60201c565b6101b057600160055f8581526020019081526020015f205f015f8473ffffffffffffffffffffffffffffffffffffffff1673ffffffffffffffffffffffffffffffffffffffff1681526020019081526020015f205f6101000a81548160ff02191690831515021790555061014d61021e60201b60201c565b73ffffffffffffffffffffffffffffffffffffffff168273ffffffffffffffffffffffffffffffffffffffff16847f2f8788117e7eff1d82e926ec794901d17c78024a50270940304540a733656f0d60405160405180910390a4600190506101b4565b5f90505b92915050565b5f60055f8481526020019081526020015f205f015f8373ffffffffffffffffffffffffffffffffffffffff1673ffffffffffffffffffffffffffffffffffffffff1681526020019081526020015f205f9054906101000a900460ff16905092915050565b5f33905090565b5f81519050919050565b7f4e487b71000000000000000000000000000000000000000000000000000000005f52604160045260245ffd5b7f4e487b71000000000000000000000000000000000000000000000000000000005f52602260045260245ffd5b5f60028204905060018216806102a057607f821691505b6020821081036102b3576102b261025c565b5b50919050565b5f819050815f5260205f209050919050565b5f6020601f8301049050919050565b5f82821b905092915050565b5f600883026103157fffffffffffffffffffffffffffffffffffffffffffffffffffffffffffffffff826102da565b61031f86836102da565b95508019841693508086168417925050509392505050565b5f819050919050565b5f819050919050565b5f61036361035e61035984610337565b610340565b610337565b9050919050565b5f819050919050565b61037c83610349565b6103906103888261036a565b8484546102e6565b825550505050565b5f5f905090565b6103a7610398565b6103b2818484610373565b505050565b5b818110156103d5576103ca5f8261039f565b6001810190506103b8565b5050565b601f82111561041a576103eb816102b9565b6103f4846102cb565b81016020851015610403578190505b61041761040f856102cb565b8301826103b7565b50505b505050565b5f82821c905092915050565b5f61043a5f198460080261041f565b1980831691505092915050565b5f610452838361042b565b9150826002028217905092915050565b61046b82610225565b67ffffffffffffffff8111156104845761048361022f565b5b61048e8254610289565b6104998282856103d9565b5f60209050601f8311600181146104ca575f84156104b8578287015190505b6104c28582610447565b865550610529565b601f1984166104d8866102b9565b5f5b828110156104ff578489015182556001820191506020850194506020810190506104da565b8683101561051c5784890151610518601f89168261042b565b8355505b6001600288020188555050505b505050505050565b61213c8061053e5f395ff3fe608060405234801561000f575f5ffd5b50600436106101c2575f3560e01c80635c975abb116100f7578063a694fc3a11610095578063d547741f1161006f578063d547741f1461052a578063dd62ed3e14610546578063ea1b28e014610576578063f7be43fb14610594576101c2565b8063a694fc3a146104c0578063a9059cbb146104dc578063c81cf7711461050c576101c2565b80637a766460116100d15780637a7664601461042457806391d148541461045457806395d89b4114610484578063a217fddf146104a2576101c2565b80635c975abb146103a657806360217267146103c457806370a08231146103f4576101c2565b8063248a9ca311610164578063313ce5671161013e578063313ce5671461033257806332cb6b0c1461035057806336568abe1461036e57806340c10f191461038a576101c2565b8063248a9ca3146102ca5780632e17de78146102fa5780632f2ff15d14610316576101c2565b806316c38b3c116101a057806316c38b3c1461024457806318160ddd1461026057806323b872dd1461027e57806323f2366c146102ae576101c2565b806301ffc9a7146101c657806306fdde03146101f6578063095ea7b314610214575b5f5ffd5b6101e060048036038101906101db9190611882565b6105b2565b6040516101ed91906118c7565b60405180910390f35b6101fe61062b565b60405161020b9190611950565b60405180910390f35b61022e600480360381019061022991906119fd565b6106bb565b60405161023b91906118c7565b60405180910390f35b61025e60048036038101906102599190611a65565b6106dd565b005b610268610706565b6040516102759190611a9f565b60405180910390f35b61029860048036038101906102939190611ab8565b61070f565b6040516102a591906118c7565b60405180910390f35b6102c860048036038101906102c39190611b08565b61073d565b005b6102e460048036038101906102df9190611b66565b61078f565b6040516102f19190611ba0565b60405180910390f35b610314600480360381019061030f9190611bb9565b6107ac565b005b610330600480360381019061032b9190611be4565b61092a565b005b61033a61094c565b6040516103479190611c3d565b60405180910390f35b610358610954565b6040516103659190611a9f565b60405180910390f35b61038860048036038101906103839190611be4565b610964565b005b6103a4600480360381019061039f91906119fd565b6109df565b005b6103ae610a5b565b6040516103bb91906118c7565b60405180910390f35b6103de60048036038101906103d99190611b08565b610a6d565b6040516103eb9190611a9f565b60405180910390f35b61040e60048036038101906104099190611b08565b610a82565b60405161041b9190611a9f565b60405180910390f35b61043e60048036038101906104399190611b08565b610ac7565b60405161044b9190611a9f565b60405180910390f35b61046e60048036038101906104699190611be4565b610b0d565b60405161047b91906118c7565b60405180910390f35b61048c610b71565b6040516104999190611950565b60405180910390f35b6104aa610c01565b6040516104b79190611ba0565b60405180910390f35b6104da60048036038101906104d59190611bb9565b610c07565b005b6104f660048036038101906104f191906119fd565b610e71565b60405161050391906118c7565b60405180910390f35b610514610e93565b6040516105219190611ba0565b60405180910390f35b610544600480360381019061053f9190611be4565b610eb7565b005b610560600480360381019061055b9190611c56565b610ed9565b60405161056d9190611a9f565b60405180910390f35b61057e610f5b565b60405161058b9190611a9f565b60405180910390f35b61059c610f61565b6040516105a99190611ba0565b60405180910390f35b5f7f7965db0b000000000000000000000000000000000000000000000000000000007bffffffffffffffffffffffffffffffffffffffffffffffffffffffff1916827bffffffffffffffffffffffffffffffffffffffffffffffffffffffff19161480610624575061062382610f85565b5b9050919050565b60606003805461063a90611cc1565b80601f016020809104026020016040519081016040528092919081815260200182805461066690611cc1565b80156106b15780601f10610688576101008083540402835291602001916106b1565b820191905f5260205f20905b81548152906001019060200180831161069457829003601f168201915b5050505050905090565b5f5f6106c5610fee565b90506106d2818585610ff5565b600191505092915050565b5f5f1b6106e981611007565b8160085f6101000a81548160ff0219169083151502179055505050565b5f600254905090565b5f5f610719610fee565b905061072685828561101b565b6107318585856110ad565b60019150509392505050565b5f5f1b61074981611007565b5f60065f8473ffffffffffffffffffffffffffffffffffffffff1673ffffffffffffffffffffffffffffffffffffffff1681526020019081526020015f20819055505050565b5f60055f8381526020019081526020015f20600101549050919050565b60085f9054906101000a900460ff16156107fb576040517f08c379a00000000000000000000000000000000000000000000000000000000081526004016107f290611d3b565b60405180910390fd5b8060065f3373ffffffffffffffffffffffffffffffffffffffff1673ffffffffffffffffffffffffffffffffffffffff1681526020019081526020015f2054101561087b576040517f08c379a000000000000000000000000000000000000000000000000000000000815260040161087290611da3565b60405180910390fd5b8060065f3373ffffffffffffffffffffffffffffffffffffffff1673ffffffffffffffffffffffffffffffffffffffff1681526020019081526020015f205f8282546108c79190611dee565b925050819055506108d93033836110ad565b3373ffffffffffffffffffffffffffffffffffffffff167f0f5bb82176feb1b5e747e28471aa92156a04d9f3ab9f45f28e2d704232b93f758260405161091f9190611a9f565b60405180910390a250565b6109338261078f565b61093c81611007565b610946838361119d565b50505050565b5f6012905090565b6b033b2e3c9fd0803ce800000081565b61096c610fee565b73ffffffffffffffffffffffffffffffffffffffff168173ffffffffffffffffffffffffffffffffffffffff16146109d0576040517f6697b23200000000000000000000000000000000000000000000000000000000815260040160405180910390fd5b6109da8282611287565b505050565b5f5f1b6109eb81611007565b6b033b2e3c9fd0803ce800000082610a01610706565b610a0b9190611e21565b1115610a4c576040517f08c379a0000000000000000000000000000000000000000000000000000000008152600401610a4390611e9e565b60405180910390fd5b610a568383611371565b505050565b60085f9054906101000a900460ff1681565b6006602052805f5260405f205f915090505481565b5f5f5f8373ffffffffffffffffffffffffffffffffffffffff1673ffffffffffffffffffffffffffffffffffffffff1681526020019081526020015f20549050919050565b5f60065f8373ffffffffffffffffffffffffffffffffffffffff1673ffffffffffffffffffffffffffffffffffffffff1681526020019081526020015f20549050919050565b5f60055f8481526020019081526020015f205f015f8373ffffffffffffffffffffffffffffffffffffffff1673ffffffffffffffffffffffffffffffffffffffff1681526020019081526020015f205f9054906101000a900460ff16905092915050565b606060048054610b8090611cc1565b80601f0160208091040260200160405190810160405280929190818152602001828054610bac90611cc1565b8015610bf75780601f10610bce57610100808354040283529160200191610bf7565b820191905f5260205f20905b815481529060010190602001808311610bda57829003601f168201915b5050505050905090565b5f5f1b81565b60085f9054906101000a900460ff1615610c56576040517f08c379a0000000000000000000000000000000000000000000000000000000008152600401610c4d90611d3b565b60405180910390fd5b610c807f36a5c4aaacb6b388bbd448bf11096b7dafc5652bcc9046084fd0e95b1fb0b2cc33610b0d565b80610cb15750610cb07f577f08e4a510a24c05fb531f78cace5d373d442eb2ba1e22f5bcf2bf4248c21e33610b0d565b5b610cf0576040517f08c379a0000000000000000000000000000000000000000000000000000000008152600401610ce790611f2c565b60405180910390fd5b5f8111610d32576040517f08c379a0000000000000000000000000000000000000000000000000000000008152600401610d2990611f94565b60405180910390fd5b600754811115610d77576040517f08c379a0000000000000000000000000000000000000000000000000000000008152600401610d6e90611ffc565b60405180910390fd5b80610d8133610a82565b1015610dc2576040517f08c379a0000000000000000000000000000000000000000000000000000000008152600401610db990612064565b60405180910390fd5b610dcd3330836110ad565b8060065f3373ffffffffffffffffffffffffffffffffffffffff1673ffffffffffffffffffffffffffffffffffffffff1681526020019081526020015f205f828254610e199190611e21565b925050819055503373ffffffffffffffffffffffffffffffffffffffff167f9e71bc8eea02a63969f509818f2dafb9254532904319f9dbda79b67bd34a5f3d82604051610e669190611a9f565b60405180910390a250565b5f5f610e7b610fee565b9050610e888185856110ad565b600191505092915050565b7f577f08e4a510a24c05fb531f78cace5d373d442eb2ba1e22f5bcf2bf4248c21e81565b610ec08261078f565b610ec981611007565b610ed38383611287565b50505050565b5f60015f8473ffffffffffffffffffffffffffffffffffffffff1673ffffffffffffffffffffffffffffffffffffffff1681526020019081526020015f205f8373ffffffffffffffffffffffffffffffffffffffff1673ffffffffffffffffffffffffffffffffffffffff1681526020019081526020015f2054905092915050565b60075481565b7f36a5c4aaacb6b388bbd448bf11096b7dafc5652bcc9046084fd0e95b1fb0b2cc81565b5f7f01ffc9a7000000000000000000000000000000000000000000000000000000007bffffffffffffffffffffffffffffffffffffffffffffffffffffffff1916827bffffffffffffffffffffffffffffffffffffffffffffffffffffffff1916149050919050565b5f33905090565b61100283838360016113f0565b505050565b61101881611013610fee565b6115bf565b50565b5f6110268484610ed9565b90507fffffffffffffffffffffffffffffffffffffffffffffffffffffffffffffffff81146110a75781811015611098578281836040517ffb8f41b200000000000000000000000000000000000000000000000000000000815260040161108f93929190612091565b60405180910390fd5b6110a684848484035f6113f0565b5b50505050565b5f73ffffffffffffffffffffffffffffffffffffffff168373ffffffffffffffffffffffffffffffffffffffff160361111d575f6040517f96c6fd1e00000000000000000000000000000000000000000000000000000000815260040161111491906120c6565b60405180910390fd5b5f73ffffffffffffffffffffffffffffffffffffffff168273ffffffffffffffffffffffffffffffffffffffff160361118d575f6040517fec442f0500000000000000000000000000000000000000000000000000000000815260040161118491906120c6565b60405180910390fd5b611198838383611610565b505050565b5f6111a88383610b0d565b61127d57600160055f8581526020019081526020015f205f015f8473ffffffffffffffffffffffffffffffffffffffff1673ffffffffffffffffffffffffffffffffffffffff1681526020019081526020015f205f6101000a81548160ff02191690831515021790555061121a610fee565b73ffffffffffffffffffffffffffffffffffffffff168273ffffffffffffffffffffffffffffffffffffffff16847f2f8788117e7eff1d82e926ec794901d17c78024a50270940304540a733656f0d60405160405180910390a460019050611281565b5f90505b92915050565b5f6112928383610b0d565b15611367575f60055f8581526020019081526020015f205f015f8473ffffffffffffffffffffffffffffffffffffffff1673ffffffffffffffffffffffffffffffffffffffff1681526020019081526020015f205f6101000a81548160ff021916908315150217905550611304610fee565b73ffffffffffffffffffffffffffffffffffffffff168273ffffffffffffffffffffffffffffffffffffffff16847ff6391f5c32d9c69d2a47ea670b442974b53935d1edc7fd64eb21e047a839171b60405160405180910390a46001905061136b565b5f90505b92915050565b5f73ffffffffffffffffffffffffffffffffffffffff168273ffffffffffffffffffffffffffffffffffffffff16036113e1575f6040517fec442f050000000000000000000000000000000000000000000000000000000081526004016113d891906120c6565b60405180910390fd5b6113ec5f8383611610565b5050565b5f73ffffffffffffffffffffffffffffffffffffffff168473ffffffffffffffffffffffffffffffffffffffff1603611460575f6040517fe602df0500000000000000000000000000000000000000000000000000000000815260040161145791906120c6565b60405180910390fd5b5f73ffffffffffffffffffffffffffffffffffffffff168373ffffffffffffffffffffffffffffffffffffffff16036114d0575f6040517f94280d620000000000000000000000000000000000000000000000000000000081526004016114c791906120c6565b60405180910390fd5b8160015f8673ffffffffffffffffffffffffffffffffffffffff1673ffffffffffffffffffffffffffffffffffffffff1681526020019081526020015f205f8573ffffffffffffffffffffffffffffffffffffffff1673ffffffffffffffffffffffffffffffffffffffff1681526020019081526020015f208190555080156115b9578273ffffffffffffffffffffffffffffffffffffffff168473ffffffffffffffffffffffffffffffffffffffff167f8c5be1e5ebec7d5bd14f71427d1e84f3dd0314c0f7b2291e5b200ac8c7c3b925846040516115b09190611a9f565b60405180910390a35b50505050565b6115c98282610b0d565b61160c5780826040517fe2517d3f0000000000000000000000000000000000000000000000000000000081526004016116039291906120df565b60405180910390fd5b5050565b5f73ffffffffffffffffffffffffffffffffffffffff168373ffffffffffffffffffffffffffffffffffffffff1603611660578060025f8282546116549190611e21565b9250508190555061172e565b5f5f5f8573ffffffffffffffffffffffffffffffffffffffff1673ffffffffffffffffffffffffffffffffffffffff1681526020019081526020015f20549050818110156116e9578381836040517fe450d38c0000000000000000000000000000000000000000000000000000000081526004016116e093929190612091565b60405180910390fd5b8181035f5f8673ffffffffffffffffffffffffffffffffffffffff1673ffffffffffffffffffffffffffffffffffffffff1681526020019081526020015f2081905550505b5f73ffffffffffffffffffffffffffffffffffffffff168273ffffffffffffffffffffffffffffffffffffffff1603611775578060025f82825403925050819055506117bf565b805f5f8473ffffffffffffffffffffffffffffffffffffffff1673ffffffffffffffffffffffffffffffffffffffff1681526020019081526020015f205f82825401925050819055505b8173ffffffffffffffffffffffffffffffffffffffff168373ffffffffffffffffffffffffffffffffffffffff167fddf252ad1be2c89b69c2b068fc378daa952ba7f163c4a11628f55a4df523b3ef8360405161181c9190611a9f565b60405180910390a3505050565b5f5ffd5b5f7fffffffff0000000000000000000000000000000000000000000000000000000082169050919050565b6118618161182d565b811461186b575f5ffd5b50565b5f8135905061187c81611858565b92915050565b5f6020828403121561189757611896611829565b5b5f6118a48482850161186e565b91505092915050565b5f8115159050919050565b6118c1816118ad565b82525050565b5f6020820190506118da5f8301846118b8565b92915050565b5f81519050919050565b5f82825260208201905092915050565b8281835e5f83830152505050565b5f601f19601f8301169050919050565b5f611922826118e0565b61192c81856118ea565b935061193c8185602086016118fa565b61194581611908565b840191505092915050565b5f6020820190508181035f8301526119688184611918565b905092915050565b5f73ffffffffffffffffffffffffffffffffffffffff82169050919050565b5f61199982611970565b9050919050565b6119a98161198f565b81146119b3575f5ffd5b50565b5f813590506119c4816119a0565b92915050565b5f819050919050565b6119dc816119ca565b81146119e6575f5ffd5b50565b5f813590506119f7816119d3565b92915050565b5f5f60408385031215611a1357611a12611829565b5b5f611a20858286016119b6565b9250506020611a31858286016119e9565b9150509250929050565b611a44816118ad565b8114611a4e575f5ffd5b50565b5f81359050611a5f81611a3b565b92915050565b5f60208284031215611a7a57611a79611829565b5b5f611a8784828501611a51565b91505092915050565b611a99816119ca565b82525050565b5f602082019050611ab25f830184611a90565b92915050565b5f5f5f60608486031215611acf57611ace611829565b5b5f611adc868287016119b6565b9350506020611aed868287016119b6565b9250506040611afe868287016119e9565b9150509250925092565b5f60208284031215611b1d57611b1c611829565b5b5f611b2a848285016119b6565b91505092915050565b5f819050919050565b611b4581611b33565b8114611b4f575f5ffd5b50565b5f81359050611b6081611b3c565b92915050565b5f60208284031215611b7b57611b7a611829565b5b5f611b8884828501611b52565b91505092915050565b611b9a81611b33565b82525050565b5f602082019050611bb35f830184611b91565b92915050565b5f60208284031215611bce57611bcd611829565b5b5f611bdb848285016119e9565b91505092915050565b5f5f60408385031215611bfa57611bf9611829565b5b5f611c0785828601611b52565b9250506020611c18858286016119b6565b9150509250929050565b5f60ff82169050919050565b611c3781611c22565b82525050565b5f602082019050611c505f830184611c2e565b92915050565b5f5f60408385031215611c6c57611c6b611829565b5b5f611c79858286016119b6565b9250506020611c8a858286016119b6565b9150509250929050565b7f4e487b71000000000000000000000000000000000000000000000000000000005f52602260045260245ffd5b5f6002820490506001821680611cd857607f821691505b602082108103611ceb57611cea611c94565b5b50919050565b7f436f6e74726163742069732070617573656400000000000000000000000000005f82015250565b5f611d256012836118ea565b9150611d3082611cf1565b602082019050919050565b5f6020820190508181035f830152611d5281611d19565b9050919050565b7f496e73756666696369656e74207374616b65642062616c616e636500000000005f82015250565b5f611d8d601b836118ea565b9150611d9882611d59565b602082019050919050565b5f6020820190508181035f830152611dba81611d81565b9050919050565b7f4e487b71000000000000000000000000000000000000000000000000000000005f52601160045260245ffd5b5f611df8826119ca565b9150611e03836119ca565b9250828203905081811115611e1b57611e1a611dc1565b5b92915050565b5f611e2b826119ca565b9150611e36836119ca565b9250828201905080821115611e4e57611e4d611dc1565b5b92915050565b7f45786365656473206d617820737570706c7900000000000000000000000000005f82015250565b5f611e886012836118ea565b9150611e9382611e54565b602082019050919050565b5f6020820190508181035f830152611eb581611e7c565b9050919050565b7f4163636573732064656e6965643a204f6e6c792053747564656e742f50726f665f8201527f6573736f72000000000000000000000000000000000000000000000000000000602082015250565b5f611f166025836118ea565b9150611f2182611ebc565b604082019050919050565b5f6020820190508181035f830152611f4381611f0a565b9050919050565b7f416d6f756e74206d757374206265203e203000000000000000000000000000005f82015250565b5f611f7e6012836118ea565b9150611f8982611f4a565b602082019050919050565b5f6020820190508181035f830152611fab81611f72565b9050919050565b7f45786365656473206d6178207374616b650000000000000000000000000000005f82015250565b5f611fe66011836118ea565b9150611ff182611fb2565b602082019050919050565b5f6020820190508181035f83015261201381611fda565b9050919050565b7f496e73756666696369656e742062616c616e63650000000000000000000000005f82015250565b5f61204e6014836118ea565b91506120598261201a565b602082019050919050565b5f6020820190508181035f83015261207b81612042565b9050919050565b61208b8161198f565b82525050565b5f6060820190506120a45f830186612082565b6120b16020830185611a90565b6120be6040830184611a90565b949350505050565b5f6020820190506120d95f830184612082565b92915050565b5f6040820190506120f25f830185612082565b6120ff6020830184611b91565b939250505056fea26469706673582212202d6a8d24e981efdcd59f72ae2b8273e69f97540f3a3560b219eaffd2d8f1eba964736f6c634300081e0033","linkReferences":{}},"methodIdentifiers":{"DEFAULT_ADMIN_ROLE()":"a217fddf","MAX_SUPPLY()":"32cb6b0c","PROFESSOR_ROLE()":"c81cf771","STUDENT_ROLE()":"f7be43fb","allowance(address,address)":"dd62ed3e","approve(address,uint256)":"095ea7b3","balanceOf(address)":"70a08231","decimals()":"313ce567","getRoleAdmin(bytes32)":"248a9ca3","getStake(address)":"7a766460","grantRole(bytes32,address)":"2f2ff15d","hasRole(bytes32,address)":"91d14854","maxStake()":"ea1b28e0","mint(address,uint256)":"40c10f19","name()":"06fdde03","paused()":"5c975abb","renounceRole(bytes32,address)":"36568abe","resetUserStake(address)":"23f2366c","revokeRole(bytes32,address)":"d547741f","setPaused(bool)":"16c38b3c","stake(uint256)":"a694fc3a","stakedBalance(address)":"60217267","supportsInterface(bytes4)":"01ffc9a7","symbol()":"95d89b41","totalSupply()":"18160ddd","transfer(address,uint256)":"a9059cbb","transferFrom(address,address,uint256)":"23b872dd","unstake(uint256)":"2e17de78"},"id":64}