{"abi":[{"type":"constructor","inputs":[{"name":"_rewardRate","type":"uint256","internalType":"uint256"},{"name":"_maxReward","type":"uint256","internalType":"uint256"}],"stateMutability":"nonpayable"},{"type":"function","name":"calculateRewards","inputs":[{"name":"user","type":"address","internalType":"address"}],"outputs":[],"stateMutability":"nonpayable"},{"type":"function","name":"maxReward","inputs":[],"outputs":[{"name":"","type":"uint256","internalType":"uint256"}],"stateMutability":"view"},{"type":"function","name":"rewardRate","inputs":[],"outputs":[{"name":"","type":"uint256","internalType":"uint256"}],"stateMutability":"view"},{"type":"function","name":"rewards","inputs":[{"name":"","type":"address","internalType":"address"}],"outputs":[{"name":"","type":"uint256","internalType":"uint256"}],"stateMutability":"view"},{"type":"function","name":"stake","inputs":[{"name":"amount","type":"uint256","internalType":"uint256"}],"outputs":[],"stateMutability":"nonpayable"},{"type":"function","name":"stakingBalance","inputs":[{"name":"","type":"address","internalType":"address"}],"outputs":[{"name":"","type":"uint256","internalType":"uint256"}],"stateMutability":"view"},{"type":"error","name":"ZeroBalance","inputs":[]}],"bytecode":{"object":"0x6080604052348015600e575f5ffd5b506040516105f23803806105f28339818101604052810190602e91906074565b8160028190555080600381905550505060ab565b5f5ffd5b5f819050919050565b6056816046565b8114605f575f5ffd5b50565b5f81519050606e81604f565b92915050565b5f5f6040838503121560875760866042565b5b5f6092858286016062565b925050602060a1858286016062565b9150509250929050565b61053a806100b85f395ff3fe608060405234801561000f575f5ffd5b5060043610610060575f3560e01c80630700037d1461006457806345bc78ab1461009457806364ab8675146100c457806366a78e6c146100e05780637b0a47ee146100fe578063a694fc3a1461011c575b5f5ffd5b61007e60048036038101906100799190610355565b610138565b60405161008b9190610398565b60405180910390f35b6100ae60048036038101906100a99190610355565b61014d565b6040516100bb9190610398565b60405180910390f35b6100de60048036038101906100d99190610355565b610161565b005b6100e8610296565b6040516100f59190610398565b60405180910390f35b61010661029c565b6040516101139190610398565b60405180910390f35b610136600480360381019061013191906103db565b6102a2565b005b6001602052805f5260405f205f915090505481565b5f602052805f5260405f205f915090505481565b5f5f5f8373ffffffffffffffffffffffffffffffffffffffff1673ffffffffffffffffffffffffffffffffffffffff1681526020019081526020015f2054036101d6576040517f669567ea00000000000000000000000000000000000000000000000000000000815260040160405180910390fd5b5f60646002545f5f8573ffffffffffffffffffffffffffffffffffffffff1673ffffffffffffffffffffffffffffffffffffffff1681526020019081526020015f20546102239190610433565b61022d91906104a1565b905060035481111561023f5760035490505b8060015f8473ffffffffffffffffffffffffffffffffffffffff1673ffffffffffffffffffffffffffffffffffffffff1681526020019081526020015f205f82825461028b91906104d1565b925050819055505050565b60035481565b60025481565b805f5f3373ffffffffffffffffffffffffffffffffffffffff1673ffffffffffffffffffffffffffffffffffffffff1681526020019081526020015f205f8282546102ed91906104d1565b9250508190555050565b5f5ffd5b5f73ffffffffffffffffffffffffffffffffffffffff82169050919050565b5f610324826102fb565b9050919050565b6103348161031a565b811461033e575f5ffd5b50565b5f8135905061034f8161032b565b92915050565b5f6020828403121561036a576103696102f7565b5b5f61037784828501610341565b91505092915050565b5f819050919050565b61039281610380565b82525050565b5f6020820190506103ab5f830184610389565b92915050565b6103ba81610380565b81146103c4575f5ffd5b50565b5f813590506103d5816103b1565b92915050565b5f602082840312156103f0576103ef6102f7565b5b5f6103fd848285016103c7565b91505092915050565b7f4e487b71000000000000000000000000000000000000000000000000000000005f52601160045260245ffd5b5f61043d82610380565b915061044883610380565b925082820261045681610380565b9150828204841483151761046d5761046c610406565b5b5092915050565b7f4e487b71000000000000000000000000000000000000000000000000000000005f52601260045260245ffd5b5f6104ab82610380565b91506104b683610380565b9250826104c6576104c5610474565b5b828204905092915050565b5f6104db82610380565b91506104e683610380565b92508282019050808211156104fe576104fd610406565b5b9291505056fea2646970667358221220d17685a59ee155b0d97394bfddb87cb85e06fba1be8e602ed621cde52b4414ee64736f6c634300081e0033","linkReferences":{}},"methodIdentifiers":{"calculateRewards(address)":"64ab8675","maxReward()":"66a78e6c","rewardRate()":"7b0a47ee","rewards(address)":"0700037d","stake(uint256)":"a694fc3a","stakingBalance(address)":"45bc78ab"},"id":63}